{
    "_format": "hh-sol-artifact-1",
    "contractName": "BasicNft",
    "sourceName": "contracts/BasicNft.sol",
    "abi": [
        {
            "inputs": [],
            "stateMutability": "nonpayable",
            "type": "constructor"
        },
        {
            "anonymous": false,
            "inputs": [
                {
                    "indexed": true,
                    "internalType": "address",
                    "name": "owner",
                    "type": "address"
                },
                {
                    "indexed": true,
                    "internalType": "address",
                    "name": "approved",
                    "type": "address"
                },
                {
                    "indexed": true,
                    "internalType": "uint256",
                    "name": "tokenId",
                    "type": "uint256"
                }
            ],
            "name": "Approval",
            "type": "event"
        },
        {
            "anonymous": false,
            "inputs": [
                {
                    "indexed": true,
                    "internalType": "address",
                    "name": "owner",
                    "type": "address"
                },
                {
                    "indexed": true,
                    "internalType": "address",
                    "name": "operator",
                    "type": "address"
                },
                {
                    "indexed": false,
                    "internalType": "bool",
                    "name": "approved",
                    "type": "bool"
                }
            ],
            "name": "ApprovalForAll",
            "type": "event"
        },
        {
            "anonymous": false,
            "inputs": [
                {
                    "indexed": true,
                    "internalType": "uint256",
                    "name": "tokenId",
                    "type": "uint256"
                }
            ],
            "name": "Minted",
            "type": "event"
        },
        {
            "anonymous": false,
            "inputs": [
                {
                    "indexed": true,
                    "internalType": "address",
                    "name": "from",
                    "type": "address"
                },
                {
                    "indexed": true,
                    "internalType": "address",
                    "name": "to",
                    "type": "address"
                },
                {
                    "indexed": true,
                    "internalType": "uint256",
                    "name": "tokenId",
                    "type": "uint256"
                }
            ],
            "name": "Transfer",
            "type": "event"
        },
        {
            "inputs": [
                {
                    "internalType": "address",
                    "name": "to",
                    "type": "address"
                },
                {
                    "internalType": "uint256",
                    "name": "tokenId",
                    "type": "uint256"
                }
            ],
            "name": "approve",
            "outputs": [],
            "stateMutability": "nonpayable",
            "type": "function"
        },
        {
            "inputs": [
                {
                    "internalType": "address",
                    "name": "owner",
                    "type": "address"
                }
            ],
            "name": "balanceOf",
            "outputs": [
                {
                    "internalType": "uint256",
                    "name": "",
                    "type": "uint256"
                }
            ],
            "stateMutability": "view",
            "type": "function"
        },
        {
            "inputs": [
                {
                    "internalType": "uint256",
                    "name": "tokenId",
                    "type": "uint256"
                }
            ],
            "name": "getApproved",
            "outputs": [
                {
                    "internalType": "address",
                    "name": "",
                    "type": "address"
                }
            ],
            "stateMutability": "view",
            "type": "function"
        },
        {
            "inputs": [],
            "name": "getTokenCounter",
            "outputs": [
                {
                    "internalType": "uint256",
                    "name": "",
                    "type": "uint256"
                }
            ],
            "stateMutability": "view",
            "type": "function"
        },
        {
            "inputs": [
                {
                    "internalType": "address",
                    "name": "owner",
                    "type": "address"
                },
                {
                    "internalType": "address",
                    "name": "operator",
                    "type": "address"
                }
            ],
            "name": "isApprovedForAll",
            "outputs": [
                {
                    "internalType": "bool",
                    "name": "",
                    "type": "bool"
                }
            ],
            "stateMutability": "view",
            "type": "function"
        },
        {
            "inputs": [],
            "name": "mintNft",
            "outputs": [],
            "stateMutability": "nonpayable",
            "type": "function"
        },
        {
            "inputs": [],
            "name": "name",
            "outputs": [
                {
                    "internalType": "string",
                    "name": "",
                    "type": "string"
                }
            ],
            "stateMutability": "view",
            "type": "function"
        },
        {
            "inputs": [
                {
                    "internalType": "uint256",
                    "name": "tokenId",
                    "type": "uint256"
                }
            ],
            "name": "ownerOf",
            "outputs": [
                {
                    "internalType": "address",
                    "name": "",
                    "type": "address"
                }
            ],
            "stateMutability": "view",
            "type": "function"
        },
        {
            "inputs": [
                {
                    "internalType": "address",
                    "name": "from",
                    "type": "address"
                },
                {
                    "internalType": "address",
                    "name": "to",
                    "type": "address"
                },
                {
                    "internalType": "uint256",
                    "name": "tokenId",
                    "type": "uint256"
                }
            ],
            "name": "safeTransferFrom",
            "outputs": [],
            "stateMutability": "nonpayable",
            "type": "function"
        },
        {
            "inputs": [
                {
                    "internalType": "address",
                    "name": "from",
                    "type": "address"
                },
                {
                    "internalType": "address",
                    "name": "to",
                    "type": "address"
                },
                {
                    "internalType": "uint256",
                    "name": "tokenId",
                    "type": "uint256"
                },
                {
                    "internalType": "bytes",
                    "name": "data",
                    "type": "bytes"
                }
            ],
            "name": "safeTransferFrom",
            "outputs": [],
            "stateMutability": "nonpayable",
            "type": "function"
        },
        {
            "inputs": [
                {
                    "internalType": "address",
                    "name": "operator",
                    "type": "address"
                },
                {
                    "internalType": "bool",
                    "name": "approved",
                    "type": "bool"
                }
            ],
            "name": "setApprovalForAll",
            "outputs": [],
            "stateMutability": "nonpayable",
            "type": "function"
        },
        {
            "inputs": [
                {
                    "internalType": "bytes4",
                    "name": "interfaceId",
                    "type": "bytes4"
                }
            ],
            "name": "supportsInterface",
            "outputs": [
                {
                    "internalType": "bool",
                    "name": "",
                    "type": "bool"
                }
            ],
            "stateMutability": "view",
            "type": "function"
        },
        {
            "inputs": [],
            "name": "symbol",
            "outputs": [
                {
                    "internalType": "string",
                    "name": "",
                    "type": "string"
                }
            ],
            "stateMutability": "view",
            "type": "function"
        },
        {
            "inputs": [
                {
                    "internalType": "uint256",
                    "name": "index",
                    "type": "uint256"
                }
            ],
            "name": "tokenByIndex",
            "outputs": [
                {
                    "internalType": "uint256",
                    "name": "",
                    "type": "uint256"
                }
            ],
            "stateMutability": "view",
            "type": "function"
        },
        {
            "inputs": [
                {
                    "internalType": "address",
                    "name": "owner",
                    "type": "address"
                },
                {
                    "internalType": "uint256",
                    "name": "index",
                    "type": "uint256"
                }
            ],
            "name": "tokenOfOwnerByIndex",
            "outputs": [
                {
                    "internalType": "uint256",
                    "name": "",
                    "type": "uint256"
                }
            ],
            "stateMutability": "view",
            "type": "function"
        },
        {
            "inputs": [
                {
                    "internalType": "uint256",
                    "name": "tokenId",
                    "type": "uint256"
                }
            ],
            "name": "tokenURI",
            "outputs": [
                {
                    "internalType": "string",
                    "name": "",
                    "type": "string"
                }
            ],
            "stateMutability": "view",
            "type": "function"
        },
        {
            "inputs": [],
            "name": "totalSupply",
            "outputs": [
                {
                    "internalType": "uint256",
                    "name": "",
                    "type": "uint256"
                }
            ],
            "stateMutability": "view",
            "type": "function"
        },
        {
            "inputs": [
                {
                    "internalType": "address",
                    "name": "from",
                    "type": "address"
                },
                {
                    "internalType": "address",
                    "name": "to",
                    "type": "address"
                },
                {
                    "internalType": "uint256",
                    "name": "tokenId",
                    "type": "uint256"
                }
            ],
            "name": "transferFrom",
            "outputs": [],
            "stateMutability": "nonpayable",
            "type": "function"
        }
    ],
    "bytecode": "0x60806040523480156200001157600080fd5b506040518060400160405280600581526020017f4d794e46540000000000000000000000000000000000000000000000000000008152506040518060400160405280600481526020017f4d4e46540000000000000000000000000000000000000000000000000000000081525081600090816200008f91906200032c565b508060019081620000a191906200032c565b5050506000600a8190555062000413565b600081519050919050565b7f4e487b7100000000000000000000000000000000000000000000000000000000600052604160045260246000fd5b7f4e487b7100000000000000000000000000000000000000000000000000000000600052602260045260246000fd5b600060028204905060018216806200013457607f821691505b6020821081036200014a5762000149620000ec565b5b50919050565b60008190508160005260206000209050919050565b60006020601f8301049050919050565b600082821b905092915050565b600060088302620001b47fffffffffffffffffffffffffffffffffffffffffffffffffffffffffffffffff8262000175565b620001c0868362000175565b95508019841693508086168417925050509392505050565b6000819050919050565b6000819050919050565b60006200020d620002076200020184620001d8565b620001e2565b620001d8565b9050919050565b6000819050919050565b6200022983620001ec565b62000241620002388262000214565b84845462000182565b825550505050565b600090565b6200025862000249565b620002658184846200021e565b505050565b5b818110156200028d57620002816000826200024e565b6001810190506200026b565b5050565b601f821115620002dc57620002a68162000150565b620002b18462000165565b81016020851015620002c1578190505b620002d9620002d08562000165565b8301826200026a565b50505b505050565b600082821c905092915050565b60006200030160001984600802620002e1565b1980831691505092915050565b60006200031c8383620002ee565b9150826002028217905092915050565b6200033782620000b2565b67ffffffffffffffff811115620003535762000352620000bd565b5b6200035f82546200011b565b6200036c82828562000291565b600060209050601f831160018114620003a457600084156200038f578287015190505b6200039b85826200030e565b8655506200040b565b601f198416620003b48662000150565b60005b82811015620003de57848901518255600182019150602085019450602081019050620003b7565b86831015620003fe5784890151620003fa601f891682620002ee565b8355505b6001600288020188555050505b505050505050565b612fc780620004236000396000f3fe608060405234801561001057600080fd5b50600436106101165760003560e01c80636352211e116100a2578063a22cb46511610071578063a22cb46514610307578063b88d4fde14610323578063c2229fea1461033f578063c87b56dd14610349578063e985e9c51461037957610116565b80636352211e1461026b5780636e02007d1461029b57806370a08231146102b957806395d89b41146102e957610116565b806318160ddd116100e957806318160ddd146101b557806323b872dd146101d35780632f745c59146101ef57806342842e0e1461021f5780634f6ccce71461023b57610116565b806301ffc9a71461011b57806306fdde031461014b578063081812fc14610169578063095ea7b314610199575b600080fd5b61013560048036038101906101309190612018565b6103a9565b6040516101429190612060565b60405180910390f35b6101536103bb565b604051610160919061210b565b60405180910390f35b610183600480360381019061017e9190612163565b61044d565b60405161019091906121d1565b60405180910390f35b6101b360048036038101906101ae9190612218565b610493565b005b6101bd6105aa565b6040516101ca9190612267565b60405180910390f35b6101ed60048036038101906101e89190612282565b6105b7565b005b61020960048036038101906102049190612218565b610617565b6040516102169190612267565b60405180910390f35b61023960048036038101906102349190612282565b6106bc565b005b61025560048036038101906102509190612163565b6106dc565b6040516102629190612267565b60405180910390f35b61028560048036038101906102809190612163565b61074d565b60405161029291906121d1565b60405180910390f35b6102a36107d3565b6040516102b09190612267565b60405180910390f35b6102d360048036038101906102ce91906122d5565b6107dd565b6040516102e09190612267565b60405180910390f35b6102f1610894565b6040516102fe919061210b565b60405180910390f35b610321600480360381019061031c919061232e565b610926565b005b61033d600480360381019061033891906124a3565b61093c565b005b61034761099e565b005b610363600480360381019061035e9190612163565b6109f0565b604051610370919061210b565b60405180910390f35b610393600480360381019061038e9190612526565b610a58565b6040516103a09190612060565b60405180910390f35b60006103b482610aec565b9050919050565b6060600080546103ca90612595565b80601f01602080910402602001604051908101604052809291908181526020018280546103f690612595565b80156104435780601f1061041857610100808354040283529160200191610443565b820191906000526020600020905b81548152906001019060200180831161042657829003601f168201915b5050505050905090565b600061045882610b66565b6004600083815260200190815260200160002060009054906101000a900473ffffffffffffffffffffffffffffffffffffffff169050919050565b600061049e8261074d565b90508073ffffffffffffffffffffffffffffffffffffffff168373ffffffffffffffffffffffffffffffffffffffff160361050e576040517f08c379a000000000000000000000000000000000000000000000000000000000815260040161050590612638565b60405180910390fd5b8073ffffffffffffffffffffffffffffffffffffffff1661052d610bb1565b73ffffffffffffffffffffffffffffffffffffffff16148061055c575061055b81610556610bb1565b610a58565b5b61059b576040517f08c379a0000000000000000000000000000000000000000000000000000000008152600401610592906126ca565b60405180910390fd5b6105a58383610bb9565b505050565b6000600880549050905090565b6105c86105c2610bb1565b82610c72565b610607576040517f08c379a00000000000000000000000000000000000000000000000000000000081526004016105fe9061275c565b60405180910390fd5b610612838383610d07565b505050565b6000610622836107dd565b8210610663576040517f08c379a000000000000000000000000000000000000000000000000000000000815260040161065a906127ee565b60405180910390fd5b600660008473ffffffffffffffffffffffffffffffffffffffff1673ffffffffffffffffffffffffffffffffffffffff168152602001908152602001600020600083815260200190815260200160002054905092915050565b6106d78383836040518060200160405280600081525061093c565b505050565b60006106e66105aa565b8210610727576040517f08c379a000000000000000000000000000000000000000000000000000000000815260040161071e90612880565b60405180910390fd5b6008828154811061073b5761073a6128a0565b5b90600052602060002001549050919050565b60008061075983611000565b9050600073ffffffffffffffffffffffffffffffffffffffff168173ffffffffffffffffffffffffffffffffffffffff16036107ca576040517f08c379a00000000000000000000000000000000000000000000000000000000081526004016107c19061291b565b60405180910390fd5b80915050919050565b6000600a54905090565b60008073ffffffffffffffffffffffffffffffffffffffff168273ffffffffffffffffffffffffffffffffffffffff160361084d576040517f08c379a0000000000000000000000000000000000000000000000000000000008152600401610844906129ad565b60405180910390fd5b600360008373ffffffffffffffffffffffffffffffffffffffff1673ffffffffffffffffffffffffffffffffffffffff168152602001908152602001600020549050919050565b6060600180546108a390612595565b80601f01602080910402602001604051908101604052809291908181526020018280546108cf90612595565b801561091c5780601f106108f15761010080835404028352916020019161091c565b820191906000526020600020905b8154815290600101906020018083116108ff57829003601f168201915b5050505050905090565b610938610931610bb1565b838361103d565b5050565b61094d610947610bb1565b83610c72565b61098c576040517f08c379a00000000000000000000000000000000000000000000000000000000081526004016109839061275c565b60405180910390fd5b610998848484846111a9565b50505050565b6109aa33600a54611205565b600a547f176b02bb2d12439ff7a20b59f402cca16c76f50508b13ef3166a600eb719354a60405160405180910390a26001600a546109e891906129fc565b600a81905550565b60606109fb82610b66565b6000610a05611223565b90506000815111610a255760405180602001604052806000815250610a50565b80610a2f8461123a565b604051602001610a40929190612a6c565b6040516020818303038152906040525b915050919050565b6000600560008473ffffffffffffffffffffffffffffffffffffffff1673ffffffffffffffffffffffffffffffffffffffff16815260200190815260200160002060008373ffffffffffffffffffffffffffffffffffffffff1673ffffffffffffffffffffffffffffffffffffffff16815260200190815260200160002060009054906101000a900460ff16905092915050565b60007f780e9d63000000000000000000000000000000000000000000000000000000007bffffffffffffffffffffffffffffffffffffffffffffffffffffffff1916827bffffffffffffffffffffffffffffffffffffffffffffffffffffffff19161480610b5f5750610b5e82611308565b5b9050919050565b610b6f816113ea565b610bae576040517f08c379a0000000000000000000000000000000000000000000000000000000008152600401610ba59061291b565b60405180910390fd5b50565b600033905090565b816004600083815260200190815260200160002060006101000a81548173ffffffffffffffffffffffffffffffffffffffff021916908373ffffffffffffffffffffffffffffffffffffffff160217905550808273ffffffffffffffffffffffffffffffffffffffff16610c2c8361074d565b73ffffffffffffffffffffffffffffffffffffffff167f8c5be1e5ebec7d5bd14f71427d1e84f3dd0314c0f7b2291e5b200ac8c7c3b92560405160405180910390a45050565b600080610c7e8361074d565b90508073ffffffffffffffffffffffffffffffffffffffff168473ffffffffffffffffffffffffffffffffffffffff161480610cc05750610cbf8185610a58565b5b80610cfe57508373ffffffffffffffffffffffffffffffffffffffff16610ce68461044d565b73ffffffffffffffffffffffffffffffffffffffff16145b91505092915050565b8273ffffffffffffffffffffffffffffffffffffffff16610d278261074d565b73ffffffffffffffffffffffffffffffffffffffff1614610d7d576040517f08c379a0000000000000000000000000000000000000000000000000000000008152600401610d7490612b02565b60405180910390fd5b600073ffffffffffffffffffffffffffffffffffffffff168273ffffffffffffffffffffffffffffffffffffffff1603610dec576040517f08c379a0000000000000000000000000000000000000000000000000000000008152600401610de390612b94565b60405180910390fd5b610df9838383600161142b565b8273ffffffffffffffffffffffffffffffffffffffff16610e198261074d565b73ffffffffffffffffffffffffffffffffffffffff1614610e6f576040517f08c379a0000000000000000000000000000000000000000000000000000000008152600401610e6690612b02565b60405180910390fd5b6004600082815260200190815260200160002060006101000a81549073ffffffffffffffffffffffffffffffffffffffff02191690556001600360008573ffffffffffffffffffffffffffffffffffffffff1673ffffffffffffffffffffffffffffffffffffffff168152602001908152602001600020600082825403925050819055506001600360008473ffffffffffffffffffffffffffffffffffffffff1673ffffffffffffffffffffffffffffffffffffffff16815260200190815260200160002060008282540192505081905550816002600083815260200190815260200160002060006101000a81548173ffffffffffffffffffffffffffffffffffffffff021916908373ffffffffffffffffffffffffffffffffffffffff160217905550808273ffffffffffffffffffffffffffffffffffffffff168473ffffffffffffffffffffffffffffffffffffffff167fddf252ad1be2c89b69c2b068fc378daa952ba7f163c4a11628f55a4df523b3ef60405160405180910390a4610ffb838383600161143d565b505050565b60006002600083815260200190815260200160002060009054906101000a900473ffffffffffffffffffffffffffffffffffffffff169050919050565b8173ffffffffffffffffffffffffffffffffffffffff168373ffffffffffffffffffffffffffffffffffffffff16036110ab576040517f08c379a00000000000000000000000000000000000000000000000000000000081526004016110a290612c00565b60405180910390fd5b80600560008573ffffffffffffffffffffffffffffffffffffffff1673ffffffffffffffffffffffffffffffffffffffff16815260200190815260200160002060008473ffffffffffffffffffffffffffffffffffffffff1673ffffffffffffffffffffffffffffffffffffffff16815260200190815260200160002060006101000a81548160ff0219169083151502179055508173ffffffffffffffffffffffffffffffffffffffff168373ffffffffffffffffffffffffffffffffffffffff167f17307eab39ab6107e8899845ad3d59bd9653f200f220920489ca2b5937696c318360405161119c9190612060565b60405180910390a3505050565b6111b4848484610d07565b6111c084848484611443565b6111ff576040517f08c379a00000000000000000000000000000000000000000000000000000000081526004016111f690612c92565b60405180910390fd5b50505050565b61121f8282604051806020016040528060008152506115ca565b5050565b606060405180602001604052806000815250905090565b60606000600161124984611625565b01905060008167ffffffffffffffff81111561126857611267612378565b5b6040519080825280601f01601f19166020018201604052801561129a5781602001600182028036833780820191505090505b509050600082602001820190505b6001156112fd578080600190039150507f3031323334353637383961626364656600000000000000000000000000000000600a86061a8153600a85816112f1576112f0612cb2565b5b049450600085036112a8575b819350505050919050565b60007f80ac58cd000000000000000000000000000000000000000000000000000000007bffffffffffffffffffffffffffffffffffffffffffffffffffffffff1916827bffffffffffffffffffffffffffffffffffffffffffffffffffffffff191614806113d357507f5b5e139f000000000000000000000000000000000000000000000000000000007bffffffffffffffffffffffffffffffffffffffffffffffffffffffff1916827bffffffffffffffffffffffffffffffffffffffffffffffffffffffff1916145b806113e357506113e282611778565b5b9050919050565b60008073ffffffffffffffffffffffffffffffffffffffff1661140c83611000565b73ffffffffffffffffffffffffffffffffffffffff1614159050919050565b611437848484846117e2565b50505050565b50505050565b60006114648473ffffffffffffffffffffffffffffffffffffffff16611940565b156115bd578373ffffffffffffffffffffffffffffffffffffffff1663150b7a0261148d610bb1565b8786866040518563ffffffff1660e01b81526004016114af9493929190612d36565b6020604051808303816000875af19250505080156114eb57506040513d601f19601f820116820180604052508101906114e89190612d97565b60015b61156d573d806000811461151b576040519150601f19603f3d011682016040523d82523d6000602084013e611520565b606091505b506000815103611565576040517f08c379a000000000000000000000000000000000000000000000000000000000815260040161155c90612c92565b60405180910390fd5b805181602001fd5b63150b7a0260e01b7bffffffffffffffffffffffffffffffffffffffffffffffffffffffff1916817bffffffffffffffffffffffffffffffffffffffffffffffffffffffff1916149150506115c2565b600190505b949350505050565b6115d48383611963565b6115e16000848484611443565b611620576040517f08c379a000000000000000000000000000000000000000000000000000000000815260040161161790612c92565b60405180910390fd5b505050565b600080600090507a184f03e93ff9f4daa797ed6e38ed64bf6a1f0100000000000000008310611683577a184f03e93ff9f4daa797ed6e38ed64bf6a1f010000000000000000838161167957611678612cb2565b5b0492506040810190505b6d04ee2d6d415b85acef810000000083106116c0576d04ee2d6d415b85acef810000000083816116b6576116b5612cb2565b5b0492506020810190505b662386f26fc1000083106116ef57662386f26fc1000083816116e5576116e4612cb2565b5b0492506010810190505b6305f5e1008310611718576305f5e100838161170e5761170d612cb2565b5b0492506008810190505b612710831061173d57612710838161173357611732612cb2565b5b0492506004810190505b60648310611760576064838161175657611755612cb2565b5b0492506002810190505b600a831061176f576001810190505b80915050919050565b60007f01ffc9a7000000000000000000000000000000000000000000000000000000007bffffffffffffffffffffffffffffffffffffffffffffffffffffffff1916827bffffffffffffffffffffffffffffffffffffffffffffffffffffffff1916149050919050565b6117ee84848484611b80565b6001811115611832576040517f08c379a000000000000000000000000000000000000000000000000000000000815260040161182990612e36565b60405180910390fd5b6000829050600073ffffffffffffffffffffffffffffffffffffffff168573ffffffffffffffffffffffffffffffffffffffff16036118795761187481611ca6565b6118b8565b8373ffffffffffffffffffffffffffffffffffffffff168573ffffffffffffffffffffffffffffffffffffffff16146118b7576118b68582611cef565b5b5b600073ffffffffffffffffffffffffffffffffffffffff168473ffffffffffffffffffffffffffffffffffffffff16036118fa576118f581611e5c565b611939565b8473ffffffffffffffffffffffffffffffffffffffff168473ffffffffffffffffffffffffffffffffffffffff1614611938576119378482611f2d565b5b5b5050505050565b6000808273ffffffffffffffffffffffffffffffffffffffff163b119050919050565b600073ffffffffffffffffffffffffffffffffffffffff168273ffffffffffffffffffffffffffffffffffffffff16036119d2576040517f08c379a00000000000000000000000000000000000000000000000000000000081526004016119c990612ea2565b60405180910390fd5b6119db816113ea565b15611a1b576040517f08c379a0000000000000000000000000000000000000000000000000000000008152600401611a1290612f0e565b60405180910390fd5b611a2960008383600161142b565b611a32816113ea565b15611a72576040517f08c379a0000000000000000000000000000000000000000000000000000000008152600401611a6990612f0e565b60405180910390fd5b6001600360008473ffffffffffffffffffffffffffffffffffffffff1673ffffffffffffffffffffffffffffffffffffffff16815260200190815260200160002060008282540192505081905550816002600083815260200190815260200160002060006101000a81548173ffffffffffffffffffffffffffffffffffffffff021916908373ffffffffffffffffffffffffffffffffffffffff160217905550808273ffffffffffffffffffffffffffffffffffffffff16600073ffffffffffffffffffffffffffffffffffffffff167fddf252ad1be2c89b69c2b068fc378daa952ba7f163c4a11628f55a4df523b3ef60405160405180910390a4611b7c60008383600161143d565b5050565b6001811115611ca057600073ffffffffffffffffffffffffffffffffffffffff168473ffffffffffffffffffffffffffffffffffffffff1614611c145780600360008673ffffffffffffffffffffffffffffffffffffffff1673ffffffffffffffffffffffffffffffffffffffff1681526020019081526020016000206000828254611c0c9190612f2e565b925050819055505b600073ffffffffffffffffffffffffffffffffffffffff168373ffffffffffffffffffffffffffffffffffffffff1614611c9f5780600360008573ffffffffffffffffffffffffffffffffffffffff1673ffffffffffffffffffffffffffffffffffffffff1681526020019081526020016000206000828254611c9791906129fc565b925050819055505b5b50505050565b6008805490506009600083815260200190815260200160002081905550600881908060018154018082558091505060019003906000526020600020016000909190919091505550565b60006001611cfc846107dd565b611d069190612f2e565b9050600060076000848152602001908152602001600020549050818114611deb576000600660008673ffffffffffffffffffffffffffffffffffffffff1673ffffffffffffffffffffffffffffffffffffffff168152602001908152602001600020600084815260200190815260200160002054905080600660008773ffffffffffffffffffffffffffffffffffffffff1673ffffffffffffffffffffffffffffffffffffffff168152602001908152602001600020600084815260200190815260200160002081905550816007600083815260200190815260200160002081905550505b6007600084815260200190815260200160002060009055600660008573ffffffffffffffffffffffffffffffffffffffff1673ffffffffffffffffffffffffffffffffffffffff16815260200190815260200160002060008381526020019081526020016000206000905550505050565b60006001600880549050611e709190612f2e565b9050600060096000848152602001908152602001600020549050600060088381548110611ea057611e9f6128a0565b5b906000526020600020015490508060088381548110611ec257611ec16128a0565b5b906000526020600020018190555081600960008381526020019081526020016000208190555060096000858152602001908152602001600020600090556008805480611f1157611f10612f62565b5b6001900381819060005260206000200160009055905550505050565b6000611f38836107dd565b905081600660008573ffffffffffffffffffffffffffffffffffffffff1673ffffffffffffffffffffffffffffffffffffffff168152602001908152602001600020600083815260200190815260200160002081905550806007600084815260200190815260200160002081905550505050565b6000604051905090565b600080fd5b600080fd5b60007fffffffff0000000000000000000000000000000000000000000000000000000082169050919050565b611ff581611fc0565b811461200057600080fd5b50565b60008135905061201281611fec565b92915050565b60006020828403121561202e5761202d611fb6565b5b600061203c84828501612003565b91505092915050565b60008115159050919050565b61205a81612045565b82525050565b60006020820190506120756000830184612051565b92915050565b600081519050919050565b600082825260208201905092915050565b60005b838110156120b557808201518184015260208101905061209a565b60008484015250505050565b6000601f19601f8301169050919050565b60006120dd8261207b565b6120e78185612086565b93506120f7818560208601612097565b612100816120c1565b840191505092915050565b6000602082019050818103600083015261212581846120d2565b905092915050565b6000819050919050565b6121408161212d565b811461214b57600080fd5b50565b60008135905061215d81612137565b92915050565b60006020828403121561217957612178611fb6565b5b60006121878482850161214e565b91505092915050565b600073ffffffffffffffffffffffffffffffffffffffff82169050919050565b60006121bb82612190565b9050919050565b6121cb816121b0565b82525050565b60006020820190506121e660008301846121c2565b92915050565b6121f5816121b0565b811461220057600080fd5b50565b600081359050612212816121ec565b92915050565b6000806040838503121561222f5761222e611fb6565b5b600061223d85828601612203565b925050602061224e8582860161214e565b9150509250929050565b6122618161212d565b82525050565b600060208201905061227c6000830184612258565b92915050565b60008060006060848603121561229b5761229a611fb6565b5b60006122a986828701612203565b93505060206122ba86828701612203565b92505060406122cb8682870161214e565b9150509250925092565b6000602082840312156122eb576122ea611fb6565b5b60006122f984828501612203565b91505092915050565b61230b81612045565b811461231657600080fd5b50565b60008135905061232881612302565b92915050565b6000806040838503121561234557612344611fb6565b5b600061235385828601612203565b925050602061236485828601612319565b9150509250929050565b600080fd5b600080fd5b7f4e487b7100000000000000000000000000000000000000000000000000000000600052604160045260246000fd5b6123b0826120c1565b810181811067ffffffffffffffff821117156123cf576123ce612378565b5b80604052505050565b60006123e2611fac565b90506123ee82826123a7565b919050565b600067ffffffffffffffff82111561240e5761240d612378565b5b612417826120c1565b9050602081019050919050565b82818337600083830152505050565b6000612446612441846123f3565b6123d8565b90508281526020810184848401111561246257612461612373565b5b61246d848285612424565b509392505050565b600082601f83011261248a5761248961236e565b5b813561249a848260208601612433565b91505092915050565b600080600080608085870312156124bd576124bc611fb6565b5b60006124cb87828801612203565b94505060206124dc87828801612203565b93505060406124ed8782880161214e565b925050606085013567ffffffffffffffff81111561250e5761250d611fbb565b5b61251a87828801612475565b91505092959194509250565b6000806040838503121561253d5761253c611fb6565b5b600061254b85828601612203565b925050602061255c85828601612203565b9150509250929050565b7f4e487b7100000000000000000000000000000000000000000000000000000000600052602260045260246000fd5b600060028204905060018216806125ad57607f821691505b6020821081036125c0576125bf612566565b5b50919050565b7f4552433732313a20617070726f76616c20746f2063757272656e74206f776e6560008201527f7200000000000000000000000000000000000000000000000000000000000000602082015250565b6000612622602183612086565b915061262d826125c6565b604082019050919050565b6000602082019050818103600083015261265181612615565b9050919050565b7f4552433732313a20617070726f76652063616c6c6572206973206e6f7420746f60008201527f6b656e206f776e6572206f7220617070726f76656420666f7220616c6c000000602082015250565b60006126b4603d83612086565b91506126bf82612658565b604082019050919050565b600060208201905081810360008301526126e3816126a7565b9050919050565b7f4552433732313a2063616c6c6572206973206e6f7420746f6b656e206f776e6560008201527f72206f7220617070726f76656400000000000000000000000000000000000000602082015250565b6000612746602d83612086565b9150612751826126ea565b604082019050919050565b6000602082019050818103600083015261277581612739565b9050919050565b7f455243373231456e756d657261626c653a206f776e657220696e646578206f7560008201527f74206f6620626f756e6473000000000000000000000000000000000000000000602082015250565b60006127d8602b83612086565b91506127e38261277c565b604082019050919050565b60006020820190508181036000830152612807816127cb565b9050919050565b7f455243373231456e756d657261626c653a20676c6f62616c20696e646578206f60008201527f7574206f6620626f756e64730000000000000000000000000000000000000000602082015250565b600061286a602c83612086565b91506128758261280e565b604082019050919050565b600060208201905081810360008301526128998161285d565b9050919050565b7f4e487b7100000000000000000000000000000000000000000000000000000000600052603260045260246000fd5b7f4552433732313a20696e76616c696420746f6b656e2049440000000000000000600082015250565b6000612905601883612086565b9150612910826128cf565b602082019050919050565b60006020820190508181036000830152612934816128f8565b9050919050565b7f4552433732313a2061646472657373207a65726f206973206e6f74206120766160008201527f6c6964206f776e65720000000000000000000000000000000000000000000000602082015250565b6000612997602983612086565b91506129a28261293b565b604082019050919050565b600060208201905081810360008301526129c68161298a565b9050919050565b7f4e487b7100000000000000000000000000000000000000000000000000000000600052601160045260246000fd5b6000612a078261212d565b9150612a128361212d565b9250828201905080821115612a2a57612a296129cd565b5b92915050565b600081905092915050565b6000612a468261207b565b612a508185612a30565b9350612a60818560208601612097565b80840191505092915050565b6000612a788285612a3b565b9150612a848284612a3b565b91508190509392505050565b7f4552433732313a207472616e736665722066726f6d20696e636f72726563742060008201527f6f776e6572000000000000000000000000000000000000000000000000000000602082015250565b6000612aec602583612086565b9150612af782612a90565b604082019050919050565b60006020820190508181036000830152612b1b81612adf565b9050919050565b7f4552433732313a207472616e7366657220746f20746865207a65726f2061646460008201527f7265737300000000000000000000000000000000000000000000000000000000602082015250565b6000612b7e602483612086565b9150612b8982612b22565b604082019050919050565b60006020820190508181036000830152612bad81612b71565b9050919050565b7f4552433732313a20617070726f766520746f2063616c6c657200000000000000600082015250565b6000612bea601983612086565b9150612bf582612bb4565b602082019050919050565b60006020820190508181036000830152612c1981612bdd565b9050919050565b7f4552433732313a207472616e7366657220746f206e6f6e20455243373231526560008201527f63656976657220696d706c656d656e7465720000000000000000000000000000602082015250565b6000612c7c603283612086565b9150612c8782612c20565b604082019050919050565b60006020820190508181036000830152612cab81612c6f565b9050919050565b7f4e487b7100000000000000000000000000000000000000000000000000000000600052601260045260246000fd5b600081519050919050565b600082825260208201905092915050565b6000612d0882612ce1565b612d128185612cec565b9350612d22818560208601612097565b612d2b816120c1565b840191505092915050565b6000608082019050612d4b60008301876121c2565b612d5860208301866121c2565b612d656040830185612258565b8181036060830152612d778184612cfd565b905095945050505050565b600081519050612d9181611fec565b92915050565b600060208284031215612dad57612dac611fb6565b5b6000612dbb84828501612d82565b91505092915050565b7f455243373231456e756d657261626c653a20636f6e736563757469766520747260008201527f616e7366657273206e6f7420737570706f727465640000000000000000000000602082015250565b6000612e20603583612086565b9150612e2b82612dc4565b604082019050919050565b60006020820190508181036000830152612e4f81612e13565b9050919050565b7f4552433732313a206d696e7420746f20746865207a65726f2061646472657373600082015250565b6000612e8c602083612086565b9150612e9782612e56565b602082019050919050565b60006020820190508181036000830152612ebb81612e7f565b9050919050565b7f4552433732313a20746f6b656e20616c7265616479206d696e74656400000000600082015250565b6000612ef8601c83612086565b9150612f0382612ec2565b602082019050919050565b60006020820190508181036000830152612f2781612eeb565b9050919050565b6000612f398261212d565b9150612f448361212d565b9250828203905081811115612f5c57612f5b6129cd565b5b92915050565b7f4e487b7100000000000000000000000000000000000000000000000000000000600052603160045260246000fdfea2646970667358221220727f1266089eacf952d53e55464dc470e7b40449b236470a0665dedce9e8320b64736f6c63430008110033",
    "linkReferences": {},
    "deployedLinkReferences": {}
}