{
    "_format": "hh-sol-artifact-1",
    "contractName": "NftMarketplace",
    "sourceName": "contracts/NftMarketplace.sol",
    "abi": [
        {
            "inputs": [
                {
                    "internalType": "address",
                    "name": "nftAddress",
                    "type": "address"
                },
                {
                    "internalType": "uint256",
                    "name": "tokenId",
                    "type": "uint256"
                }
            ],
            "name": "AlreadyInSwapPool",
            "type": "error"
        },
        {
            "inputs": [
                {
                    "internalType": "address",
                    "name": "nftAddress",
                    "type": "address"
                },
                {
                    "internalType": "uint256",
                    "name": "tokenId",
                    "type": "uint256"
                }
            ],
            "name": "AlreadyListed",
            "type": "error"
        },
        {
            "inputs": [],
            "name": "NoProceeds",
            "type": "error"
        },
        {
            "inputs": [],
            "name": "NotApprovedForMarketplace",
            "type": "error"
        },
        {
            "inputs": [
                {
                    "internalType": "address",
                    "name": "nftAddress",
                    "type": "address"
                },
                {
                    "internalType": "uint256",
                    "name": "tokenId",
                    "type": "uint256"
                }
            ],
            "name": "NotInSwapPool",
            "type": "error"
        },
        {
            "inputs": [
                {
                    "internalType": "address",
                    "name": "nftAddress",
                    "type": "address"
                },
                {
                    "internalType": "uint256",
                    "name": "tokenId",
                    "type": "uint256"
                }
            ],
            "name": "NotListed",
            "type": "error"
        },
        {
            "inputs": [],
            "name": "NotOwner",
            "type": "error"
        },
        {
            "inputs": [],
            "name": "PriceMustBeAboveZero",
            "type": "error"
        },
        {
            "inputs": [
                {
                    "internalType": "address",
                    "name": "nftAddress",
                    "type": "address"
                },
                {
                    "internalType": "uint256",
                    "name": "tokenId",
                    "type": "uint256"
                },
                {
                    "internalType": "uint256",
                    "name": "price",
                    "type": "uint256"
                }
            ],
            "name": "PriceNotMet",
            "type": "error"
        },
        {
            "anonymous": false,
            "inputs": [
                {
                    "indexed": true,
                    "internalType": "address",
                    "name": "swapper",
                    "type": "address"
                },
                {
                    "indexed": true,
                    "internalType": "address",
                    "name": "nftAddress",
                    "type": "address"
                },
                {
                    "indexed": true,
                    "internalType": "uint256",
                    "name": "tokenId",
                    "type": "uint256"
                }
            ],
            "name": "ItemAddedToSwapPool",
            "type": "event"
        },
        {
            "anonymous": false,
            "inputs": [
                {
                    "indexed": true,
                    "internalType": "address",
                    "name": "buyer",
                    "type": "address"
                },
                {
                    "indexed": true,
                    "internalType": "address",
                    "name": "nftAddress",
                    "type": "address"
                },
                {
                    "indexed": true,
                    "internalType": "uint256",
                    "name": "tokenId",
                    "type": "uint256"
                },
                {
                    "indexed": false,
                    "internalType": "uint256",
                    "name": "price",
                    "type": "uint256"
                }
            ],
            "name": "ItemBought",
            "type": "event"
        },
        {
            "anonymous": false,
            "inputs": [
                {
                    "indexed": true,
                    "internalType": "address",
                    "name": "seller",
                    "type": "address"
                },
                {
                    "indexed": true,
                    "internalType": "address",
                    "name": "nftAddress",
                    "type": "address"
                },
                {
                    "indexed": true,
                    "internalType": "uint256",
                    "name": "tokenId",
                    "type": "uint256"
                }
            ],
            "name": "ItemCancelled",
            "type": "event"
        },
        {
            "anonymous": false,
            "inputs": [
                {
                    "indexed": true,
                    "internalType": "address",
                    "name": "seller",
                    "type": "address"
                },
                {
                    "indexed": true,
                    "internalType": "address",
                    "name": "nftAddress",
                    "type": "address"
                },
                {
                    "indexed": true,
                    "internalType": "uint256",
                    "name": "tokenId",
                    "type": "uint256"
                },
                {
                    "indexed": false,
                    "internalType": "uint256",
                    "name": "price",
                    "type": "uint256"
                }
            ],
            "name": "ItemListed",
            "type": "event"
        },
        {
            "anonymous": false,
            "inputs": [
                {
                    "indexed": true,
                    "internalType": "address",
                    "name": "previousOwner",
                    "type": "address"
                },
                {
                    "indexed": true,
                    "internalType": "address",
                    "name": "newOwner",
                    "type": "address"
                }
            ],
            "name": "OwnershipTransferred",
            "type": "event"
        },
        {
            "anonymous": false,
            "inputs": [
                {
                    "indexed": true,
                    "internalType": "address",
                    "name": "swapper",
                    "type": "address"
                },
                {
                    "indexed": true,
                    "internalType": "address",
                    "name": "listingNftAddress",
                    "type": "address"
                },
                {
                    "indexed": true,
                    "internalType": "uint256",
                    "name": "listingTokenId",
                    "type": "uint256"
                },
                {
                    "indexed": false,
                    "internalType": "address",
                    "name": "swapNftAddress",
                    "type": "address"
                },
                {
                    "indexed": false,
                    "internalType": "uint256",
                    "name": "swapTokenId",
                    "type": "uint256"
                }
            ],
            "name": "SwapOffered",
            "type": "event"
        },
        {
            "anonymous": false,
            "inputs": [
                {
                    "indexed": false,
                    "internalType": "address",
                    "name": "swapper0",
                    "type": "address"
                },
                {
                    "indexed": false,
                    "internalType": "address",
                    "name": "swapper1",
                    "type": "address"
                },
                {
                    "indexed": true,
                    "internalType": "address",
                    "name": "nftAddress",
                    "type": "address"
                },
                {
                    "indexed": true,
                    "internalType": "uint256",
                    "name": "tokenId0",
                    "type": "uint256"
                },
                {
                    "indexed": true,
                    "internalType": "uint256",
                    "name": "tokenId1",
                    "type": "uint256"
                }
            ],
            "name": "Swapped",
            "type": "event"
        },
        {
            "inputs": [
                {
                    "internalType": "address",
                    "name": "swapper",
                    "type": "address"
                },
                {
                    "internalType": "address",
                    "name": "nftAddress",
                    "type": "address"
                },
                {
                    "internalType": "address",
                    "name": "swapNftAddress",
                    "type": "address"
                },
                {
                    "internalType": "uint256",
                    "name": "tokenId",
                    "type": "uint256"
                },
                {
                    "internalType": "uint256",
                    "name": "swapTokenId",
                    "type": "uint256"
                }
            ],
            "name": "approveSwap",
            "outputs": [],
            "stateMutability": "nonpayable",
            "type": "function"
        },
        {
            "inputs": [
                {
                    "internalType": "address",
                    "name": "nftAddress",
                    "type": "address"
                },
                {
                    "internalType": "uint256",
                    "name": "tokenId",
                    "type": "uint256"
                }
            ],
            "name": "buyItem",
            "outputs": [],
            "stateMutability": "payable",
            "type": "function"
        },
        {
            "inputs": [
                {
                    "internalType": "address",
                    "name": "nftAddress",
                    "type": "address"
                },
                {
                    "internalType": "uint256",
                    "name": "tokenId",
                    "type": "uint256"
                }
            ],
            "name": "cancelListing",
            "outputs": [],
            "stateMutability": "nonpayable",
            "type": "function"
        },
        {
            "inputs": [
                {
                    "internalType": "address",
                    "name": "listingNftAddress",
                    "type": "address"
                },
                {
                    "internalType": "address",
                    "name": "swapNftAddress",
                    "type": "address"
                },
                {
                    "internalType": "uint256",
                    "name": "listingTokenId",
                    "type": "uint256"
                },
                {
                    "internalType": "uint256",
                    "name": "swapTokenId",
                    "type": "uint256"
                }
            ],
            "name": "cancelSwapOffer",
            "outputs": [],
            "stateMutability": "nonpayable",
            "type": "function"
        },
        {
            "inputs": [
                {
                    "internalType": "address",
                    "name": "nftAddress",
                    "type": "address"
                },
                {
                    "internalType": "uint256",
                    "name": "tokenId",
                    "type": "uint256"
                }
            ],
            "name": "getListing",
            "outputs": [
                {
                    "components": [
                        {
                            "internalType": "uint256",
                            "name": "price",
                            "type": "uint256"
                        },
                        {
                            "internalType": "address",
                            "name": "seller",
                            "type": "address"
                        }
                    ],
                    "internalType": "struct NftMarketplace.Listing",
                    "name": "",
                    "type": "tuple"
                }
            ],
            "stateMutability": "view",
            "type": "function"
        },
        {
            "inputs": [
                {
                    "internalType": "address",
                    "name": "seller",
                    "type": "address"
                }
            ],
            "name": "getProceeds",
            "outputs": [
                {
                    "internalType": "uint256",
                    "name": "",
                    "type": "uint256"
                }
            ],
            "stateMutability": "view",
            "type": "function"
        },
        {
            "inputs": [
                {
                    "internalType": "uint256",
                    "name": "blockNumber",
                    "type": "uint256"
                }
            ],
            "name": "getRandomNumber",
            "outputs": [
                {
                    "internalType": "uint256",
                    "name": "randomNumber",
                    "type": "uint256"
                }
            ],
            "stateMutability": "view",
            "type": "function"
        },
        {
            "inputs": [
                {
                    "internalType": "address",
                    "name": "nftAddress",
                    "type": "address"
                },
                {
                    "internalType": "uint256",
                    "name": "tokenId",
                    "type": "uint256"
                }
            ],
            "name": "getSwapOffersForNft",
            "outputs": [
                {
                    "components": [
                        {
                            "internalType": "address",
                            "name": "swapper",
                            "type": "address"
                        },
                        {
                            "internalType": "address",
                            "name": "swapNftAddress",
                            "type": "address"
                        },
                        {
                            "internalType": "uint256",
                            "name": "swapTokenId",
                            "type": "uint256"
                        }
                    ],
                    "internalType": "struct NftMarketplace.Swap[]",
                    "name": "",
                    "type": "tuple[]"
                }
            ],
            "stateMutability": "view",
            "type": "function"
        },
        {
            "inputs": [
                {
                    "internalType": "address",
                    "name": "nftAddress",
                    "type": "address"
                },
                {
                    "internalType": "uint256",
                    "name": "tokenId",
                    "type": "uint256"
                }
            ],
            "name": "getSwapPledgesOfNft",
            "outputs": [
                {
                    "components": [
                        {
                            "internalType": "address",
                            "name": "nftAddress",
                            "type": "address"
                        },
                        {
                            "internalType": "uint256",
                            "name": "tokenId",
                            "type": "uint256"
                        }
                    ],
                    "internalType": "struct NftMarketplace.SwapPledge[]",
                    "name": "",
                    "type": "tuple[]"
                }
            ],
            "stateMutability": "view",
            "type": "function"
        },
        {
            "inputs": [
                {
                    "internalType": "address",
                    "name": "nftAddress",
                    "type": "address"
                }
            ],
            "name": "getSwapPool",
            "outputs": [
                {
                    "internalType": "uint256[]",
                    "name": "",
                    "type": "uint256[]"
                }
            ],
            "stateMutability": "view",
            "type": "function"
        },
        {
            "inputs": [
                {
                    "internalType": "address",
                    "name": "nftAddress",
                    "type": "address"
                },
                {
                    "internalType": "uint256",
                    "name": "tokenId",
                    "type": "uint256"
                }
            ],
            "name": "getSwapPoolListing",
            "outputs": [
                {
                    "components": [
                        {
                            "internalType": "uint256",
                            "name": "index",
                            "type": "uint256"
                        },
                        {
                            "internalType": "address",
                            "name": "swapper",
                            "type": "address"
                        }
                    ],
                    "internalType": "struct NftMarketplace.SwapListing",
                    "name": "",
                    "type": "tuple"
                }
            ],
            "stateMutability": "view",
            "type": "function"
        },
        {
            "inputs": [
                {
                    "internalType": "address",
                    "name": "nftAddress",
                    "type": "address"
                },
                {
                    "internalType": "uint256",
                    "name": "tokenId",
                    "type": "uint256"
                },
                {
                    "internalType": "uint256",
                    "name": "price",
                    "type": "uint256"
                }
            ],
            "name": "listItem",
            "outputs": [],
            "stateMutability": "nonpayable",
            "type": "function"
        },
        {
            "inputs": [
                {
                    "internalType": "address",
                    "name": "nftAddress",
                    "type": "address"
                },
                {
                    "internalType": "uint256",
                    "name": "tokenId",
                    "type": "uint256"
                }
            ],
            "name": "listSwapItem",
            "outputs": [],
            "stateMutability": "nonpayable",
            "type": "function"
        },
        {
            "inputs": [
                {
                    "internalType": "address",
                    "name": "listingNftAddress",
                    "type": "address"
                },
                {
                    "internalType": "uint256",
                    "name": "listingTokenId",
                    "type": "uint256"
                },
                {
                    "internalType": "address",
                    "name": "swapNftAddress",
                    "type": "address"
                },
                {
                    "internalType": "uint256",
                    "name": "swapTokenId",
                    "type": "uint256"
                }
            ],
            "name": "makeSwapOffer",
            "outputs": [],
            "stateMutability": "nonpayable",
            "type": "function"
        },
        {
            "inputs": [],
            "name": "owner",
            "outputs": [
                {
                    "internalType": "address",
                    "name": "",
                    "type": "address"
                }
            ],
            "stateMutability": "view",
            "type": "function"
        },
        {
            "inputs": [
                {
                    "internalType": "address",
                    "name": "nftAddress",
                    "type": "address"
                },
                {
                    "internalType": "uint256",
                    "name": "tokenId",
                    "type": "uint256"
                }
            ],
            "name": "randomNFTSwap",
            "outputs": [],
            "stateMutability": "nonpayable",
            "type": "function"
        },
        {
            "inputs": [
                {
                    "internalType": "address",
                    "name": "nftAddress",
                    "type": "address"
                },
                {
                    "internalType": "uint256",
                    "name": "index",
                    "type": "uint256"
                }
            ],
            "name": "remove",
            "outputs": [],
            "stateMutability": "nonpayable",
            "type": "function"
        },
        {
            "inputs": [],
            "name": "renounceOwnership",
            "outputs": [],
            "stateMutability": "nonpayable",
            "type": "function"
        },
        {
            "inputs": [
                {
                    "internalType": "address",
                    "name": "newOwner",
                    "type": "address"
                }
            ],
            "name": "transferOwnership",
            "outputs": [],
            "stateMutability": "nonpayable",
            "type": "function"
        },
        {
            "inputs": [
                {
                    "internalType": "address",
                    "name": "nftAddress",
                    "type": "address"
                },
                {
                    "internalType": "uint256",
                    "name": "tokenId",
                    "type": "uint256"
                },
                {
                    "internalType": "uint256",
                    "name": "newPrice",
                    "type": "uint256"
                }
            ],
            "name": "updateListing",
            "outputs": [],
            "stateMutability": "nonpayable",
            "type": "function"
        },
        {
            "inputs": [],
            "name": "withdrawProceeds",
            "outputs": [],
            "stateMutability": "nonpayable",
            "type": "function"
        }
    ],
    "bytecode": "0x60806040523480156200001157600080fd5b5060016000819055506200003a6200002e6200004060201b60201c565b6200004860201b60201c565b6200010e565b600033905090565b6000600160009054906101000a900473ffffffffffffffffffffffffffffffffffffffff16905081600160006101000a81548173ffffffffffffffffffffffffffffffffffffffff021916908373ffffffffffffffffffffffffffffffffffffffff1602179055508173ffffffffffffffffffffffffffffffffffffffff168173ffffffffffffffffffffffffffffffffffffffff167f8be0079c531659141344cd1fd0a4f28419497f9722a3daafe3b4186f6b6457e060405160405180910390a35050565b6154f7806200011e6000396000f3fe60806040526004361061012a5760003560e01c80638da5cb5b116100ab578063b2ddee061161006f578063b2ddee06146103b7578063b37217a4146103e0578063c4082aa91461041d578063f2fde38b1461045a578063f55a8e9614610483578063f772adf1146104c05761012a565b80638da5cb5b146102f35780639038e6931461031e5780639f37092a146103355780639f58521a14610351578063abe7f1ab1461038e5761012a565b80636018447d116100f25780636018447d146102245780636cdd2b741461024d578063715018a61461027657806388700d1c1461028d57806389bfd38f146102ca5761012a565b8063039bcf8e1461012f5780632aef8e221461016c5780632c253a1c1461019557806330cfeda9146101be5780635a636d39146101fb575b600080fd5b34801561013b57600080fd5b50610156600480360381019061015191906146b9565b6104e9565b60405161016391906147ae565b60405180910390f35b34801561017857600080fd5b50610193600480360381019061018e91906147fc565b610580565b005b3480156101a157600080fd5b506101bc60048036038101906101b79190614863565b610c82565b005b3480156101ca57600080fd5b506101e560048036038101906101e091906146b9565b611050565b6040516101f291906148ed565b60405180910390f35b34801561020757600080fd5b50610222600480360381019061021d9190614908565b611099565b005b34801561023057600080fd5b5061024b6004803603810190610246919061496f565b611626565b005b34801561025957600080fd5b50610274600480360381019061026f919061496f565b611b4b565b005b34801561028257600080fd5b5061028b61233d565b005b34801561029957600080fd5b506102b460048036038101906102af919061496f565b612351565b6040516102c191906149ed565b60405180910390f35b3480156102d657600080fd5b506102f160048036038101906102ec9190614a08565b61241c565b005b3480156102ff57600080fd5b50610308612952565b6040516103159190614a6a565b60405180910390f35b34801561032a57600080fd5b5061033361297c565b005b61034f600480360381019061034a919061496f565b612aef565b005b34801561035d57600080fd5b506103786004803603810190610373919061496f565b612e6b565b6040516103859190614ab4565b60405180910390f35b34801561039a57600080fd5b506103b560048036038101906103b0919061496f565b612f36565b005b3480156103c357600080fd5b506103de60048036038101906103d9919061496f565b6130a8565b005b3480156103ec57600080fd5b5061040760048036038101906104029190614acf565b613317565b60405161041491906148ed565b60405180910390f35b34801561042957600080fd5b50610444600480360381019061043f919061496f565b613325565b6040516104519190614bda565b60405180910390f35b34801561046657600080fd5b50610481600480360381019061047c91906146b9565b6134d3565b005b34801561048f57600080fd5b506104aa60048036038101906104a5919061496f565b613556565b6040516104b79190614ced565b60405180910390f35b3480156104cc57600080fd5b506104e760048036038101906104e29190614a08565b61375a565b005b6060600460008373ffffffffffffffffffffffffffffffffffffffff1673ffffffffffffffffffffffffffffffffffffffff16815260200190815260200160002080548060200260200160405190810160405280929190818152602001828054801561057457602002820191906000526020600020905b815481526020019060010190808311610560575b50505050509050919050565b6105886139f5565b828133600083905060008173ffffffffffffffffffffffffffffffffffffffff16636352211e856040518263ffffffff1660e01b81526004016105cb91906148ed565b602060405180830381865afa1580156105e8573d6000803e3d6000fd5b505050506040513d601f19601f8201168201806040525081019061060c9190614d24565b90508073ffffffffffffffffffffffffffffffffffffffff168373ffffffffffffffffffffffffffffffffffffffff1614610673576040517f30cd747100000000000000000000000000000000000000000000000000000000815260040160405180910390fd5b61067f89898989613a44565b61068857600080fd5b6000600760008a73ffffffffffffffffffffffffffffffffffffffff1673ffffffffffffffffffffffffffffffffffffffff168152602001908152602001600020600088815260200190815260200160002090506000805b811580156106f15750828054905081105b15610930578b73ffffffffffffffffffffffffffffffffffffffff168382815481106107205761071f614d51565b5b906000526020600020906002020160000160009054906101000a900473ffffffffffffffffffffffffffffffffffffffff1673ffffffffffffffffffffffffffffffffffffffff1614801561079857508983828154811061078457610783614d51565b5b906000526020600020906002020160010154145b1561092b576001915082600184805490506107b39190614daf565b815481106107c4576107c3614d51565b5b90600052602060002090600202018382815481106107e5576107e4614d51565b5b90600052602060002090600202016000820160009054906101000a900473ffffffffffffffffffffffffffffffffffffffff168160000160006101000a81548173ffffffffffffffffffffffffffffffffffffffff021916908373ffffffffffffffffffffffffffffffffffffffff1602179055506001820154816001015590505082600184805490506108799190614daf565b8154811061088a57610889614d51565b5b9060005260206000209060020201600080820160006101000a81549073ffffffffffffffffffffffffffffffffffffffff02191690556001820160009055505082600760008d73ffffffffffffffffffffffffffffffffffffffff1673ffffffffffffffffffffffffffffffffffffffff16815260200190815260200160002060008b815260200190815260200160002090805461092992919061434a565b505b6106e0565b6000600660008e73ffffffffffffffffffffffffffffffffffffffff1673ffffffffffffffffffffffffffffffffffffffff16815260200190815260200160002060008c8152602001908152602001600020905060009250600091505b8215801561099e5750808054905082105b15610c6b578b73ffffffffffffffffffffffffffffffffffffffff168183815481106109cd576109cc614d51565b5b906000526020600020906003020160010160009054906101000a900473ffffffffffffffffffffffffffffffffffffffff1673ffffffffffffffffffffffffffffffffffffffff16148015610a45575089818381548110610a3157610a30614d51565b5b906000526020600020906003020160020154145b15610c6657600192508060018580549050610a609190614daf565b81548110610a7157610a70614d51565b5b9060005260206000209060030201818381548110610a9257610a91614d51565b5b90600052602060002090600302016000820160009054906101000a900473ffffffffffffffffffffffffffffffffffffffff168160000160006101000a81548173ffffffffffffffffffffffffffffffffffffffff021916908373ffffffffffffffffffffffffffffffffffffffff1602179055506001820160009054906101000a900473ffffffffffffffffffffffffffffffffffffffff168160010160006101000a81548173ffffffffffffffffffffffffffffffffffffffff021916908373ffffffffffffffffffffffffffffffffffffffff160217905550600282015481600201559050508060018280549050610b8d9190614daf565b81548110610b9e57610b9d614d51565b5b9060005260206000209060030201600080820160006101000a81549073ffffffffffffffffffffffffffffffffffffffff02191690556001820160006101000a81549073ffffffffffffffffffffffffffffffffffffffff02191690556002820160009055505080600660008f73ffffffffffffffffffffffffffffffffffffffff1673ffffffffffffffffffffffffffffffffffffffff16815260200190815260200160002060008d8152602001908152602001600020908054610c64929190614413565b505b61098d565b505050505050505050610c7c613c07565b50505050565b838233600083905060008173ffffffffffffffffffffffffffffffffffffffff16636352211e856040518263ffffffff1660e01b8152600401610cc591906148ed565b602060405180830381865afa158015610ce2573d6000803e3d6000fd5b505050506040513d601f19601f82011682018060405250810190610d069190614d24565b90508073ffffffffffffffffffffffffffffffffffffffff168373ffffffffffffffffffffffffffffffffffffffff1614610d6d576040517f30cd747100000000000000000000000000000000000000000000000000000000815260040160405180910390fd5b88876000600260008473ffffffffffffffffffffffffffffffffffffffff1673ffffffffffffffffffffffffffffffffffffffff16815260200190815260200160002060008381526020019081526020016000206000015411610e095781816040517f6831488c000000000000000000000000000000000000000000000000000000008152600401610e00929190614de3565b60405180910390fd5b610e158b8b8b8b613a44565b610e54576040517f08c379a0000000000000000000000000000000000000000000000000000000008152600401610e4b90614e69565b60405180910390fd5b610e608b8b8b8b613c11565b600260008c73ffffffffffffffffffffffffffffffffffffffff1673ffffffffffffffffffffffffffffffffffffffff16815260200190815260200160002060008a81526020019081526020016000206000808201600090556001820160006101000a81549073ffffffffffffffffffffffffffffffffffffffff02191690555050600260008b73ffffffffffffffffffffffffffffffffffffffff1673ffffffffffffffffffffffffffffffffffffffff16815260200190815260200160002060008981526020019081526020016000206000808201600090556001820160006101000a81549073ffffffffffffffffffffffffffffffffffffffff021916905550508973ffffffffffffffffffffffffffffffffffffffff166323b872dd8d338b6040518463ffffffff1660e01b8152600401610fa193929190614e89565b600060405180830381600087803b158015610fbb57600080fd5b505af1158015610fcf573d6000803e3d6000fd5b505050508a73ffffffffffffffffffffffffffffffffffffffff166323b872dd338e8c6040518463ffffffff1660e01b815260040161101093929190614e89565b600060405180830381600087803b15801561102a57600080fd5b505af115801561103e573d6000803e3d6000fd5b50505050505050505050505050505050565b6000600360008373ffffffffffffffffffffffffffffffffffffffff1673ffffffffffffffffffffffffffffffffffffffff168152602001908152602001600020549050919050565b818133600083905060008173ffffffffffffffffffffffffffffffffffffffff16636352211e856040518263ffffffff1660e01b81526004016110dc91906148ed565b602060405180830381865afa1580156110f9573d6000803e3d6000fd5b505050506040513d601f19601f8201168201806040525081019061111d9190614d24565b90508073ffffffffffffffffffffffffffffffffffffffff168373ffffffffffffffffffffffffffffffffffffffff1614611184576040517f30cd747100000000000000000000000000000000000000000000000000000000815260040160405180910390fd5b61118c6139f5565b86866000600260008473ffffffffffffffffffffffffffffffffffffffff1673ffffffffffffffffffffffffffffffffffffffff168152602001908152602001600020600083815260200190815260200160002060000154116112285781816040517f6831488c00000000000000000000000000000000000000000000000000000000815260040161121f929190614de3565b60405180910390fd5b6112348b8a8c8b613a44565b15611274576040517f08c379a000000000000000000000000000000000000000000000000000000000815260040161126b90614f0c565b60405180910390fd5b60008990503073ffffffffffffffffffffffffffffffffffffffff168173ffffffffffffffffffffffffffffffffffffffff1663081812fc8b6040518263ffffffff1660e01b81526004016112c991906148ed565b602060405180830381865afa1580156112e6573d6000803e3d6000fd5b505050506040513d601f19601f8201168201806040525081019061130a9190614d24565b73ffffffffffffffffffffffffffffffffffffffff1614611357576040517f4be3a2c500000000000000000000000000000000000000000000000000000000815260040160405180910390fd5b600660008d73ffffffffffffffffffffffffffffffffffffffff1673ffffffffffffffffffffffffffffffffffffffff16815260200190815260200160002060008c815260200190815260200160002060405180606001604052803373ffffffffffffffffffffffffffffffffffffffff1681526020018c73ffffffffffffffffffffffffffffffffffffffff1681526020018b815250908060018154018082558091505060019003906000526020600020906003020160009091909190915060008201518160000160006101000a81548173ffffffffffffffffffffffffffffffffffffffff021916908373ffffffffffffffffffffffffffffffffffffffff16021790555060208201518160010160006101000a81548173ffffffffffffffffffffffffffffffffffffffff021916908373ffffffffffffffffffffffffffffffffffffffff160217905550604082015181600201555050600760008b73ffffffffffffffffffffffffffffffffffffffff1673ffffffffffffffffffffffffffffffffffffffff16815260200190815260200160002060008a815260200190815260200160002060405180604001604052808e73ffffffffffffffffffffffffffffffffffffffff1681526020018d815250908060018154018082558091505060019003906000526020600020906002020160009091909190915060008201518160000160006101000a81548173ffffffffffffffffffffffffffffffffffffffff021916908373ffffffffffffffffffffffffffffffffffffffff1602179055506020820151816001015550508a8c73ffffffffffffffffffffffffffffffffffffffff163373ffffffffffffffffffffffffffffffffffffffff167f13a8f9092381ccffed1fb262049056fbbbc1723c54bb9f5f6dd1d1f5f0da84438d8d604051611608929190614de3565b60405180910390a450505061161b613c07565b505050505050505050565b8181600073ffffffffffffffffffffffffffffffffffffffff16600560008473ffffffffffffffffffffffffffffffffffffffff1673ffffffffffffffffffffffffffffffffffffffff168152602001908152602001600020600083815260200190815260200160002060010160009054906101000a900473ffffffffffffffffffffffffffffffffffffffff1673ffffffffffffffffffffffffffffffffffffffff161461170e5781816040517f082dc0d3000000000000000000000000000000000000000000000000000000008152600401611705929190614de3565b60405180910390fd5b838333600083905060008173ffffffffffffffffffffffffffffffffffffffff16636352211e856040518263ffffffff1660e01b815260040161175191906148ed565b602060405180830381865afa15801561176e573d6000803e3d6000fd5b505050506040513d601f19601f820116820180604052508101906117929190614d24565b90508073ffffffffffffffffffffffffffffffffffffffff168373ffffffffffffffffffffffffffffffffffffffff16146117f9576040517f30cd747100000000000000000000000000000000000000000000000000000000815260040160405180910390fd5b6000600260008b73ffffffffffffffffffffffffffffffffffffffff1673ffffffffffffffffffffffffffffffffffffffff16815260200190815260200160002060008a8152602001908152602001600020600001541115611890576040517f08c379a000000000000000000000000000000000000000000000000000000000815260040161188790614f78565b60405180910390fd5b3073ffffffffffffffffffffffffffffffffffffffff168973ffffffffffffffffffffffffffffffffffffffff1663081812fc8a6040518263ffffffff1660e01b81526004016118e091906148ed565b602060405180830381865afa1580156118fd573d6000803e3d6000fd5b505050506040513d601f19601f820116820180604052508101906119219190614d24565b73ffffffffffffffffffffffffffffffffffffffff161461196e576040517f4be3a2c500000000000000000000000000000000000000000000000000000000815260040160405180910390fd5b6040518060400160405280600460008c73ffffffffffffffffffffffffffffffffffffffff1673ffffffffffffffffffffffffffffffffffffffff1681526020019081526020016000208054905081526020013373ffffffffffffffffffffffffffffffffffffffff16815250600560008b73ffffffffffffffffffffffffffffffffffffffff1673ffffffffffffffffffffffffffffffffffffffff16815260200190815260200160002060008a81526020019081526020016000206000820151816000015560208201518160010160006101000a81548173ffffffffffffffffffffffffffffffffffffffff021916908373ffffffffffffffffffffffffffffffffffffffff160217905550905050600460008a73ffffffffffffffffffffffffffffffffffffffff1673ffffffffffffffffffffffffffffffffffffffff168152602001908152602001600020889080600181540180825580915050600190039060005260206000200160009091909190915055878973ffffffffffffffffffffffffffffffffffffffff163373ffffffffffffffffffffffffffffffffffffffff167f34d1a180038acb73579582f4e935bba008cf23d1a46a07bc07e6ae5aa453f2f160405160405180910390a4505050505050505050565b81816000600560008473ffffffffffffffffffffffffffffffffffffffff1673ffffffffffffffffffffffffffffffffffffffff168152602001908152602001600020600083815260200190815260200160002060010160009054906101000a900473ffffffffffffffffffffffffffffffffffffffff169050600073ffffffffffffffffffffffffffffffffffffffff168173ffffffffffffffffffffffffffffffffffffffff1603611c385782826040517f3436b934000000000000000000000000000000000000000000000000000000008152600401611c2f929190614de3565b60405180910390fd5b6001600460008773ffffffffffffffffffffffffffffffffffffffff1673ffffffffffffffffffffffffffffffffffffffff1681526020019081526020016000208054905011611cbd576040517f08c379a0000000000000000000000000000000000000000000000000000000008152600401611cb49061500a565b60405180910390fd5b3373ffffffffffffffffffffffffffffffffffffffff168573ffffffffffffffffffffffffffffffffffffffff16636352211e866040518263ffffffff1660e01b8152600401611d0d91906148ed565b602060405180830381865afa158015611d2a573d6000803e3d6000fd5b505050506040513d601f19601f82011682018060405250810190611d4e9190614d24565b73ffffffffffffffffffffffffffffffffffffffff1614611da4576040517f08c379a0000000000000000000000000000000000000000000000000000000008152600401611d9b90615076565b60405180910390fd5b6000600460008773ffffffffffffffffffffffffffffffffffffffff1673ffffffffffffffffffffffffffffffffffffffff16815260200190815260200160002080549050611df243613317565b611dfc91906150c5565b90506000600190505b85600460008973ffffffffffffffffffffffffffffffffffffffff1673ffffffffffffffffffffffffffffffffffffffff1681526020019081526020016000208381548110611e5757611e56614d51565b5b906000526020600020015403611edf57600460008873ffffffffffffffffffffffffffffffffffffffff1673ffffffffffffffffffffffffffffffffffffffff16815260200190815260200160002080549050611ec28261ffff1643611ebd9190614daf565b613317565b611ecc91906150c5565b915080611ed890615104565b9050611e05565b6000600460008973ffffffffffffffffffffffffffffffffffffffff1673ffffffffffffffffffffffffffffffffffffffff1681526020019081526020016000208381548110611f3257611f31614d51565b5b906000526020600020015490508773ffffffffffffffffffffffffffffffffffffffff166342842e0e600560008b73ffffffffffffffffffffffffffffffffffffffff1673ffffffffffffffffffffffffffffffffffffffff168152602001908152602001600020600084815260200190815260200160002060010160009054906101000a900473ffffffffffffffffffffffffffffffffffffffff1633846040518463ffffffff1660e01b8152600401611fef93929190614e89565b600060405180830381600087803b15801561200957600080fd5b505af115801561201d573d6000803e3d6000fd5b505050508773ffffffffffffffffffffffffffffffffffffffff166342842e0e33600560008c73ffffffffffffffffffffffffffffffffffffffff1673ffffffffffffffffffffffffffffffffffffffff168152602001908152602001600020600085815260200190815260200160002060010160009054906101000a900473ffffffffffffffffffffffffffffffffffffffff168a6040518463ffffffff1660e01b81526004016120d193929190614e89565b600060405180830381600087803b1580156120eb57600080fd5b505af11580156120ff573d6000803e3d6000fd5b50505050600560008973ffffffffffffffffffffffffffffffffffffffff1673ffffffffffffffffffffffffffffffffffffffff16815260200190815260200160002060008281526020019081526020016000206000808201600090556001820160006101000a81549073ffffffffffffffffffffffffffffffffffffffff0219169055505061218f8884612f36565b6121ec88600560008b73ffffffffffffffffffffffffffffffffffffffff1673ffffffffffffffffffffffffffffffffffffffff16815260200190815260200160002060008a815260200190815260200160002060000154612f36565b600560008973ffffffffffffffffffffffffffffffffffffffff1673ffffffffffffffffffffffffffffffffffffffff16815260200190815260200160002060008881526020019081526020016000206000808201600090556001820160006101000a81549073ffffffffffffffffffffffffffffffffffffffff0219169055505080878973ffffffffffffffffffffffffffffffffffffffff167f6782190c91d4a7e8ad2a867deed6ec0a970cab8ff137ae2bd4abd92b3810f4d333600560008e73ffffffffffffffffffffffffffffffffffffffff1673ffffffffffffffffffffffffffffffffffffffff168152602001908152602001600020600087815260200190815260200160002060010160009054906101000a900473ffffffffffffffffffffffffffffffffffffffff1660405161232b92919061512e565b60405180910390a45050505050505050565b6123456141fe565b61234f600061427c565b565b612359614543565b600260008473ffffffffffffffffffffffffffffffffffffffff1673ffffffffffffffffffffffffffffffffffffffff1681526020019081526020016000206000838152602001908152602001600020604051806040016040529081600082015481526020016001820160009054906101000a900473ffffffffffffffffffffffffffffffffffffffff1673ffffffffffffffffffffffffffffffffffffffff1673ffffffffffffffffffffffffffffffffffffffff1681525050905092915050565b8282336000600260008573ffffffffffffffffffffffffffffffffffffffff1673ffffffffffffffffffffffffffffffffffffffff1681526020019081526020016000206000848152602001908152602001600020604051806040016040529081600082015481526020016001820160009054906101000a900473ffffffffffffffffffffffffffffffffffffffff1673ffffffffffffffffffffffffffffffffffffffff1673ffffffffffffffffffffffffffffffffffffffff1681525050905060008160000151111561252a5783836040517f4a5568d5000000000000000000000000000000000000000000000000000000008152600401612521929190614de3565b60405180910390fd5b868633600083905060008173ffffffffffffffffffffffffffffffffffffffff16636352211e856040518263ffffffff1660e01b815260040161256d91906148ed565b602060405180830381865afa15801561258a573d6000803e3d6000fd5b505050506040513d601f19601f820116820180604052508101906125ae9190614d24565b90508073ffffffffffffffffffffffffffffffffffffffff168373ffffffffffffffffffffffffffffffffffffffff1614612615576040517f30cd747100000000000000000000000000000000000000000000000000000000815260040160405180910390fd5b600073ffffffffffffffffffffffffffffffffffffffff16600560008e73ffffffffffffffffffffffffffffffffffffffff1673ffffffffffffffffffffffffffffffffffffffff16815260200190815260200160002060008d815260200190815260200160002060010160009054906101000a900473ffffffffffffffffffffffffffffffffffffffff1673ffffffffffffffffffffffffffffffffffffffff16146126f7576040517f08c379a00000000000000000000000000000000000000000000000000000000081526004016126ee906151a3565b60405180910390fd5b60008a11612731576040517fe1abbfc500000000000000000000000000000000000000000000000000000000815260040160405180910390fd5b3073ffffffffffffffffffffffffffffffffffffffff168c73ffffffffffffffffffffffffffffffffffffffff1663081812fc8d6040518263ffffffff1660e01b815260040161278191906148ed565b602060405180830381865afa15801561279e573d6000803e3d6000fd5b505050506040513d601f19601f820116820180604052508101906127c29190614d24565b73ffffffffffffffffffffffffffffffffffffffff161461280f576040517f4be3a2c500000000000000000000000000000000000000000000000000000000815260040160405180910390fd5b60405180604001604052808b81526020013373ffffffffffffffffffffffffffffffffffffffff16815250600260008e73ffffffffffffffffffffffffffffffffffffffff1673ffffffffffffffffffffffffffffffffffffffff16815260200190815260200160002060008d81526020019081526020016000206000820151816000015560208201518160010160006101000a81548173ffffffffffffffffffffffffffffffffffffffff021916908373ffffffffffffffffffffffffffffffffffffffff1602179055509050508a8c73ffffffffffffffffffffffffffffffffffffffff163373ffffffffffffffffffffffffffffffffffffffff167fd547e933094f12a9159076970143ebe73234e64480317844b0dcb36117116de48d60405161293c91906148ed565b60405180910390a4505050505050505050505050565b6000600160009054906101000a900473ffffffffffffffffffffffffffffffffffffffff16905090565b6000600360003373ffffffffffffffffffffffffffffffffffffffff1673ffffffffffffffffffffffffffffffffffffffff168152602001908152602001600020549050600081116129fa576040517fc4d8fa8700000000000000000000000000000000000000000000000000000000815260040160405180910390fd5b6000600360003373ffffffffffffffffffffffffffffffffffffffff1673ffffffffffffffffffffffffffffffffffffffff1681526020019081526020016000208190555060003373ffffffffffffffffffffffffffffffffffffffff1682604051612a65906151f4565b60006040518083038185875af1925050503d8060008114612aa2576040519150601f19603f3d011682016040523d82523d6000602084013e612aa7565b606091505b5050905080612aeb576040517f08c379a0000000000000000000000000000000000000000000000000000000008152600401612ae290615255565b60405180910390fd5b5050565b81816000600260008473ffffffffffffffffffffffffffffffffffffffff1673ffffffffffffffffffffffffffffffffffffffff16815260200190815260200160002060008381526020019081526020016000206000015411612b8b5781816040517f6831488c000000000000000000000000000000000000000000000000000000008152600401612b82929190614de3565b60405180910390fd5b612b936139f5565b6000600260008673ffffffffffffffffffffffffffffffffffffffff1673ffffffffffffffffffffffffffffffffffffffff1681526020019081526020016000206000858152602001908152602001600020604051806040016040529081600082015481526020016001820160009054906101000a900473ffffffffffffffffffffffffffffffffffffffff1673ffffffffffffffffffffffffffffffffffffffff1673ffffffffffffffffffffffffffffffffffffffff168152505090508060000151341015612ca357848482600001516040517f7c934565000000000000000000000000000000000000000000000000000000008152600401612c9a93929190615275565b60405180910390fd5b3460036000836020015173ffffffffffffffffffffffffffffffffffffffff1673ffffffffffffffffffffffffffffffffffffffff1681526020019081526020016000206000828254612cf691906152ac565b92505081905550600260008673ffffffffffffffffffffffffffffffffffffffff1673ffffffffffffffffffffffffffffffffffffffff16815260200190815260200160002060008581526020019081526020016000206000808201600090556001820160006101000a81549073ffffffffffffffffffffffffffffffffffffffff021916905550508473ffffffffffffffffffffffffffffffffffffffff166342842e0e826020015133876040518463ffffffff1660e01b8152600401612dc093929190614e89565b600060405180830381600087803b158015612dda57600080fd5b505af1158015612dee573d6000803e3d6000fd5b50505050838573ffffffffffffffffffffffffffffffffffffffff163373ffffffffffffffffffffffffffffffffffffffff167f263223b1dd81e51054a4e6f791d45a4a1ddb4aadcd93a2dfd892615c3fdac1878460000151604051612e5491906148ed565b60405180910390a450612e65613c07565b50505050565b612e73614573565b600560008473ffffffffffffffffffffffffffffffffffffffff1673ffffffffffffffffffffffffffffffffffffffff1681526020019081526020016000206000838152602001908152602001600020604051806040016040529081600082015481526020016001820160009054906101000a900473ffffffffffffffffffffffffffffffffffffffff1673ffffffffffffffffffffffffffffffffffffffff1673ffffffffffffffffffffffffffffffffffffffff1681525050905092915050565b600460008373ffffffffffffffffffffffffffffffffffffffff1673ffffffffffffffffffffffffffffffffffffffff1681526020019081526020016000206001600460008573ffffffffffffffffffffffffffffffffffffffff1673ffffffffffffffffffffffffffffffffffffffff16815260200190815260200160002080549050612fc49190614daf565b81548110612fd557612fd4614d51565b5b9060005260206000200154600460008473ffffffffffffffffffffffffffffffffffffffff1673ffffffffffffffffffffffffffffffffffffffff168152602001908152602001600020828154811061303157613030614d51565b5b9060005260206000200181905550600460008373ffffffffffffffffffffffffffffffffffffffff1673ffffffffffffffffffffffffffffffffffffffff16815260200190815260200160002080548061308e5761308d6152e0565b5b600190038181906000526020600020016000905590555050565b818133600083905060008173ffffffffffffffffffffffffffffffffffffffff16636352211e856040518263ffffffff1660e01b81526004016130eb91906148ed565b602060405180830381865afa158015613108573d6000803e3d6000fd5b505050506040513d601f19601f8201168201806040525081019061312c9190614d24565b90508073ffffffffffffffffffffffffffffffffffffffff168373ffffffffffffffffffffffffffffffffffffffff1614613193576040517f30cd747100000000000000000000000000000000000000000000000000000000815260040160405180910390fd5b86866000600260008473ffffffffffffffffffffffffffffffffffffffff1673ffffffffffffffffffffffffffffffffffffffff1681526020019081526020016000206000838152602001908152602001600020600001541161322f5781816040517f6831488c000000000000000000000000000000000000000000000000000000008152600401613226929190614de3565b60405180910390fd5b600260008a73ffffffffffffffffffffffffffffffffffffffff1673ffffffffffffffffffffffffffffffffffffffff16815260200190815260200160002060008981526020019081526020016000206000808201600090556001820160006101000a81549073ffffffffffffffffffffffffffffffffffffffff02191690555050878973ffffffffffffffffffffffffffffffffffffffff163373ffffffffffffffffffffffffffffffffffffffff167f6e08c1d889d309942730e4afa7963d0c5294a34a479f2c8cf39a953f287dcdee60405160405180910390a4505050505050505050565b6000814060001c9050919050565b606082826000600260008473ffffffffffffffffffffffffffffffffffffffff1673ffffffffffffffffffffffffffffffffffffffff168152602001908152602001600020600083815260200190815260200160002060000154116133c35781816040517f6831488c0000000000000000000000000000000000000000000000000000000081526004016133ba929190614de3565b60405180910390fd5b600760008673ffffffffffffffffffffffffffffffffffffffff1673ffffffffffffffffffffffffffffffffffffffff1681526020019081526020016000206000858152602001908152602001600020805480602002602001604051908101604052809291908181526020016000905b828210156134c557838290600052602060002090600202016040518060400160405290816000820160009054906101000a900473ffffffffffffffffffffffffffffffffffffffff1673ffffffffffffffffffffffffffffffffffffffff1673ffffffffffffffffffffffffffffffffffffffff16815260200160018201548152505081526020019060010190613433565b505050509250505092915050565b6134db6141fe565b600073ffffffffffffffffffffffffffffffffffffffff168173ffffffffffffffffffffffffffffffffffffffff160361354a576040517f08c379a000000000000000000000000000000000000000000000000000000000815260040161354190615381565b60405180910390fd5b6135538161427c565b50565b606082826000600260008473ffffffffffffffffffffffffffffffffffffffff1673ffffffffffffffffffffffffffffffffffffffff168152602001908152602001600020600083815260200190815260200160002060000154116135f45781816040517f6831488c0000000000000000000000000000000000000000000000000000000081526004016135eb929190614de3565b60405180910390fd5b600660008673ffffffffffffffffffffffffffffffffffffffff1673ffffffffffffffffffffffffffffffffffffffff1681526020019081526020016000206000858152602001908152602001600020805480602002602001604051908101604052809291908181526020016000905b8282101561374c57838290600052602060002090600302016040518060600160405290816000820160009054906101000a900473ffffffffffffffffffffffffffffffffffffffff1673ffffffffffffffffffffffffffffffffffffffff1673ffffffffffffffffffffffffffffffffffffffff1681526020016001820160009054906101000a900473ffffffffffffffffffffffffffffffffffffffff1673ffffffffffffffffffffffffffffffffffffffff1673ffffffffffffffffffffffffffffffffffffffff16815260200160028201548152505081526020019060010190613664565b505050509250505092915050565b82826000600260008473ffffffffffffffffffffffffffffffffffffffff1673ffffffffffffffffffffffffffffffffffffffff168152602001908152602001600020600083815260200190815260200160002060000154116137f65781816040517f6831488c0000000000000000000000000000000000000000000000000000000081526004016137ed929190614de3565b60405180910390fd5b6137fe6139f5565b848433600083905060008173ffffffffffffffffffffffffffffffffffffffff16636352211e856040518263ffffffff1660e01b815260040161384191906148ed565b602060405180830381865afa15801561385e573d6000803e3d6000fd5b505050506040513d601f19601f820116820180604052508101906138829190614d24565b90508073ffffffffffffffffffffffffffffffffffffffff168373ffffffffffffffffffffffffffffffffffffffff16146138e9576040517f30cd747100000000000000000000000000000000000000000000000000000000815260040160405180910390fd5b60008803613923576040517fe1abbfc500000000000000000000000000000000000000000000000000000000815260040160405180910390fd5b87600260008c73ffffffffffffffffffffffffffffffffffffffff1673ffffffffffffffffffffffffffffffffffffffff16815260200190815260200160002060008b815260200190815260200160002060000181905550888a73ffffffffffffffffffffffffffffffffffffffff163373ffffffffffffffffffffffffffffffffffffffff167fd547e933094f12a9159076970143ebe73234e64480317844b0dcb36117116de48b6040516139d991906148ed565b60405180910390a450505050506139ee613c07565b5050505050565b600260005403613a3a576040517f08c379a0000000000000000000000000000000000000000000000000000000008152600401613a31906153ed565b60405180910390fd5b6002600081905550565b600080600760008673ffffffffffffffffffffffffffffffffffffffff1673ffffffffffffffffffffffffffffffffffffffff1681526020019081526020016000206000848152602001908152602001600020805480602002602001604051908101604052809291908181526020016000905b82821015613b4957838290600052602060002090600202016040518060400160405290816000820160009054906101000a900473ffffffffffffffffffffffffffffffffffffffff1673ffffffffffffffffffffffffffffffffffffffff1673ffffffffffffffffffffffffffffffffffffffff16815260200160018201548152505081526020019060010190613ab7565b5050505090506000805b81158015613b615750825181105b15613bf9578773ffffffffffffffffffffffffffffffffffffffff16838281518110613b9057613b8f614d51565b5b60200260200101516000015173ffffffffffffffffffffffffffffffffffffffff16148015613bdc575085838281518110613bce57613bcd614d51565b5b602002602001015160200151145b15613be657600191505b8080613bf19061540d565b915050613b53565b819350505050949350505050565b6001600081905550565b6000600760008573ffffffffffffffffffffffffffffffffffffffff1673ffffffffffffffffffffffffffffffffffffffff168152602001908152602001600020600083815260200190815260200160002090506000805b81158015613c7a5750828054905081105b15613eb9578673ffffffffffffffffffffffffffffffffffffffff16838281548110613ca957613ca8614d51565b5b906000526020600020906002020160000160009054906101000a900473ffffffffffffffffffffffffffffffffffffffff1673ffffffffffffffffffffffffffffffffffffffff16148015613d21575084838281548110613d0d57613d0c614d51565b5b906000526020600020906002020160010154145b15613eb457600191508260018480549050613d3c9190614daf565b81548110613d4d57613d4c614d51565b5b9060005260206000209060020201838281548110613d6e57613d6d614d51565b5b90600052602060002090600202016000820160009054906101000a900473ffffffffffffffffffffffffffffffffffffffff168160000160006101000a81548173ffffffffffffffffffffffffffffffffffffffff021916908373ffffffffffffffffffffffffffffffffffffffff160217905550600182015481600101559050508260018480549050613e029190614daf565b81548110613e1357613e12614d51565b5b9060005260206000209060020201600080820160006101000a81549073ffffffffffffffffffffffffffffffffffffffff02191690556001820160009055505082600760008873ffffffffffffffffffffffffffffffffffffffff1673ffffffffffffffffffffffffffffffffffffffff1681526020019081526020016000206000868152602001908152602001600020908054613eb292919061434a565b505b613c69565b6000600660008973ffffffffffffffffffffffffffffffffffffffff1673ffffffffffffffffffffffffffffffffffffffff1681526020019081526020016000206000878152602001908152602001600020905060009250600091505b82158015613f275750808054905082105b156141f4578673ffffffffffffffffffffffffffffffffffffffff16818381548110613f5657613f55614d51565b5b906000526020600020906003020160010160009054906101000a900473ffffffffffffffffffffffffffffffffffffffff1673ffffffffffffffffffffffffffffffffffffffff16148015613fce575084818381548110613fba57613fb9614d51565b5b906000526020600020906003020160020154145b156141ef57600192508060018580549050613fe99190614daf565b81548110613ffa57613ff9614d51565b5b906000526020600020906003020181838154811061401b5761401a614d51565b5b90600052602060002090600302016000820160009054906101000a900473ffffffffffffffffffffffffffffffffffffffff168160000160006101000a81548173ffffffffffffffffffffffffffffffffffffffff021916908373ffffffffffffffffffffffffffffffffffffffff1602179055506001820160009054906101000a900473ffffffffffffffffffffffffffffffffffffffff168160010160006101000a81548173ffffffffffffffffffffffffffffffffffffffff021916908373ffffffffffffffffffffffffffffffffffffffff1602179055506002820154816002015590505080600182805490506141169190614daf565b8154811061412757614126614d51565b5b9060005260206000209060030201600080820160006101000a81549073ffffffffffffffffffffffffffffffffffffffff02191690556001820160006101000a81549073ffffffffffffffffffffffffffffffffffffffff02191690556002820160009055505080600660008a73ffffffffffffffffffffffffffffffffffffffff1673ffffffffffffffffffffffffffffffffffffffff16815260200190815260200160002060008881526020019081526020016000209080546141ed929190614413565b505b613f16565b5050505050505050565b614206614342565b73ffffffffffffffffffffffffffffffffffffffff16614224612952565b73ffffffffffffffffffffffffffffffffffffffff161461427a576040517f08c379a0000000000000000000000000000000000000000000000000000000008152600401614271906154a1565b60405180910390fd5b565b6000600160009054906101000a900473ffffffffffffffffffffffffffffffffffffffff16905081600160006101000a81548173ffffffffffffffffffffffffffffffffffffffff021916908373ffffffffffffffffffffffffffffffffffffffff1602179055508173ffffffffffffffffffffffffffffffffffffffff168173ffffffffffffffffffffffffffffffffffffffff167f8be0079c531659141344cd1fd0a4f28419497f9722a3daafe3b4186f6b6457e060405160405180910390a35050565b600033905090565b8280548282559060005260206000209060020281019282156144025760005260206000209160020282015b828111156144015782826000820160009054906101000a900473ffffffffffffffffffffffffffffffffffffffff168160000160006101000a81548173ffffffffffffffffffffffffffffffffffffffff021916908373ffffffffffffffffffffffffffffffffffffffff16021790555060018201548160010155505091600201919060020190614375565b5b50905061440f91906145a3565b5090565b8280548282559060005260206000209060030281019282156145325760005260206000209160030282015b828111156145315782826000820160009054906101000a900473ffffffffffffffffffffffffffffffffffffffff168160000160006101000a81548173ffffffffffffffffffffffffffffffffffffffff021916908373ffffffffffffffffffffffffffffffffffffffff1602179055506001820160009054906101000a900473ffffffffffffffffffffffffffffffffffffffff168160010160006101000a81548173ffffffffffffffffffffffffffffffffffffffff021916908373ffffffffffffffffffffffffffffffffffffffff1602179055506002820154816002015550509160030191906003019061443e565b5b50905061453f91906145e9565b5090565b604051806040016040528060008152602001600073ffffffffffffffffffffffffffffffffffffffff1681525090565b604051806040016040528060008152602001600073ffffffffffffffffffffffffffffffffffffffff1681525090565b5b808211156145e557600080820160006101000a81549073ffffffffffffffffffffffffffffffffffffffff02191690556001820160009055506002016145a4565b5090565b5b8082111561465257600080820160006101000a81549073ffffffffffffffffffffffffffffffffffffffff02191690556001820160006101000a81549073ffffffffffffffffffffffffffffffffffffffff02191690556002820160009055506003016145ea565b5090565b600080fd5b600073ffffffffffffffffffffffffffffffffffffffff82169050919050565b60006146868261465b565b9050919050565b6146968161467b565b81146146a157600080fd5b50565b6000813590506146b38161468d565b92915050565b6000602082840312156146cf576146ce614656565b5b60006146dd848285016146a4565b91505092915050565b600081519050919050565b600082825260208201905092915050565b6000819050602082019050919050565b6000819050919050565b61472581614712565b82525050565b6000614737838361471c565b60208301905092915050565b6000602082019050919050565b600061475b826146e6565b61476581856146f1565b935061477083614702565b8060005b838110156147a1578151614788888261472b565b975061479383614743565b925050600181019050614774565b5085935050505092915050565b600060208201905081810360008301526147c88184614750565b905092915050565b6147d981614712565b81146147e457600080fd5b50565b6000813590506147f6816147d0565b92915050565b6000806000806080858703121561481657614815614656565b5b6000614824878288016146a4565b9450506020614835878288016146a4565b9350506040614846878288016147e7565b9250506060614857878288016147e7565b91505092959194509250565b600080600080600060a0868803121561487f5761487e614656565b5b600061488d888289016146a4565b955050602061489e888289016146a4565b94505060406148af888289016146a4565b93505060606148c0888289016147e7565b92505060806148d1888289016147e7565b9150509295509295909350565b6148e781614712565b82525050565b600060208201905061490260008301846148de565b92915050565b6000806000806080858703121561492257614921614656565b5b6000614930878288016146a4565b9450506020614941878288016147e7565b9350506040614952878288016146a4565b9250506060614963878288016147e7565b91505092959194509250565b6000806040838503121561498657614985614656565b5b6000614994858286016146a4565b92505060206149a5858286016147e7565b9150509250929050565b6149b88161467b565b82525050565b6040820160008201516149d4600085018261471c565b5060208201516149e760208501826149af565b50505050565b6000604082019050614a0260008301846149be565b92915050565b600080600060608486031215614a2157614a20614656565b5b6000614a2f868287016146a4565b9350506020614a40868287016147e7565b9250506040614a51868287016147e7565b9150509250925092565b614a648161467b565b82525050565b6000602082019050614a7f6000830184614a5b565b92915050565b604082016000820151614a9b600085018261471c565b506020820151614aae60208501826149af565b50505050565b6000604082019050614ac96000830184614a85565b92915050565b600060208284031215614ae557614ae4614656565b5b6000614af3848285016147e7565b91505092915050565b600081519050919050565b600082825260208201905092915050565b6000819050602082019050919050565b604082016000820151614b3e60008501826149af565b506020820151614b51602085018261471c565b50505050565b6000614b638383614b28565b60408301905092915050565b6000602082019050919050565b6000614b8782614afc565b614b918185614b07565b9350614b9c83614b18565b8060005b83811015614bcd578151614bb48882614b57565b9750614bbf83614b6f565b925050600181019050614ba0565b5085935050505092915050565b60006020820190508181036000830152614bf48184614b7c565b905092915050565b600081519050919050565b600082825260208201905092915050565b6000819050602082019050919050565b606082016000820151614c3e60008501826149af565b506020820151614c5160208501826149af565b506040820151614c64604085018261471c565b50505050565b6000614c768383614c28565b60608301905092915050565b6000602082019050919050565b6000614c9a82614bfc565b614ca48185614c07565b9350614caf83614c18565b8060005b83811015614ce0578151614cc78882614c6a565b9750614cd283614c82565b925050600181019050614cb3565b5085935050505092915050565b60006020820190508181036000830152614d078184614c8f565b905092915050565b600081519050614d1e8161468d565b92915050565b600060208284031215614d3a57614d39614656565b5b6000614d4884828501614d0f565b91505092915050565b7f4e487b7100000000000000000000000000000000000000000000000000000000600052603260045260246000fd5b7f4e487b7100000000000000000000000000000000000000000000000000000000600052601160045260246000fd5b6000614dba82614712565b9150614dc583614712565b9250828203905081811115614ddd57614ddc614d80565b5b92915050565b6000604082019050614df86000830185614a5b565b614e0560208301846148de565b9392505050565b600082825260208201905092915050565b7f43616e6e6f742062652073776170706564000000000000000000000000000000600082015250565b6000614e53601183614e0c565b9150614e5e82614e1d565b602082019050919050565b60006020820190508181036000830152614e8281614e46565b9050919050565b6000606082019050614e9e6000830186614a5b565b614eab6020830185614a5b565b614eb860408301846148de565b949350505050565b7f53776170206f6666657220616c72656164792065786973747300000000000000600082015250565b6000614ef6601983614e0c565b9150614f0182614ec0565b602082019050919050565b60006020820190508181036000830152614f2581614ee9565b9050919050565b7f416c7265616479206c6973746564000000000000000000000000000000000000600082015250565b6000614f62600e83614e0c565b9150614f6d82614f2c565b602082019050919050565b60006020820190508181036000830152614f9181614f55565b9050919050565b7f4e6f7420656e6f756768206e66747320746f20737761702c20747279206c617460008201527f6572000000000000000000000000000000000000000000000000000000000000602082015250565b6000614ff4602283614e0c565b9150614fff82614f98565b604082019050919050565b6000602082019050818103600083015261502381614fe7565b9050919050565b7f4e6f74204e4654206f776e657200000000000000000000000000000000000000600082015250565b6000615060600d83614e0c565b915061506b8261502a565b602082019050919050565b6000602082019050818103600083015261508f81615053565b9050919050565b7f4e487b7100000000000000000000000000000000000000000000000000000000600052601260045260246000fd5b60006150d082614712565b91506150db83614712565b9250826150eb576150ea615096565b5b828206905092915050565b600061ffff82169050919050565b600061510f826150f6565b915061ffff820361512357615122614d80565b5b600182019050919050565b60006040820190506151436000830185614a5b565b6151506020830184614a5b565b9392505050565b7f416c7265616479206f6e207377617020706f6f6c000000000000000000000000600082015250565b600061518d601483614e0c565b915061519882615157565b602082019050919050565b600060208201905081810360008301526151bc81615180565b9050919050565b600081905092915050565b50565b60006151de6000836151c3565b91506151e9826151ce565b600082019050919050565b60006151ff826151d1565b9150819050919050565b7f5472616e73666572206661696c65640000000000000000000000000000000000600082015250565b600061523f600f83614e0c565b915061524a82615209565b602082019050919050565b6000602082019050818103600083015261526e81615232565b9050919050565b600060608201905061528a6000830186614a5b565b61529760208301856148de565b6152a460408301846148de565b949350505050565b60006152b782614712565b91506152c283614712565b92508282019050808211156152da576152d9614d80565b5b92915050565b7f4e487b7100000000000000000000000000000000000000000000000000000000600052603160045260246000fd5b7f4f776e61626c653a206e6577206f776e657220697320746865207a65726f206160008201527f6464726573730000000000000000000000000000000000000000000000000000602082015250565b600061536b602683614e0c565b91506153768261530f565b604082019050919050565b6000602082019050818103600083015261539a8161535e565b9050919050565b7f5265656e7472616e637947756172643a207265656e7472616e742063616c6c00600082015250565b60006153d7601f83614e0c565b91506153e2826153a1565b602082019050919050565b60006020820190508181036000830152615406816153ca565b9050919050565b600061541882614712565b91507fffffffffffffffffffffffffffffffffffffffffffffffffffffffffffffffff820361544a57615449614d80565b5b600182019050919050565b7f4f776e61626c653a2063616c6c6572206973206e6f7420746865206f776e6572600082015250565b600061548b602083614e0c565b915061549682615455565b602082019050919050565b600060208201905081810360008301526154ba8161547e565b905091905056fea26469706673582212207932cbb4789cdd00373039b8934afe2cb4c42aa29518a858539bf0c5ed397a8e64736f6c63430008110033",
    "linkReferences": {},
    "deployedLinkReferences": {}
}