{
    "_format": "hh-sol-artifact-1",
    "contractName": "BasicNft",
    "sourceName": "contracts/BasicNft.sol",
    "abi": [
        {
            "inputs": [],
            "stateMutability": "nonpayable",
            "type": "constructor"
        },
        {
            "anonymous": false,
            "inputs": [
                {
                    "indexed": true,
                    "internalType": "address",
                    "name": "owner",
                    "type": "address"
                },
                {
                    "indexed": true,
                    "internalType": "address",
                    "name": "approved",
                    "type": "address"
                },
                {
                    "indexed": true,
                    "internalType": "uint256",
                    "name": "tokenId",
                    "type": "uint256"
                }
            ],
            "name": "Approval",
            "type": "event"
        },
        {
            "anonymous": false,
            "inputs": [
                {
                    "indexed": true,
                    "internalType": "address",
                    "name": "owner",
                    "type": "address"
                },
                {
                    "indexed": true,
                    "internalType": "address",
                    "name": "operator",
                    "type": "address"
                },
                {
                    "indexed": false,
                    "internalType": "bool",
                    "name": "approved",
                    "type": "bool"
                }
            ],
            "name": "ApprovalForAll",
            "type": "event"
        },
        {
            "anonymous": false,
            "inputs": [
                {
                    "indexed": true,
                    "internalType": "uint256",
                    "name": "tokenId",
                    "type": "uint256"
                }
            ],
            "name": "Minted",
            "type": "event"
        },
        {
            "anonymous": false,
            "inputs": [
                {
                    "indexed": true,
                    "internalType": "address",
                    "name": "from",
                    "type": "address"
                },
                {
                    "indexed": true,
                    "internalType": "address",
                    "name": "to",
                    "type": "address"
                },
                {
                    "indexed": true,
                    "internalType": "uint256",
                    "name": "tokenId",
                    "type": "uint256"
                }
            ],
            "name": "Transfer",
            "type": "event"
        },
        {
            "inputs": [
                {
                    "internalType": "address",
                    "name": "to",
                    "type": "address"
                },
                {
                    "internalType": "uint256",
                    "name": "tokenId",
                    "type": "uint256"
                }
            ],
            "name": "approve",
            "outputs": [],
            "stateMutability": "nonpayable",
            "type": "function"
        },
        {
            "inputs": [
                {
                    "internalType": "address",
                    "name": "owner",
                    "type": "address"
                }
            ],
            "name": "balanceOf",
            "outputs": [
                {
                    "internalType": "uint256",
                    "name": "",
                    "type": "uint256"
                }
            ],
            "stateMutability": "view",
            "type": "function"
        },
        {
            "inputs": [
                {
                    "internalType": "uint256",
                    "name": "tokenId",
                    "type": "uint256"
                }
            ],
            "name": "getApproved",
            "outputs": [
                {
                    "internalType": "address",
                    "name": "",
                    "type": "address"
                }
            ],
            "stateMutability": "view",
            "type": "function"
        },
        {
            "inputs": [],
            "name": "getTokenCounter",
            "outputs": [
                {
                    "internalType": "uint256",
                    "name": "",
                    "type": "uint256"
                }
            ],
            "stateMutability": "view",
            "type": "function"
        },
        {
            "inputs": [
                {
                    "internalType": "address",
                    "name": "owner",
                    "type": "address"
                },
                {
                    "internalType": "address",
                    "name": "operator",
                    "type": "address"
                }
            ],
            "name": "isApprovedForAll",
            "outputs": [
                {
                    "internalType": "bool",
                    "name": "",
                    "type": "bool"
                }
            ],
            "stateMutability": "view",
            "type": "function"
        },
        {
            "inputs": [],
            "name": "mintNft",
            "outputs": [],
            "stateMutability": "nonpayable",
            "type": "function"
        },
        {
            "inputs": [],
            "name": "name",
            "outputs": [
                {
                    "internalType": "string",
                    "name": "",
                    "type": "string"
                }
            ],
            "stateMutability": "view",
            "type": "function"
        },
        {
            "inputs": [
                {
                    "internalType": "uint256",
                    "name": "tokenId",
                    "type": "uint256"
                }
            ],
            "name": "ownerOf",
            "outputs": [
                {
                    "internalType": "address",
                    "name": "",
                    "type": "address"
                }
            ],
            "stateMutability": "view",
            "type": "function"
        },
        {
            "inputs": [
                {
                    "internalType": "address",
                    "name": "from",
                    "type": "address"
                },
                {
                    "internalType": "address",
                    "name": "to",
                    "type": "address"
                },
                {
                    "internalType": "uint256",
                    "name": "tokenId",
                    "type": "uint256"
                }
            ],
            "name": "safeTransferFrom",
            "outputs": [],
            "stateMutability": "nonpayable",
            "type": "function"
        },
        {
            "inputs": [
                {
                    "internalType": "address",
                    "name": "from",
                    "type": "address"
                },
                {
                    "internalType": "address",
                    "name": "to",
                    "type": "address"
                },
                {
                    "internalType": "uint256",
                    "name": "tokenId",
                    "type": "uint256"
                },
                {
                    "internalType": "bytes",
                    "name": "data",
                    "type": "bytes"
                }
            ],
            "name": "safeTransferFrom",
            "outputs": [],
            "stateMutability": "nonpayable",
            "type": "function"
        },
        {
            "inputs": [
                {
                    "internalType": "address",
                    "name": "operator",
                    "type": "address"
                },
                {
                    "internalType": "bool",
                    "name": "approved",
                    "type": "bool"
                }
            ],
            "name": "setApprovalForAll",
            "outputs": [],
            "stateMutability": "nonpayable",
            "type": "function"
        },
        {
            "inputs": [
                {
                    "internalType": "bytes4",
                    "name": "interfaceId",
                    "type": "bytes4"
                }
            ],
            "name": "supportsInterface",
            "outputs": [
                {
                    "internalType": "bool",
                    "name": "",
                    "type": "bool"
                }
            ],
            "stateMutability": "view",
            "type": "function"
        },
        {
            "inputs": [],
            "name": "symbol",
            "outputs": [
                {
                    "internalType": "string",
                    "name": "",
                    "type": "string"
                }
            ],
            "stateMutability": "view",
            "type": "function"
        },
        {
            "inputs": [
                {
                    "internalType": "uint256",
                    "name": "tokenId",
                    "type": "uint256"
                }
            ],
            "name": "tokenURI",
            "outputs": [
                {
                    "internalType": "string",
                    "name": "",
                    "type": "string"
                }
            ],
            "stateMutability": "view",
            "type": "function"
        },
        {
            "inputs": [
                {
                    "internalType": "address",
                    "name": "from",
                    "type": "address"
                },
                {
                    "internalType": "address",
                    "name": "to",
                    "type": "address"
                },
                {
                    "internalType": "uint256",
                    "name": "tokenId",
                    "type": "uint256"
                }
            ],
            "name": "transferFrom",
            "outputs": [],
            "stateMutability": "nonpayable",
            "type": "function"
        }
    ],
    "bytecode": "0x60806040523480156200001157600080fd5b506040518060400160405280600581526020017f446f6769650000000000000000000000000000000000000000000000000000008152506040518060400160405280600381526020017f444f47000000000000000000000000000000000000000000000000000000000081525081600090816200008f91906200032c565b508060019081620000a191906200032c565b505050600060068190555062000413565b600081519050919050565b7f4e487b7100000000000000000000000000000000000000000000000000000000600052604160045260246000fd5b7f4e487b7100000000000000000000000000000000000000000000000000000000600052602260045260246000fd5b600060028204905060018216806200013457607f821691505b6020821081036200014a5762000149620000ec565b5b50919050565b60008190508160005260206000209050919050565b60006020601f8301049050919050565b600082821b905092915050565b600060088302620001b47fffffffffffffffffffffffffffffffffffffffffffffffffffffffffffffffff8262000175565b620001c0868362000175565b95508019841693508086168417925050509392505050565b6000819050919050565b6000819050919050565b60006200020d620002076200020184620001d8565b620001e2565b620001d8565b9050919050565b6000819050919050565b6200022983620001ec565b62000241620002388262000214565b84845462000182565b825550505050565b600090565b6200025862000249565b620002658184846200021e565b505050565b5b818110156200028d57620002816000826200024e565b6001810190506200026b565b5050565b601f821115620002dc57620002a68162000150565b620002b18462000165565b81016020851015620002c1578190505b620002d9620002d08562000165565b8301826200026a565b50505b505050565b600082821c905092915050565b60006200030160001984600802620002e1565b1980831691505092915050565b60006200031c8383620002ee565b9150826002028217905092915050565b6200033782620000b2565b67ffffffffffffffff811115620003535762000352620000bd565b5b6200035f82546200011b565b6200036c82828562000291565b600060209050601f831160018114620003a457600084156200038f578287015190505b6200039b85826200030e565b8655506200040b565b601f198416620003b48662000150565b60005b82811015620003de57848901518255600182019150602085019450602081019050620003b7565b86831015620003fe5784890151620003fa601f891682620002ee565b8355505b6001600288020188555050505b505050505050565b61252780620004236000396000f3fe608060405234801561001057600080fd5b50600436106100f55760003560e01c80636e02007d11610097578063b88d4fde11610066578063b88d4fde14610284578063c2229fea146102a0578063c87b56dd146102aa578063e985e9c5146102da576100f5565b80636e02007d146101fc57806370a082311461021a57806395d89b411461024a578063a22cb46514610268576100f5565b8063095ea7b3116100d3578063095ea7b31461017857806323b872dd1461019457806342842e0e146101b05780636352211e146101cc576100f5565b806301ffc9a7146100fa57806306fdde031461012a578063081812fc14610148575b600080fd5b610114600480360381019061010f91906116b3565b61030a565b60405161012191906116fb565b60405180910390f35b6101326103ec565b60405161013f91906117a6565b60405180910390f35b610162600480360381019061015d91906117fe565b61047e565b60405161016f919061186c565b60405180910390f35b610192600480360381019061018d91906118b3565b6104c4565b005b6101ae60048036038101906101a991906118f3565b6105db565b005b6101ca60048036038101906101c591906118f3565b61063b565b005b6101e660048036038101906101e191906117fe565b61065b565b6040516101f3919061186c565b60405180910390f35b61020461070c565b6040516102119190611955565b60405180910390f35b610234600480360381019061022f9190611970565b610716565b6040516102419190611955565b60405180910390f35b6102526107cd565b60405161025f91906117a6565b60405180910390f35b610282600480360381019061027d91906119c9565b61085f565b005b61029e60048036038101906102999190611b3e565b610875565b005b6102a86108d7565b005b6102c460048036038101906102bf91906117fe565b610929565b6040516102d191906117a6565b60405180910390f35b6102f460048036038101906102ef9190611bc1565b610991565b60405161030191906116fb565b60405180910390f35b60007f80ac58cd000000000000000000000000000000000000000000000000000000007bffffffffffffffffffffffffffffffffffffffffffffffffffffffff1916827bffffffffffffffffffffffffffffffffffffffffffffffffffffffff191614806103d557507f5b5e139f000000000000000000000000000000000000000000000000000000007bffffffffffffffffffffffffffffffffffffffffffffffffffffffff1916827bffffffffffffffffffffffffffffffffffffffffffffffffffffffff1916145b806103e557506103e482610a25565b5b9050919050565b6060600080546103fb90611c30565b80601f016020809104026020016040519081016040528092919081815260200182805461042790611c30565b80156104745780601f1061044957610100808354040283529160200191610474565b820191906000526020600020905b81548152906001019060200180831161045757829003601f168201915b5050505050905090565b600061048982610a8f565b6004600083815260200190815260200160002060009054906101000a900473ffffffffffffffffffffffffffffffffffffffff169050919050565b60006104cf8261065b565b90508073ffffffffffffffffffffffffffffffffffffffff168373ffffffffffffffffffffffffffffffffffffffff160361053f576040517f08c379a000000000000000000000000000000000000000000000000000000000815260040161053690611cd3565b60405180910390fd5b8073ffffffffffffffffffffffffffffffffffffffff1661055e610ada565b73ffffffffffffffffffffffffffffffffffffffff16148061058d575061058c81610587610ada565b610991565b5b6105cc576040517f08c379a00000000000000000000000000000000000000000000000000000000081526004016105c390611d65565b60405180910390fd5b6105d68383610ae2565b505050565b6105ec6105e6610ada565b82610b9b565b61062b576040517f08c379a000000000000000000000000000000000000000000000000000000000815260040161062290611df7565b60405180910390fd5b610636838383610c30565b505050565b61065683838360405180602001604052806000815250610875565b505050565b6000806002600084815260200190815260200160002060009054906101000a900473ffffffffffffffffffffffffffffffffffffffff169050600073ffffffffffffffffffffffffffffffffffffffff168173ffffffffffffffffffffffffffffffffffffffff1603610703576040517f08c379a00000000000000000000000000000000000000000000000000000000081526004016106fa90611e63565b60405180910390fd5b80915050919050565b6000600654905090565b60008073ffffffffffffffffffffffffffffffffffffffff168273ffffffffffffffffffffffffffffffffffffffff1603610786576040517f08c379a000000000000000000000000000000000000000000000000000000000815260040161077d90611ef5565b60405180910390fd5b600360008373ffffffffffffffffffffffffffffffffffffffff1673ffffffffffffffffffffffffffffffffffffffff168152602001908152602001600020549050919050565b6060600180546107dc90611c30565b80601f016020809104026020016040519081016040528092919081815260200182805461080890611c30565b80156108555780601f1061082a57610100808354040283529160200191610855565b820191906000526020600020905b81548152906001019060200180831161083857829003601f168201915b5050505050905090565b61087161086a610ada565b8383610e96565b5050565b610886610880610ada565b83610b9b565b6108c5576040517f08c379a00000000000000000000000000000000000000000000000000000000081526004016108bc90611df7565b60405180910390fd5b6108d184848484611002565b50505050565b6108e33360065461105e565b6006547f176b02bb2d12439ff7a20b59f402cca16c76f50508b13ef3166a600eb719354a60405160405180910390a260016006546109219190611f44565b600681905550565b606061093482610a8f565b600061093e61107c565b9050600081511161095e5760405180602001604052806000815250610989565b8061096884611093565b604051602001610979929190611fb4565b6040516020818303038152906040525b915050919050565b6000600560008473ffffffffffffffffffffffffffffffffffffffff1673ffffffffffffffffffffffffffffffffffffffff16815260200190815260200160002060008373ffffffffffffffffffffffffffffffffffffffff1673ffffffffffffffffffffffffffffffffffffffff16815260200190815260200160002060009054906101000a900460ff16905092915050565b60007f01ffc9a7000000000000000000000000000000000000000000000000000000007bffffffffffffffffffffffffffffffffffffffffffffffffffffffff1916827bffffffffffffffffffffffffffffffffffffffffffffffffffffffff1916149050919050565b610a98816111f3565b610ad7576040517f08c379a0000000000000000000000000000000000000000000000000000000008152600401610ace90611e63565b60405180910390fd5b50565b600033905090565b816004600083815260200190815260200160002060006101000a81548173ffffffffffffffffffffffffffffffffffffffff021916908373ffffffffffffffffffffffffffffffffffffffff160217905550808273ffffffffffffffffffffffffffffffffffffffff16610b558361065b565b73ffffffffffffffffffffffffffffffffffffffff167f8c5be1e5ebec7d5bd14f71427d1e84f3dd0314c0f7b2291e5b200ac8c7c3b92560405160405180910390a45050565b600080610ba78361065b565b90508073ffffffffffffffffffffffffffffffffffffffff168473ffffffffffffffffffffffffffffffffffffffff161480610be95750610be88185610991565b5b80610c2757508373ffffffffffffffffffffffffffffffffffffffff16610c0f8461047e565b73ffffffffffffffffffffffffffffffffffffffff16145b91505092915050565b8273ffffffffffffffffffffffffffffffffffffffff16610c508261065b565b73ffffffffffffffffffffffffffffffffffffffff1614610ca6576040517f08c379a0000000000000000000000000000000000000000000000000000000008152600401610c9d9061204a565b60405180910390fd5b600073ffffffffffffffffffffffffffffffffffffffff168273ffffffffffffffffffffffffffffffffffffffff1603610d15576040517f08c379a0000000000000000000000000000000000000000000000000000000008152600401610d0c906120dc565b60405180910390fd5b610d2083838361125f565b610d2b600082610ae2565b6001600360008573ffffffffffffffffffffffffffffffffffffffff1673ffffffffffffffffffffffffffffffffffffffff1681526020019081526020016000206000828254610d7b91906120fc565b925050819055506001600360008473ffffffffffffffffffffffffffffffffffffffff1673ffffffffffffffffffffffffffffffffffffffff1681526020019081526020016000206000828254610dd29190611f44565b92505081905550816002600083815260200190815260200160002060006101000a81548173ffffffffffffffffffffffffffffffffffffffff021916908373ffffffffffffffffffffffffffffffffffffffff160217905550808273ffffffffffffffffffffffffffffffffffffffff168473ffffffffffffffffffffffffffffffffffffffff167fddf252ad1be2c89b69c2b068fc378daa952ba7f163c4a11628f55a4df523b3ef60405160405180910390a4610e91838383611264565b505050565b8173ffffffffffffffffffffffffffffffffffffffff168373ffffffffffffffffffffffffffffffffffffffff1603610f04576040517f08c379a0000000000000000000000000000000000000000000000000000000008152600401610efb9061217c565b60405180910390fd5b80600560008573ffffffffffffffffffffffffffffffffffffffff1673ffffffffffffffffffffffffffffffffffffffff16815260200190815260200160002060008473ffffffffffffffffffffffffffffffffffffffff1673ffffffffffffffffffffffffffffffffffffffff16815260200190815260200160002060006101000a81548160ff0219169083151502179055508173ffffffffffffffffffffffffffffffffffffffff168373ffffffffffffffffffffffffffffffffffffffff167f17307eab39ab6107e8899845ad3d59bd9653f200f220920489ca2b5937696c3183604051610ff591906116fb565b60405180910390a3505050565b61100d848484610c30565b61101984848484611269565b611058576040517f08c379a000000000000000000000000000000000000000000000000000000000815260040161104f9061220e565b60405180910390fd5b50505050565b6110788282604051806020016040528060008152506113f0565b5050565b606060405180602001604052806000815250905090565b6060600082036110da576040518060400160405280600181526020017f300000000000000000000000000000000000000000000000000000000000000081525090506111ee565b600082905060005b6000821461110c5780806110f59061222e565b915050600a8261110591906122a5565b91506110e2565b60008167ffffffffffffffff81111561112857611127611a13565b5b6040519080825280601f01601f19166020018201604052801561115a5781602001600182028036833780820191505090505b5090505b600085146111e75760018261117391906120fc565b9150600a8561118291906122d6565b603061118e9190611f44565b60f81b8183815181106111a4576111a3612307565b5b60200101907effffffffffffffffffffffffffffffffffffffffffffffffffffffffffffff1916908160001a905350600a856111e091906122a5565b945061115e565b8093505050505b919050565b60008073ffffffffffffffffffffffffffffffffffffffff166002600084815260200190815260200160002060009054906101000a900473ffffffffffffffffffffffffffffffffffffffff1673ffffffffffffffffffffffffffffffffffffffff1614159050919050565b505050565b505050565b600061128a8473ffffffffffffffffffffffffffffffffffffffff1661144b565b156113e3578373ffffffffffffffffffffffffffffffffffffffff1663150b7a026112b3610ada565b8786866040518563ffffffff1660e01b81526004016112d5949392919061238b565b6020604051808303816000875af192505050801561131157506040513d601f19601f8201168201806040525081019061130e91906123ec565b60015b611393573d8060008114611341576040519150601f19603f3d011682016040523d82523d6000602084013e611346565b606091505b50600081510361138b576040517f08c379a00000000000000000000000000000000000000000000000000000000081526004016113829061220e565b60405180910390fd5b805181602001fd5b63150b7a0260e01b7bffffffffffffffffffffffffffffffffffffffffffffffffffffffff1916817bffffffffffffffffffffffffffffffffffffffffffffffffffffffff1916149150506113e8565b600190505b949350505050565b6113fa838361146e565b6114076000848484611269565b611446576040517f08c379a000000000000000000000000000000000000000000000000000000000815260040161143d9061220e565b60405180910390fd5b505050565b6000808273ffffffffffffffffffffffffffffffffffffffff163b119050919050565b600073ffffffffffffffffffffffffffffffffffffffff168273ffffffffffffffffffffffffffffffffffffffff16036114dd576040517f08c379a00000000000000000000000000000000000000000000000000000000081526004016114d490612465565b60405180910390fd5b6114e6816111f3565b15611526576040517f08c379a000000000000000000000000000000000000000000000000000000000815260040161151d906124d1565b60405180910390fd5b6115326000838361125f565b6001600360008473ffffffffffffffffffffffffffffffffffffffff1673ffffffffffffffffffffffffffffffffffffffff16815260200190815260200160002060008282546115829190611f44565b92505081905550816002600083815260200190815260200160002060006101000a81548173ffffffffffffffffffffffffffffffffffffffff021916908373ffffffffffffffffffffffffffffffffffffffff160217905550808273ffffffffffffffffffffffffffffffffffffffff16600073ffffffffffffffffffffffffffffffffffffffff167fddf252ad1be2c89b69c2b068fc378daa952ba7f163c4a11628f55a4df523b3ef60405160405180910390a461164360008383611264565b5050565b6000604051905090565b600080fd5b600080fd5b60007fffffffff0000000000000000000000000000000000000000000000000000000082169050919050565b6116908161165b565b811461169b57600080fd5b50565b6000813590506116ad81611687565b92915050565b6000602082840312156116c9576116c8611651565b5b60006116d78482850161169e565b91505092915050565b60008115159050919050565b6116f5816116e0565b82525050565b600060208201905061171060008301846116ec565b92915050565b600081519050919050565b600082825260208201905092915050565b60005b83811015611750578082015181840152602081019050611735565b60008484015250505050565b6000601f19601f8301169050919050565b600061177882611716565b6117828185611721565b9350611792818560208601611732565b61179b8161175c565b840191505092915050565b600060208201905081810360008301526117c0818461176d565b905092915050565b6000819050919050565b6117db816117c8565b81146117e657600080fd5b50565b6000813590506117f8816117d2565b92915050565b60006020828403121561181457611813611651565b5b6000611822848285016117e9565b91505092915050565b600073ffffffffffffffffffffffffffffffffffffffff82169050919050565b60006118568261182b565b9050919050565b6118668161184b565b82525050565b6000602082019050611881600083018461185d565b92915050565b6118908161184b565b811461189b57600080fd5b50565b6000813590506118ad81611887565b92915050565b600080604083850312156118ca576118c9611651565b5b60006118d88582860161189e565b92505060206118e9858286016117e9565b9150509250929050565b60008060006060848603121561190c5761190b611651565b5b600061191a8682870161189e565b935050602061192b8682870161189e565b925050604061193c868287016117e9565b9150509250925092565b61194f816117c8565b82525050565b600060208201905061196a6000830184611946565b92915050565b60006020828403121561198657611985611651565b5b60006119948482850161189e565b91505092915050565b6119a6816116e0565b81146119b157600080fd5b50565b6000813590506119c38161199d565b92915050565b600080604083850312156119e0576119df611651565b5b60006119ee8582860161189e565b92505060206119ff858286016119b4565b9150509250929050565b600080fd5b600080fd5b7f4e487b7100000000000000000000000000000000000000000000000000000000600052604160045260246000fd5b611a4b8261175c565b810181811067ffffffffffffffff82111715611a6a57611a69611a13565b5b80604052505050565b6000611a7d611647565b9050611a898282611a42565b919050565b600067ffffffffffffffff821115611aa957611aa8611a13565b5b611ab28261175c565b9050602081019050919050565b82818337600083830152505050565b6000611ae1611adc84611a8e565b611a73565b905082815260208101848484011115611afd57611afc611a0e565b5b611b08848285611abf565b509392505050565b600082601f830112611b2557611b24611a09565b5b8135611b35848260208601611ace565b91505092915050565b60008060008060808587031215611b5857611b57611651565b5b6000611b668782880161189e565b9450506020611b778782880161189e565b9350506040611b88878288016117e9565b925050606085013567ffffffffffffffff811115611ba957611ba8611656565b5b611bb587828801611b10565b91505092959194509250565b60008060408385031215611bd857611bd7611651565b5b6000611be68582860161189e565b9250506020611bf78582860161189e565b9150509250929050565b7f4e487b7100000000000000000000000000000000000000000000000000000000600052602260045260246000fd5b60006002820490506001821680611c4857607f821691505b602082108103611c5b57611c5a611c01565b5b50919050565b7f4552433732313a20617070726f76616c20746f2063757272656e74206f776e6560008201527f7200000000000000000000000000000000000000000000000000000000000000602082015250565b6000611cbd602183611721565b9150611cc882611c61565b604082019050919050565b60006020820190508181036000830152611cec81611cb0565b9050919050565b7f4552433732313a20617070726f76652063616c6c6572206973206e6f7420746f60008201527f6b656e206f776e6572206e6f7220617070726f76656420666f7220616c6c0000602082015250565b6000611d4f603e83611721565b9150611d5a82611cf3565b604082019050919050565b60006020820190508181036000830152611d7e81611d42565b9050919050565b7f4552433732313a2063616c6c6572206973206e6f7420746f6b656e206f776e6560008201527f72206e6f7220617070726f766564000000000000000000000000000000000000602082015250565b6000611de1602e83611721565b9150611dec82611d85565b604082019050919050565b60006020820190508181036000830152611e1081611dd4565b9050919050565b7f4552433732313a20696e76616c696420746f6b656e2049440000000000000000600082015250565b6000611e4d601883611721565b9150611e5882611e17565b602082019050919050565b60006020820190508181036000830152611e7c81611e40565b9050919050565b7f4552433732313a2061646472657373207a65726f206973206e6f74206120766160008201527f6c6964206f776e65720000000000000000000000000000000000000000000000602082015250565b6000611edf602983611721565b9150611eea82611e83565b604082019050919050565b60006020820190508181036000830152611f0e81611ed2565b9050919050565b7f4e487b7100000000000000000000000000000000000000000000000000000000600052601160045260246000fd5b6000611f4f826117c8565b9150611f5a836117c8565b9250828201905080821115611f7257611f71611f15565b5b92915050565b600081905092915050565b6000611f8e82611716565b611f988185611f78565b9350611fa8818560208601611732565b80840191505092915050565b6000611fc08285611f83565b9150611fcc8284611f83565b91508190509392505050565b7f4552433732313a207472616e736665722066726f6d20696e636f72726563742060008201527f6f776e6572000000000000000000000000000000000000000000000000000000602082015250565b6000612034602583611721565b915061203f82611fd8565b604082019050919050565b6000602082019050818103600083015261206381612027565b9050919050565b7f4552433732313a207472616e7366657220746f20746865207a65726f2061646460008201527f7265737300000000000000000000000000000000000000000000000000000000602082015250565b60006120c6602483611721565b91506120d18261206a565b604082019050919050565b600060208201905081810360008301526120f5816120b9565b9050919050565b6000612107826117c8565b9150612112836117c8565b925082820390508181111561212a57612129611f15565b5b92915050565b7f4552433732313a20617070726f766520746f2063616c6c657200000000000000600082015250565b6000612166601983611721565b915061217182612130565b602082019050919050565b6000602082019050818103600083015261219581612159565b9050919050565b7f4552433732313a207472616e7366657220746f206e6f6e20455243373231526560008201527f63656976657220696d706c656d656e7465720000000000000000000000000000602082015250565b60006121f8603283611721565b91506122038261219c565b604082019050919050565b60006020820190508181036000830152612227816121eb565b9050919050565b6000612239826117c8565b91507fffffffffffffffffffffffffffffffffffffffffffffffffffffffffffffffff820361226b5761226a611f15565b5b600182019050919050565b7f4e487b7100000000000000000000000000000000000000000000000000000000600052601260045260246000fd5b60006122b0826117c8565b91506122bb836117c8565b9250826122cb576122ca612276565b5b828204905092915050565b60006122e1826117c8565b91506122ec836117c8565b9250826122fc576122fb612276565b5b828206905092915050565b7f4e487b7100000000000000000000000000000000000000000000000000000000600052603260045260246000fd5b600081519050919050565b600082825260208201905092915050565b600061235d82612336565b6123678185612341565b9350612377818560208601611732565b6123808161175c565b840191505092915050565b60006080820190506123a0600083018761185d565b6123ad602083018661185d565b6123ba6040830185611946565b81810360608301526123cc8184612352565b905095945050505050565b6000815190506123e681611687565b92915050565b60006020828403121561240257612401611651565b5b6000612410848285016123d7565b91505092915050565b7f4552433732313a206d696e7420746f20746865207a65726f2061646472657373600082015250565b600061244f602083611721565b915061245a82612419565b602082019050919050565b6000602082019050818103600083015261247e81612442565b9050919050565b7f4552433732313a20746f6b656e20616c7265616479206d696e74656400000000600082015250565b60006124bb601c83611721565b91506124c682612485565b602082019050919050565b600060208201905081810360008301526124ea816124ae565b905091905056fea26469706673582212208731d1cf328468613fe84959005518258a9fe7de17b7b7f3954c08d60197bc1a64736f6c63430008110033",
    "linkReferences": {},
    "deployedLinkReferences": {}
}