{
    "_format": "hh-sol-artifact-1",
    "contractName": "MyNFT",
    "sourceName": "contracts/MyNFT.sol",
    "abi": [
        {
            "inputs": [],
            "stateMutability": "nonpayable",
            "type": "constructor"
        },
        {
            "anonymous": false,
            "inputs": [
                {
                    "indexed": true,
                    "internalType": "address",
                    "name": "owner",
                    "type": "address"
                },
                {
                    "indexed": true,
                    "internalType": "address",
                    "name": "approved",
                    "type": "address"
                },
                {
                    "indexed": true,
                    "internalType": "uint256",
                    "name": "tokenId",
                    "type": "uint256"
                }
            ],
            "name": "Approval",
            "type": "event"
        },
        {
            "anonymous": false,
            "inputs": [
                {
                    "indexed": true,
                    "internalType": "address",
                    "name": "owner",
                    "type": "address"
                },
                {
                    "indexed": true,
                    "internalType": "address",
                    "name": "operator",
                    "type": "address"
                },
                {
                    "indexed": false,
                    "internalType": "bool",
                    "name": "approved",
                    "type": "bool"
                }
            ],
            "name": "ApprovalForAll",
            "type": "event"
        },
        {
            "anonymous": false,
            "inputs": [
                {
                    "indexed": true,
                    "internalType": "bytes32",
                    "name": "role",
                    "type": "bytes32"
                },
                {
                    "indexed": true,
                    "internalType": "bytes32",
                    "name": "previousAdminRole",
                    "type": "bytes32"
                },
                {
                    "indexed": true,
                    "internalType": "bytes32",
                    "name": "newAdminRole",
                    "type": "bytes32"
                }
            ],
            "name": "RoleAdminChanged",
            "type": "event"
        },
        {
            "anonymous": false,
            "inputs": [
                {
                    "indexed": true,
                    "internalType": "bytes32",
                    "name": "role",
                    "type": "bytes32"
                },
                {
                    "indexed": true,
                    "internalType": "address",
                    "name": "account",
                    "type": "address"
                },
                {
                    "indexed": true,
                    "internalType": "address",
                    "name": "sender",
                    "type": "address"
                }
            ],
            "name": "RoleGranted",
            "type": "event"
        },
        {
            "anonymous": false,
            "inputs": [
                {
                    "indexed": true,
                    "internalType": "bytes32",
                    "name": "role",
                    "type": "bytes32"
                },
                {
                    "indexed": true,
                    "internalType": "address",
                    "name": "account",
                    "type": "address"
                },
                {
                    "indexed": true,
                    "internalType": "address",
                    "name": "sender",
                    "type": "address"
                }
            ],
            "name": "RoleRevoked",
            "type": "event"
        },
        {
            "anonymous": false,
            "inputs": [
                {
                    "indexed": true,
                    "internalType": "address",
                    "name": "from",
                    "type": "address"
                },
                {
                    "indexed": true,
                    "internalType": "address",
                    "name": "to",
                    "type": "address"
                },
                {
                    "indexed": true,
                    "internalType": "uint256",
                    "name": "tokenId",
                    "type": "uint256"
                }
            ],
            "name": "Transfer",
            "type": "event"
        },
        {
            "inputs": [],
            "name": "DEFAULT_ADMIN_ROLE",
            "outputs": [
                {
                    "internalType": "bytes32",
                    "name": "",
                    "type": "bytes32"
                }
            ],
            "stateMutability": "view",
            "type": "function"
        },
        {
            "inputs": [
                {
                    "internalType": "address",
                    "name": "to",
                    "type": "address"
                },
                {
                    "internalType": "uint256",
                    "name": "tokenId",
                    "type": "uint256"
                }
            ],
            "name": "approve",
            "outputs": [],
            "stateMutability": "nonpayable",
            "type": "function"
        },
        {
            "inputs": [
                {
                    "internalType": "address",
                    "name": "owner",
                    "type": "address"
                }
            ],
            "name": "balanceOf",
            "outputs": [
                {
                    "internalType": "uint256",
                    "name": "",
                    "type": "uint256"
                }
            ],
            "stateMutability": "view",
            "type": "function"
        },
        {
            "inputs": [
                {
                    "internalType": "uint256",
                    "name": "tokenId",
                    "type": "uint256"
                }
            ],
            "name": "burn",
            "outputs": [],
            "stateMutability": "nonpayable",
            "type": "function"
        },
        {
            "inputs": [
                {
                    "internalType": "uint256",
                    "name": "tokenId",
                    "type": "uint256"
                }
            ],
            "name": "getApproved",
            "outputs": [
                {
                    "internalType": "address",
                    "name": "",
                    "type": "address"
                }
            ],
            "stateMutability": "view",
            "type": "function"
        },
        {
            "inputs": [
                {
                    "internalType": "bytes32",
                    "name": "role",
                    "type": "bytes32"
                }
            ],
            "name": "getRoleAdmin",
            "outputs": [
                {
                    "internalType": "bytes32",
                    "name": "",
                    "type": "bytes32"
                }
            ],
            "stateMutability": "view",
            "type": "function"
        },
        {
            "inputs": [
                {
                    "internalType": "bytes32",
                    "name": "role",
                    "type": "bytes32"
                },
                {
                    "internalType": "address",
                    "name": "account",
                    "type": "address"
                }
            ],
            "name": "grantRole",
            "outputs": [],
            "stateMutability": "nonpayable",
            "type": "function"
        },
        {
            "inputs": [
                {
                    "internalType": "bytes32",
                    "name": "role",
                    "type": "bytes32"
                },
                {
                    "internalType": "address",
                    "name": "account",
                    "type": "address"
                }
            ],
            "name": "hasRole",
            "outputs": [
                {
                    "internalType": "bool",
                    "name": "",
                    "type": "bool"
                }
            ],
            "stateMutability": "view",
            "type": "function"
        },
        {
            "inputs": [
                {
                    "internalType": "address",
                    "name": "owner",
                    "type": "address"
                },
                {
                    "internalType": "address",
                    "name": "operator",
                    "type": "address"
                }
            ],
            "name": "isApprovedForAll",
            "outputs": [
                {
                    "internalType": "bool",
                    "name": "",
                    "type": "bool"
                }
            ],
            "stateMutability": "view",
            "type": "function"
        },
        {
            "inputs": [],
            "name": "mint",
            "outputs": [],
            "stateMutability": "nonpayable",
            "type": "function"
        },
        {
            "inputs": [],
            "name": "name",
            "outputs": [
                {
                    "internalType": "string",
                    "name": "",
                    "type": "string"
                }
            ],
            "stateMutability": "view",
            "type": "function"
        },
        {
            "inputs": [
                {
                    "internalType": "uint256",
                    "name": "tokenId",
                    "type": "uint256"
                }
            ],
            "name": "ownerOf",
            "outputs": [
                {
                    "internalType": "address",
                    "name": "",
                    "type": "address"
                }
            ],
            "stateMutability": "view",
            "type": "function"
        },
        {
            "inputs": [
                {
                    "internalType": "bytes32",
                    "name": "role",
                    "type": "bytes32"
                },
                {
                    "internalType": "address",
                    "name": "account",
                    "type": "address"
                }
            ],
            "name": "renounceRole",
            "outputs": [],
            "stateMutability": "nonpayable",
            "type": "function"
        },
        {
            "inputs": [
                {
                    "internalType": "bytes32",
                    "name": "role",
                    "type": "bytes32"
                },
                {
                    "internalType": "address",
                    "name": "account",
                    "type": "address"
                }
            ],
            "name": "revokeRole",
            "outputs": [],
            "stateMutability": "nonpayable",
            "type": "function"
        },
        {
            "inputs": [
                {
                    "internalType": "address",
                    "name": "to",
                    "type": "address"
                }
            ],
            "name": "safeMint",
            "outputs": [],
            "stateMutability": "nonpayable",
            "type": "function"
        },
        {
            "inputs": [
                {
                    "internalType": "address",
                    "name": "from",
                    "type": "address"
                },
                {
                    "internalType": "address",
                    "name": "to",
                    "type": "address"
                },
                {
                    "internalType": "uint256",
                    "name": "tokenId",
                    "type": "uint256"
                }
            ],
            "name": "safeTransferFrom",
            "outputs": [],
            "stateMutability": "nonpayable",
            "type": "function"
        },
        {
            "inputs": [
                {
                    "internalType": "address",
                    "name": "from",
                    "type": "address"
                },
                {
                    "internalType": "address",
                    "name": "to",
                    "type": "address"
                },
                {
                    "internalType": "uint256",
                    "name": "tokenId",
                    "type": "uint256"
                },
                {
                    "internalType": "bytes",
                    "name": "data",
                    "type": "bytes"
                }
            ],
            "name": "safeTransferFrom",
            "outputs": [],
            "stateMutability": "nonpayable",
            "type": "function"
        },
        {
            "inputs": [
                {
                    "internalType": "address",
                    "name": "operator",
                    "type": "address"
                },
                {
                    "internalType": "bool",
                    "name": "approved",
                    "type": "bool"
                }
            ],
            "name": "setApprovalForAll",
            "outputs": [],
            "stateMutability": "nonpayable",
            "type": "function"
        },
        {
            "inputs": [
                {
                    "internalType": "bytes4",
                    "name": "interfaceId",
                    "type": "bytes4"
                }
            ],
            "name": "supportsInterface",
            "outputs": [
                {
                    "internalType": "bool",
                    "name": "",
                    "type": "bool"
                }
            ],
            "stateMutability": "view",
            "type": "function"
        },
        {
            "inputs": [],
            "name": "symbol",
            "outputs": [
                {
                    "internalType": "string",
                    "name": "",
                    "type": "string"
                }
            ],
            "stateMutability": "view",
            "type": "function"
        },
        {
            "inputs": [
                {
                    "internalType": "uint256",
                    "name": "index",
                    "type": "uint256"
                }
            ],
            "name": "tokenByIndex",
            "outputs": [
                {
                    "internalType": "uint256",
                    "name": "",
                    "type": "uint256"
                }
            ],
            "stateMutability": "view",
            "type": "function"
        },
        {
            "inputs": [
                {
                    "internalType": "address",
                    "name": "owner",
                    "type": "address"
                },
                {
                    "internalType": "uint256",
                    "name": "index",
                    "type": "uint256"
                }
            ],
            "name": "tokenOfOwnerByIndex",
            "outputs": [
                {
                    "internalType": "uint256",
                    "name": "",
                    "type": "uint256"
                }
            ],
            "stateMutability": "view",
            "type": "function"
        },
        {
            "inputs": [
                {
                    "internalType": "uint256",
                    "name": "tokenId",
                    "type": "uint256"
                }
            ],
            "name": "tokenURI",
            "outputs": [
                {
                    "internalType": "string",
                    "name": "",
                    "type": "string"
                }
            ],
            "stateMutability": "view",
            "type": "function"
        },
        {
            "inputs": [],
            "name": "totalSupply",
            "outputs": [
                {
                    "internalType": "uint256",
                    "name": "",
                    "type": "uint256"
                }
            ],
            "stateMutability": "view",
            "type": "function"
        },
        {
            "inputs": [
                {
                    "internalType": "address",
                    "name": "from",
                    "type": "address"
                },
                {
                    "internalType": "address",
                    "name": "to",
                    "type": "address"
                },
                {
                    "internalType": "uint256",
                    "name": "tokenId",
                    "type": "uint256"
                }
            ],
            "name": "transferFrom",
            "outputs": [],
            "stateMutability": "nonpayable",
            "type": "function"
        }
    ],
    "bytecode": "0x60806040526064600c60006101000a81548161ffff021916908361ffff1602179055503480156200002f57600080fd5b506040518060400160405280600581526020017f4d794e46540000000000000000000000000000000000000000000000000000008152506040518060400160405280600481526020017f4d4e4654000000000000000000000000000000000000000000000000000000008152508160009081620000ad9190620004bc565b508060019081620000bf9190620004bc565b505050620000d76000801b33620000dd60201b60201c565b620005a3565b620000ef8282620001cf60201b60201c565b620001cb576001600a600084815260200190815260200160002060000160008373ffffffffffffffffffffffffffffffffffffffff1673ffffffffffffffffffffffffffffffffffffffff16815260200190815260200160002060006101000a81548160ff021916908315150217905550620001706200023a60201b60201c565b73ffffffffffffffffffffffffffffffffffffffff168173ffffffffffffffffffffffffffffffffffffffff16837f2f8788117e7eff1d82e926ec794901d17c78024a50270940304540a733656f0d60405160405180910390a45b5050565b6000600a600084815260200190815260200160002060000160008373ffffffffffffffffffffffffffffffffffffffff1673ffffffffffffffffffffffffffffffffffffffff16815260200190815260200160002060009054906101000a900460ff16905092915050565b600033905090565b600081519050919050565b7f4e487b7100000000000000000000000000000000000000000000000000000000600052604160045260246000fd5b7f4e487b7100000000000000000000000000000000000000000000000000000000600052602260045260246000fd5b60006002820490506001821680620002c457607f821691505b602082108103620002da57620002d96200027c565b5b50919050565b60008190508160005260206000209050919050565b60006020601f8301049050919050565b600082821b905092915050565b600060088302620003447fffffffffffffffffffffffffffffffffffffffffffffffffffffffffffffffff8262000305565b62000350868362000305565b95508019841693508086168417925050509392505050565b6000819050919050565b6000819050919050565b60006200039d62000397620003918462000368565b62000372565b62000368565b9050919050565b6000819050919050565b620003b9836200037c565b620003d1620003c882620003a4565b84845462000312565b825550505050565b600090565b620003e8620003d9565b620003f5818484620003ae565b505050565b5b818110156200041d5762000411600082620003de565b600181019050620003fb565b5050565b601f8211156200046c576200043681620002e0565b6200044184620002f5565b8101602085101562000451578190505b620004696200046085620002f5565b830182620003fa565b50505b505050565b600082821c905092915050565b6000620004916000198460080262000471565b1980831691505092915050565b6000620004ac83836200047e565b9150826002028217905092915050565b620004c78262000242565b67ffffffffffffffff811115620004e357620004e26200024d565b5b620004ef8254620002ab565b620004fc82828562000421565b600060209050601f8311600181146200053457600084156200051f578287015190505b6200052b85826200049e565b8655506200059b565b601f1984166200054486620002e0565b60005b828110156200056e5784890151825560018201915060208501945060208101905062000547565b868310156200058e57848901516200058a601f8916826200047e565b8355505b6001600288020188555050505b505050505050565b613a9a80620005b36000396000f3fe608060405234801561001057600080fd5b50600436106101735760003560e01c806342842e0e116100de57806395d89b4111610097578063b88d4fde11610071578063b88d4fde1461045a578063c87b56dd14610476578063d547741f146104a6578063e985e9c5146104c257610173565b806395d89b4114610402578063a217fddf14610420578063a22cb4651461043e57610173565b806342842e0e1461030a57806342966c68146103265780634f6ccce7146103425780636352211e1461037257806370a08231146103a257806391d14854146103d257610173565b806323b872dd1161013057806323b872dd1461023a578063248a9ca3146102565780632f2ff15d146102865780632f745c59146102a257806336568abe146102d257806340d097c3146102ee57610173565b806301ffc9a71461017857806306fdde03146101a8578063081812fc146101c6578063095ea7b3146101f65780631249c58b1461021257806318160ddd1461021c575b600080fd5b610192600480360381019061018d9190612739565b6104f2565b60405161019f9190612781565b60405180910390f35b6101b0610504565b6040516101bd919061282c565b60405180910390f35b6101e060048036038101906101db9190612884565b610596565b6040516101ed91906128f2565b60405180910390f35b610210600480360381019061020b9190612939565b6105dc565b005b61021a6106f3565b005b61022461076e565b6040516102319190612988565b60405180910390f35b610254600480360381019061024f91906129a3565b61077b565b005b610270600480360381019061026b9190612a2c565b6107db565b60405161027d9190612a68565b60405180910390f35b6102a0600480360381019061029b9190612a83565b6107fb565b005b6102bc60048036038101906102b79190612939565b61081c565b6040516102c99190612988565b60405180910390f35b6102ec60048036038101906102e79190612a83565b6108c1565b005b61030860048036038101906103039190612ac3565b610944565b005b610324600480360381019061031f91906129a3565b6109ce565b005b610340600480360381019061033b9190612884565b6109ee565b005b61035c60048036038101906103579190612884565b610a4a565b6040516103699190612988565b60405180910390f35b61038c60048036038101906103879190612884565b610abb565b60405161039991906128f2565b60405180910390f35b6103bc60048036038101906103b79190612ac3565b610b6c565b6040516103c99190612988565b60405180910390f35b6103ec60048036038101906103e79190612a83565b610c23565b6040516103f99190612781565b60405180910390f35b61040a610c8e565b604051610417919061282c565b60405180910390f35b610428610d20565b6040516104359190612a68565b60405180910390f35b61045860048036038101906104539190612b1c565b610d27565b005b610474600480360381019061046f9190612c91565b610d3d565b005b610490600480360381019061048b9190612884565b610d9f565b60405161049d919061282c565b60405180910390f35b6104c060048036038101906104bb9190612a83565b610e07565b005b6104dc60048036038101906104d79190612d14565b610e28565b6040516104e99190612781565b60405180910390f35b60006104fd82610ebc565b9050919050565b60606000805461051390612d83565b80601f016020809104026020016040519081016040528092919081815260200182805461053f90612d83565b801561058c5780601f106105615761010080835404028352916020019161058c565b820191906000526020600020905b81548152906001019060200180831161056f57829003601f168201915b5050505050905090565b60006105a182610f36565b6004600083815260200190815260200160002060009054906101000a900473ffffffffffffffffffffffffffffffffffffffff169050919050565b60006105e782610abb565b90508073ffffffffffffffffffffffffffffffffffffffff168373ffffffffffffffffffffffffffffffffffffffff1603610657576040517f08c379a000000000000000000000000000000000000000000000000000000000815260040161064e90612e26565b60405180910390fd5b8073ffffffffffffffffffffffffffffffffffffffff16610676610f81565b73ffffffffffffffffffffffffffffffffffffffff1614806106a557506106a48161069f610f81565b610e28565b5b6106e4576040517f08c379a00000000000000000000000000000000000000000000000000000000081526004016106db90612eb8565b60405180910390fd5b6106ee8383610f89565b505050565b60006106ff600b611042565b9050600c60009054906101000a900461ffff1661ffff168110610757576040517f08c379a000000000000000000000000000000000000000000000000000000000815260040161074e90612f4a565b60405180910390fd5b610761600b611050565b61076b3382611066565b50565b6000600880549050905090565b61078c610786610f81565b82611084565b6107cb576040517f08c379a00000000000000000000000000000000000000000000000000000000081526004016107c290612fdc565b60405180910390fd5b6107d6838383611119565b505050565b6000600a6000838152602001908152602001600020600101549050919050565b610804826107db565b61080d8161137f565b6108178383611393565b505050565b600061082783610b6c565b8210610868576040517f08c379a000000000000000000000000000000000000000000000000000000000815260040161085f9061306e565b60405180910390fd5b600660008473ffffffffffffffffffffffffffffffffffffffff1673ffffffffffffffffffffffffffffffffffffffff168152602001908152602001600020600083815260200190815260200160002054905092915050565b6108c9610f81565b73ffffffffffffffffffffffffffffffffffffffff168173ffffffffffffffffffffffffffffffffffffffff1614610936576040517f08c379a000000000000000000000000000000000000000000000000000000000815260040161092d90613100565b60405180910390fd5b6109408282611474565b5050565b6000801b6109518161137f565b600061095d600b611042565b9050600c60009054906101000a900461ffff1661ffff1681106109b5576040517f08c379a00000000000000000000000000000000000000000000000000000000081526004016109ac90612f4a565b60405180910390fd5b6109bf600b611050565b6109c98382611066565b505050565b6109e983838360405180602001604052806000815250610d3d565b505050565b6109ff6109f9610f81565b82611084565b610a3e576040517f08c379a0000000000000000000000000000000000000000000000000000000008152600401610a3590612fdc565b60405180910390fd5b610a4781611556565b50565b6000610a5461076e565b8210610a95576040517f08c379a0000000000000000000000000000000000000000000000000000000008152600401610a8c90613192565b60405180910390fd5b60088281548110610aa957610aa86131b2565b5b90600052602060002001549050919050565b6000806002600084815260200190815260200160002060009054906101000a900473ffffffffffffffffffffffffffffffffffffffff169050600073ffffffffffffffffffffffffffffffffffffffff168173ffffffffffffffffffffffffffffffffffffffff1603610b63576040517f08c379a0000000000000000000000000000000000000000000000000000000008152600401610b5a9061322d565b60405180910390fd5b80915050919050565b60008073ffffffffffffffffffffffffffffffffffffffff168273ffffffffffffffffffffffffffffffffffffffff1603610bdc576040517f08c379a0000000000000000000000000000000000000000000000000000000008152600401610bd3906132bf565b60405180910390fd5b600360008373ffffffffffffffffffffffffffffffffffffffff1673ffffffffffffffffffffffffffffffffffffffff168152602001908152602001600020549050919050565b6000600a600084815260200190815260200160002060000160008373ffffffffffffffffffffffffffffffffffffffff1673ffffffffffffffffffffffffffffffffffffffff16815260200190815260200160002060009054906101000a900460ff16905092915050565b606060018054610c9d90612d83565b80601f0160208091040260200160405190810160405280929190818152602001828054610cc990612d83565b8015610d165780601f10610ceb57610100808354040283529160200191610d16565b820191906000526020600020905b815481529060010190602001808311610cf957829003601f168201915b5050505050905090565b6000801b81565b610d39610d32610f81565b8383611673565b5050565b610d4e610d48610f81565b83611084565b610d8d576040517f08c379a0000000000000000000000000000000000000000000000000000000008152600401610d8490612fdc565b60405180910390fd5b610d99848484846117df565b50505050565b6060610daa82610f36565b6000610db461183b565b90506000815111610dd45760405180602001604052806000815250610dff565b80610dde84611852565b604051602001610def92919061331b565b6040516020818303038152906040525b915050919050565b610e10826107db565b610e198161137f565b610e238383611474565b505050565b6000600560008473ffffffffffffffffffffffffffffffffffffffff1673ffffffffffffffffffffffffffffffffffffffff16815260200190815260200160002060008373ffffffffffffffffffffffffffffffffffffffff1673ffffffffffffffffffffffffffffffffffffffff16815260200190815260200160002060009054906101000a900460ff16905092915050565b60007f7965db0b000000000000000000000000000000000000000000000000000000007bffffffffffffffffffffffffffffffffffffffffffffffffffffffff1916827bffffffffffffffffffffffffffffffffffffffffffffffffffffffff19161480610f2f5750610f2e826119b2565b5b9050919050565b610f3f81611a2c565b610f7e576040517f08c379a0000000000000000000000000000000000000000000000000000000008152600401610f759061322d565b60405180910390fd5b50565b600033905090565b816004600083815260200190815260200160002060006101000a81548173ffffffffffffffffffffffffffffffffffffffff021916908373ffffffffffffffffffffffffffffffffffffffff160217905550808273ffffffffffffffffffffffffffffffffffffffff16610ffc83610abb565b73ffffffffffffffffffffffffffffffffffffffff167f8c5be1e5ebec7d5bd14f71427d1e84f3dd0314c0f7b2291e5b200ac8c7c3b92560405160405180910390a45050565b600081600001549050919050565b6001816000016000828254019250508190555050565b611080828260405180602001604052806000815250611a98565b5050565b60008061109083610abb565b90508073ffffffffffffffffffffffffffffffffffffffff168473ffffffffffffffffffffffffffffffffffffffff1614806110d257506110d18185610e28565b5b8061111057508373ffffffffffffffffffffffffffffffffffffffff166110f884610596565b73ffffffffffffffffffffffffffffffffffffffff16145b91505092915050565b8273ffffffffffffffffffffffffffffffffffffffff1661113982610abb565b73ffffffffffffffffffffffffffffffffffffffff161461118f576040517f08c379a0000000000000000000000000000000000000000000000000000000008152600401611186906133b1565b60405180910390fd5b600073ffffffffffffffffffffffffffffffffffffffff168273ffffffffffffffffffffffffffffffffffffffff16036111fe576040517f08c379a00000000000000000000000000000000000000000000000000000000081526004016111f590613443565b60405180910390fd5b611209838383611af3565b611214600082610f89565b6001600360008573ffffffffffffffffffffffffffffffffffffffff1673ffffffffffffffffffffffffffffffffffffffff16815260200190815260200160002060008282546112649190613492565b925050819055506001600360008473ffffffffffffffffffffffffffffffffffffffff1673ffffffffffffffffffffffffffffffffffffffff16815260200190815260200160002060008282546112bb91906134c6565b92505081905550816002600083815260200190815260200160002060006101000a81548173ffffffffffffffffffffffffffffffffffffffff021916908373ffffffffffffffffffffffffffffffffffffffff160217905550808273ffffffffffffffffffffffffffffffffffffffff168473ffffffffffffffffffffffffffffffffffffffff167fddf252ad1be2c89b69c2b068fc378daa952ba7f163c4a11628f55a4df523b3ef60405160405180910390a461137a838383611b03565b505050565b6113908161138b610f81565b611b08565b50565b61139d8282610c23565b611470576001600a600084815260200190815260200160002060000160008373ffffffffffffffffffffffffffffffffffffffff1673ffffffffffffffffffffffffffffffffffffffff16815260200190815260200160002060006101000a81548160ff021916908315150217905550611415610f81565b73ffffffffffffffffffffffffffffffffffffffff168173ffffffffffffffffffffffffffffffffffffffff16837f2f8788117e7eff1d82e926ec794901d17c78024a50270940304540a733656f0d60405160405180910390a45b5050565b61147e8282610c23565b15611552576000600a600084815260200190815260200160002060000160008373ffffffffffffffffffffffffffffffffffffffff1673ffffffffffffffffffffffffffffffffffffffff16815260200190815260200160002060006101000a81548160ff0219169083151502179055506114f7610f81565b73ffffffffffffffffffffffffffffffffffffffff168173ffffffffffffffffffffffffffffffffffffffff16837ff6391f5c32d9c69d2a47ea670b442974b53935d1edc7fd64eb21e047a839171b60405160405180910390a45b5050565b600061156182610abb565b905061156f81600084611af3565b61157a600083610f89565b6001600360008373ffffffffffffffffffffffffffffffffffffffff1673ffffffffffffffffffffffffffffffffffffffff16815260200190815260200160002060008282546115ca9190613492565b925050819055506002600083815260200190815260200160002060006101000a81549073ffffffffffffffffffffffffffffffffffffffff021916905581600073ffffffffffffffffffffffffffffffffffffffff168273ffffffffffffffffffffffffffffffffffffffff167fddf252ad1be2c89b69c2b068fc378daa952ba7f163c4a11628f55a4df523b3ef60405160405180910390a461166f81600084611b03565b5050565b8173ffffffffffffffffffffffffffffffffffffffff168373ffffffffffffffffffffffffffffffffffffffff16036116e1576040517f08c379a00000000000000000000000000000000000000000000000000000000081526004016116d890613546565b60405180910390fd5b80600560008573ffffffffffffffffffffffffffffffffffffffff1673ffffffffffffffffffffffffffffffffffffffff16815260200190815260200160002060008473ffffffffffffffffffffffffffffffffffffffff1673ffffffffffffffffffffffffffffffffffffffff16815260200190815260200160002060006101000a81548160ff0219169083151502179055508173ffffffffffffffffffffffffffffffffffffffff168373ffffffffffffffffffffffffffffffffffffffff167f17307eab39ab6107e8899845ad3d59bd9653f200f220920489ca2b5937696c31836040516117d29190612781565b60405180910390a3505050565b6117ea848484611119565b6117f684848484611ba5565b611835576040517f08c379a000000000000000000000000000000000000000000000000000000000815260040161182c906135d8565b60405180910390fd5b50505050565b606060405180602001604052806000815250905090565b606060008203611899576040518060400160405280600181526020017f300000000000000000000000000000000000000000000000000000000000000081525090506119ad565b600082905060005b600082146118cb5780806118b4906135f8565b915050600a826118c4919061366f565b91506118a1565b60008167ffffffffffffffff8111156118e7576118e6612b66565b5b6040519080825280601f01601f1916602001820160405280156119195781602001600182028036833780820191505090505b5090505b600085146119a6576001826119329190613492565b9150600a8561194191906136a0565b603061194d91906134c6565b60f81b818381518110611963576119626131b2565b5b60200101907effffffffffffffffffffffffffffffffffffffffffffffffffffffffffffff1916908160001a905350600a8561199f919061366f565b945061191d565b8093505050505b919050565b60007f780e9d63000000000000000000000000000000000000000000000000000000007bffffffffffffffffffffffffffffffffffffffffffffffffffffffff1916827bffffffffffffffffffffffffffffffffffffffffffffffffffffffff19161480611a255750611a2482611d2c565b5b9050919050565b60008073ffffffffffffffffffffffffffffffffffffffff166002600084815260200190815260200160002060009054906101000a900473ffffffffffffffffffffffffffffffffffffffff1673ffffffffffffffffffffffffffffffffffffffff1614159050919050565b611aa28383611e0e565b611aaf6000848484611ba5565b611aee576040517f08c379a0000000000000000000000000000000000000000000000000000000008152600401611ae5906135d8565b60405180910390fd5b505050565b611afe838383611fe7565b505050565b505050565b611b128282610c23565b611ba157611b378173ffffffffffffffffffffffffffffffffffffffff1660146120f9565b611b458360001c60206120f9565b604051602001611b56929190613769565b6040516020818303038152906040526040517f08c379a0000000000000000000000000000000000000000000000000000000008152600401611b98919061282c565b60405180910390fd5b5050565b6000611bc68473ffffffffffffffffffffffffffffffffffffffff16612335565b15611d1f578373ffffffffffffffffffffffffffffffffffffffff1663150b7a02611bef610f81565b8786866040518563ffffffff1660e01b8152600401611c1194939291906137f8565b6020604051808303816000875af1925050508015611c4d57506040513d601f19601f82011682018060405250810190611c4a9190613859565b60015b611ccf573d8060008114611c7d576040519150601f19603f3d011682016040523d82523d6000602084013e611c82565b606091505b506000815103611cc7576040517f08c379a0000000000000000000000000000000000000000000000000000000008152600401611cbe906135d8565b60405180910390fd5b805181602001fd5b63150b7a0260e01b7bffffffffffffffffffffffffffffffffffffffffffffffffffffffff1916817bffffffffffffffffffffffffffffffffffffffffffffffffffffffff191614915050611d24565b600190505b949350505050565b60007f80ac58cd000000000000000000000000000000000000000000000000000000007bffffffffffffffffffffffffffffffffffffffffffffffffffffffff1916827bffffffffffffffffffffffffffffffffffffffffffffffffffffffff19161480611df757507f5b5e139f000000000000000000000000000000000000000000000000000000007bffffffffffffffffffffffffffffffffffffffffffffffffffffffff1916827bffffffffffffffffffffffffffffffffffffffffffffffffffffffff1916145b80611e075750611e0682612358565b5b9050919050565b600073ffffffffffffffffffffffffffffffffffffffff168273ffffffffffffffffffffffffffffffffffffffff1603611e7d576040517f08c379a0000000000000000000000000000000000000000000000000000000008152600401611e74906138d2565b60405180910390fd5b611e8681611a2c565b15611ec6576040517f08c379a0000000000000000000000000000000000000000000000000000000008152600401611ebd9061393e565b60405180910390fd5b611ed260008383611af3565b6001600360008473ffffffffffffffffffffffffffffffffffffffff1673ffffffffffffffffffffffffffffffffffffffff1681526020019081526020016000206000828254611f2291906134c6565b92505081905550816002600083815260200190815260200160002060006101000a81548173ffffffffffffffffffffffffffffffffffffffff021916908373ffffffffffffffffffffffffffffffffffffffff160217905550808273ffffffffffffffffffffffffffffffffffffffff16600073ffffffffffffffffffffffffffffffffffffffff167fddf252ad1be2c89b69c2b068fc378daa952ba7f163c4a11628f55a4df523b3ef60405160405180910390a4611fe360008383611b03565b5050565b611ff28383836123c2565b600073ffffffffffffffffffffffffffffffffffffffff168373ffffffffffffffffffffffffffffffffffffffff16036120345761202f816123c7565b612073565b8173ffffffffffffffffffffffffffffffffffffffff168373ffffffffffffffffffffffffffffffffffffffff1614612072576120718382612410565b5b5b600073ffffffffffffffffffffffffffffffffffffffff168273ffffffffffffffffffffffffffffffffffffffff16036120b5576120b08161257d565b6120f4565b8273ffffffffffffffffffffffffffffffffffffffff168273ffffffffffffffffffffffffffffffffffffffff16146120f3576120f2828261264e565b5b5b505050565b60606000600283600261210c919061395e565b61211691906134c6565b67ffffffffffffffff81111561212f5761212e612b66565b5b6040519080825280601f01601f1916602001820160405280156121615781602001600182028036833780820191505090505b5090507f300000000000000000000000000000000000000000000000000000000000000081600081518110612199576121986131b2565b5b60200101907effffffffffffffffffffffffffffffffffffffffffffffffffffffffffffff1916908160001a9053507f7800000000000000000000000000000000000000000000000000000000000000816001815181106121fd576121fc6131b2565b5b60200101907effffffffffffffffffffffffffffffffffffffffffffffffffffffffffffff1916908160001a9053506000600184600261223d919061395e565b61224791906134c6565b90505b60018111156122e7577f3031323334353637383961626364656600000000000000000000000000000000600f861660108110612289576122886131b2565b5b1a60f81b8282815181106122a05761229f6131b2565b5b60200101907effffffffffffffffffffffffffffffffffffffffffffffffffffffffffffff1916908160001a905350600485901c9450806122e0906139a0565b905061224a565b506000841461232b576040517f08c379a000000000000000000000000000000000000000000000000000000000815260040161232290613a15565b60405180910390fd5b8091505092915050565b6000808273ffffffffffffffffffffffffffffffffffffffff163b119050919050565b60007f01ffc9a7000000000000000000000000000000000000000000000000000000007bffffffffffffffffffffffffffffffffffffffffffffffffffffffff1916827bffffffffffffffffffffffffffffffffffffffffffffffffffffffff1916149050919050565b505050565b6008805490506009600083815260200190815260200160002081905550600881908060018154018082558091505060019003906000526020600020016000909190919091505550565b6000600161241d84610b6c565b6124279190613492565b905060006007600084815260200190815260200160002054905081811461250c576000600660008673ffffffffffffffffffffffffffffffffffffffff1673ffffffffffffffffffffffffffffffffffffffff168152602001908152602001600020600084815260200190815260200160002054905080600660008773ffffffffffffffffffffffffffffffffffffffff1673ffffffffffffffffffffffffffffffffffffffff168152602001908152602001600020600084815260200190815260200160002081905550816007600083815260200190815260200160002081905550505b6007600084815260200190815260200160002060009055600660008573ffffffffffffffffffffffffffffffffffffffff1673ffffffffffffffffffffffffffffffffffffffff16815260200190815260200160002060008381526020019081526020016000206000905550505050565b600060016008805490506125919190613492565b90506000600960008481526020019081526020016000205490506000600883815481106125c1576125c06131b2565b5b9060005260206000200154905080600883815481106125e3576125e26131b2565b5b90600052602060002001819055508160096000838152602001908152602001600020819055506009600085815260200190815260200160002060009055600880548061263257612631613a35565b5b6001900381819060005260206000200160009055905550505050565b600061265983610b6c565b905081600660008573ffffffffffffffffffffffffffffffffffffffff1673ffffffffffffffffffffffffffffffffffffffff168152602001908152602001600020600083815260200190815260200160002081905550806007600084815260200190815260200160002081905550505050565b6000604051905090565b600080fd5b600080fd5b60007fffffffff0000000000000000000000000000000000000000000000000000000082169050919050565b612716816126e1565b811461272157600080fd5b50565b6000813590506127338161270d565b92915050565b60006020828403121561274f5761274e6126d7565b5b600061275d84828501612724565b91505092915050565b60008115159050919050565b61277b81612766565b82525050565b60006020820190506127966000830184612772565b92915050565b600081519050919050565b600082825260208201905092915050565b60005b838110156127d65780820151818401526020810190506127bb565b60008484015250505050565b6000601f19601f8301169050919050565b60006127fe8261279c565b61280881856127a7565b93506128188185602086016127b8565b612821816127e2565b840191505092915050565b6000602082019050818103600083015261284681846127f3565b905092915050565b6000819050919050565b6128618161284e565b811461286c57600080fd5b50565b60008135905061287e81612858565b92915050565b60006020828403121561289a576128996126d7565b5b60006128a88482850161286f565b91505092915050565b600073ffffffffffffffffffffffffffffffffffffffff82169050919050565b60006128dc826128b1565b9050919050565b6128ec816128d1565b82525050565b600060208201905061290760008301846128e3565b92915050565b612916816128d1565b811461292157600080fd5b50565b6000813590506129338161290d565b92915050565b600080604083850312156129505761294f6126d7565b5b600061295e85828601612924565b925050602061296f8582860161286f565b9150509250929050565b6129828161284e565b82525050565b600060208201905061299d6000830184612979565b92915050565b6000806000606084860312156129bc576129bb6126d7565b5b60006129ca86828701612924565b93505060206129db86828701612924565b92505060406129ec8682870161286f565b9150509250925092565b6000819050919050565b612a09816129f6565b8114612a1457600080fd5b50565b600081359050612a2681612a00565b92915050565b600060208284031215612a4257612a416126d7565b5b6000612a5084828501612a17565b91505092915050565b612a62816129f6565b82525050565b6000602082019050612a7d6000830184612a59565b92915050565b60008060408385031215612a9a57612a996126d7565b5b6000612aa885828601612a17565b9250506020612ab985828601612924565b9150509250929050565b600060208284031215612ad957612ad86126d7565b5b6000612ae784828501612924565b91505092915050565b612af981612766565b8114612b0457600080fd5b50565b600081359050612b1681612af0565b92915050565b60008060408385031215612b3357612b326126d7565b5b6000612b4185828601612924565b9250506020612b5285828601612b07565b9150509250929050565b600080fd5b600080fd5b7f4e487b7100000000000000000000000000000000000000000000000000000000600052604160045260246000fd5b612b9e826127e2565b810181811067ffffffffffffffff82111715612bbd57612bbc612b66565b5b80604052505050565b6000612bd06126cd565b9050612bdc8282612b95565b919050565b600067ffffffffffffffff821115612bfc57612bfb612b66565b5b612c05826127e2565b9050602081019050919050565b82818337600083830152505050565b6000612c34612c2f84612be1565b612bc6565b905082815260208101848484011115612c5057612c4f612b61565b5b612c5b848285612c12565b509392505050565b600082601f830112612c7857612c77612b5c565b5b8135612c88848260208601612c21565b91505092915050565b60008060008060808587031215612cab57612caa6126d7565b5b6000612cb987828801612924565b9450506020612cca87828801612924565b9350506040612cdb8782880161286f565b925050606085013567ffffffffffffffff811115612cfc57612cfb6126dc565b5b612d0887828801612c63565b91505092959194509250565b60008060408385031215612d2b57612d2a6126d7565b5b6000612d3985828601612924565b9250506020612d4a85828601612924565b9150509250929050565b7f4e487b7100000000000000000000000000000000000000000000000000000000600052602260045260246000fd5b60006002820490506001821680612d9b57607f821691505b602082108103612dae57612dad612d54565b5b50919050565b7f4552433732313a20617070726f76616c20746f2063757272656e74206f776e6560008201527f7200000000000000000000000000000000000000000000000000000000000000602082015250565b6000612e106021836127a7565b9150612e1b82612db4565b604082019050919050565b60006020820190508181036000830152612e3f81612e03565b9050919050565b7f4552433732313a20617070726f76652063616c6c6572206973206e6f7420746f60008201527f6b656e206f776e6572206e6f7220617070726f76656420666f7220616c6c0000602082015250565b6000612ea2603e836127a7565b9150612ead82612e46565b604082019050919050565b60006020820190508181036000830152612ed181612e95565b9050919050565b7f4d6178204d696e74732061636869657665642c2063616e74206d696e74206d6f60008201527f7265000000000000000000000000000000000000000000000000000000000000602082015250565b6000612f346022836127a7565b9150612f3f82612ed8565b604082019050919050565b60006020820190508181036000830152612f6381612f27565b9050919050565b7f4552433732313a2063616c6c6572206973206e6f7420746f6b656e206f776e6560008201527f72206e6f7220617070726f766564000000000000000000000000000000000000602082015250565b6000612fc6602e836127a7565b9150612fd182612f6a565b604082019050919050565b60006020820190508181036000830152612ff581612fb9565b9050919050565b7f455243373231456e756d657261626c653a206f776e657220696e646578206f7560008201527f74206f6620626f756e6473000000000000000000000000000000000000000000602082015250565b6000613058602b836127a7565b915061306382612ffc565b604082019050919050565b600060208201905081810360008301526130878161304b565b9050919050565b7f416363657373436f6e74726f6c3a2063616e206f6e6c792072656e6f756e636560008201527f20726f6c657320666f722073656c660000000000000000000000000000000000602082015250565b60006130ea602f836127a7565b91506130f58261308e565b604082019050919050565b60006020820190508181036000830152613119816130dd565b9050919050565b7f455243373231456e756d657261626c653a20676c6f62616c20696e646578206f60008201527f7574206f6620626f756e64730000000000000000000000000000000000000000602082015250565b600061317c602c836127a7565b915061318782613120565b604082019050919050565b600060208201905081810360008301526131ab8161316f565b9050919050565b7f4e487b7100000000000000000000000000000000000000000000000000000000600052603260045260246000fd5b7f4552433732313a20696e76616c696420746f6b656e2049440000000000000000600082015250565b60006132176018836127a7565b9150613222826131e1565b602082019050919050565b600060208201905081810360008301526132468161320a565b9050919050565b7f4552433732313a2061646472657373207a65726f206973206e6f74206120766160008201527f6c6964206f776e65720000000000000000000000000000000000000000000000602082015250565b60006132a96029836127a7565b91506132b48261324d565b604082019050919050565b600060208201905081810360008301526132d88161329c565b9050919050565b600081905092915050565b60006132f58261279c565b6132ff81856132df565b935061330f8185602086016127b8565b80840191505092915050565b600061332782856132ea565b915061333382846132ea565b91508190509392505050565b7f4552433732313a207472616e736665722066726f6d20696e636f72726563742060008201527f6f776e6572000000000000000000000000000000000000000000000000000000602082015250565b600061339b6025836127a7565b91506133a68261333f565b604082019050919050565b600060208201905081810360008301526133ca8161338e565b9050919050565b7f4552433732313a207472616e7366657220746f20746865207a65726f2061646460008201527f7265737300000000000000000000000000000000000000000000000000000000602082015250565b600061342d6024836127a7565b9150613438826133d1565b604082019050919050565b6000602082019050818103600083015261345c81613420565b9050919050565b7f4e487b7100000000000000000000000000000000000000000000000000000000600052601160045260246000fd5b600061349d8261284e565b91506134a88361284e565b92508282039050818111156134c0576134bf613463565b5b92915050565b60006134d18261284e565b91506134dc8361284e565b92508282019050808211156134f4576134f3613463565b5b92915050565b7f4552433732313a20617070726f766520746f2063616c6c657200000000000000600082015250565b60006135306019836127a7565b915061353b826134fa565b602082019050919050565b6000602082019050818103600083015261355f81613523565b9050919050565b7f4552433732313a207472616e7366657220746f206e6f6e20455243373231526560008201527f63656976657220696d706c656d656e7465720000000000000000000000000000602082015250565b60006135c26032836127a7565b91506135cd82613566565b604082019050919050565b600060208201905081810360008301526135f1816135b5565b9050919050565b60006136038261284e565b91507fffffffffffffffffffffffffffffffffffffffffffffffffffffffffffffffff820361363557613634613463565b5b600182019050919050565b7f4e487b7100000000000000000000000000000000000000000000000000000000600052601260045260246000fd5b600061367a8261284e565b91506136858361284e565b92508261369557613694613640565b5b828204905092915050565b60006136ab8261284e565b91506136b68361284e565b9250826136c6576136c5613640565b5b828206905092915050565b7f416363657373436f6e74726f6c3a206163636f756e7420000000000000000000600082015250565b60006137076017836132df565b9150613712826136d1565b601782019050919050565b7f206973206d697373696e6720726f6c6520000000000000000000000000000000600082015250565b60006137536011836132df565b915061375e8261371d565b601182019050919050565b6000613774826136fa565b915061378082856132ea565b915061378b82613746565b915061379782846132ea565b91508190509392505050565b600081519050919050565b600082825260208201905092915050565b60006137ca826137a3565b6137d481856137ae565b93506137e48185602086016127b8565b6137ed816127e2565b840191505092915050565b600060808201905061380d60008301876128e3565b61381a60208301866128e3565b6138276040830185612979565b818103606083015261383981846137bf565b905095945050505050565b6000815190506138538161270d565b92915050565b60006020828403121561386f5761386e6126d7565b5b600061387d84828501613844565b91505092915050565b7f4552433732313a206d696e7420746f20746865207a65726f2061646472657373600082015250565b60006138bc6020836127a7565b91506138c782613886565b602082019050919050565b600060208201905081810360008301526138eb816138af565b9050919050565b7f4552433732313a20746f6b656e20616c7265616479206d696e74656400000000600082015250565b6000613928601c836127a7565b9150613933826138f2565b602082019050919050565b600060208201905081810360008301526139578161391b565b9050919050565b60006139698261284e565b91506139748361284e565b92508282026139828161284e565b9150828204841483151761399957613998613463565b5b5092915050565b60006139ab8261284e565b9150600082036139be576139bd613463565b5b600182039050919050565b7f537472696e67733a20686578206c656e67746820696e73756666696369656e74600082015250565b60006139ff6020836127a7565b9150613a0a826139c9565b602082019050919050565b60006020820190508181036000830152613a2e816139f2565b9050919050565b7f4e487b7100000000000000000000000000000000000000000000000000000000600052603160045260246000fdfea26469706673582212207dc9f53b35e797f6a4384eb727f7fc72284e4beb2c60e7cf9590b26fb503338864736f6c63430008110033",
    "linkReferences": {},
    "deployedLinkReferences": {}
}