{
    "_format": "hh-sol-artifact-1",
    "contractName": "MyNFT",
    "sourceName": "contracts/MyNFT.sol",
    "abi": [
        {
            "inputs": [],
            "stateMutability": "nonpayable",
            "type": "constructor"
        },
        {
            "anonymous": false,
            "inputs": [
                {
                    "indexed": true,
                    "internalType": "address",
                    "name": "owner",
                    "type": "address"
                },
                {
                    "indexed": true,
                    "internalType": "address",
                    "name": "approved",
                    "type": "address"
                },
                {
                    "indexed": true,
                    "internalType": "uint256",
                    "name": "tokenId",
                    "type": "uint256"
                }
            ],
            "name": "Approval",
            "type": "event"
        },
        {
            "anonymous": false,
            "inputs": [
                {
                    "indexed": true,
                    "internalType": "address",
                    "name": "owner",
                    "type": "address"
                },
                {
                    "indexed": true,
                    "internalType": "address",
                    "name": "operator",
                    "type": "address"
                },
                {
                    "indexed": false,
                    "internalType": "bool",
                    "name": "approved",
                    "type": "bool"
                }
            ],
            "name": "ApprovalForAll",
            "type": "event"
        },
        {
            "anonymous": false,
            "inputs": [
                {
                    "indexed": true,
                    "internalType": "bytes32",
                    "name": "role",
                    "type": "bytes32"
                },
                {
                    "indexed": true,
                    "internalType": "bytes32",
                    "name": "previousAdminRole",
                    "type": "bytes32"
                },
                {
                    "indexed": true,
                    "internalType": "bytes32",
                    "name": "newAdminRole",
                    "type": "bytes32"
                }
            ],
            "name": "RoleAdminChanged",
            "type": "event"
        },
        {
            "anonymous": false,
            "inputs": [
                {
                    "indexed": true,
                    "internalType": "bytes32",
                    "name": "role",
                    "type": "bytes32"
                },
                {
                    "indexed": true,
                    "internalType": "address",
                    "name": "account",
                    "type": "address"
                },
                {
                    "indexed": true,
                    "internalType": "address",
                    "name": "sender",
                    "type": "address"
                }
            ],
            "name": "RoleGranted",
            "type": "event"
        },
        {
            "anonymous": false,
            "inputs": [
                {
                    "indexed": true,
                    "internalType": "bytes32",
                    "name": "role",
                    "type": "bytes32"
                },
                {
                    "indexed": true,
                    "internalType": "address",
                    "name": "account",
                    "type": "address"
                },
                {
                    "indexed": true,
                    "internalType": "address",
                    "name": "sender",
                    "type": "address"
                }
            ],
            "name": "RoleRevoked",
            "type": "event"
        },
        {
            "anonymous": false,
            "inputs": [
                {
                    "indexed": true,
                    "internalType": "address",
                    "name": "from",
                    "type": "address"
                },
                {
                    "indexed": true,
                    "internalType": "address",
                    "name": "to",
                    "type": "address"
                },
                {
                    "indexed": true,
                    "internalType": "uint256",
                    "name": "tokenId",
                    "type": "uint256"
                }
            ],
            "name": "Transfer",
            "type": "event"
        },
        {
            "inputs": [],
            "name": "DEFAULT_ADMIN_ROLE",
            "outputs": [
                {
                    "internalType": "bytes32",
                    "name": "",
                    "type": "bytes32"
                }
            ],
            "stateMutability": "view",
            "type": "function"
        },
        {
            "inputs": [
                {
                    "internalType": "address",
                    "name": "to",
                    "type": "address"
                },
                {
                    "internalType": "uint256",
                    "name": "tokenId",
                    "type": "uint256"
                }
            ],
            "name": "approve",
            "outputs": [],
            "stateMutability": "nonpayable",
            "type": "function"
        },
        {
            "inputs": [
                {
                    "internalType": "address",
                    "name": "owner",
                    "type": "address"
                }
            ],
            "name": "balanceOf",
            "outputs": [
                {
                    "internalType": "uint256",
                    "name": "",
                    "type": "uint256"
                }
            ],
            "stateMutability": "view",
            "type": "function"
        },
        {
            "inputs": [
                {
                    "internalType": "uint256",
                    "name": "tokenId",
                    "type": "uint256"
                }
            ],
            "name": "burn",
            "outputs": [],
            "stateMutability": "nonpayable",
            "type": "function"
        },
        {
            "inputs": [
                {
                    "internalType": "uint256",
                    "name": "tokenId",
                    "type": "uint256"
                }
            ],
            "name": "getApproved",
            "outputs": [
                {
                    "internalType": "address",
                    "name": "",
                    "type": "address"
                }
            ],
            "stateMutability": "view",
            "type": "function"
        },
        {
            "inputs": [
                {
                    "internalType": "bytes32",
                    "name": "role",
                    "type": "bytes32"
                }
            ],
            "name": "getRoleAdmin",
            "outputs": [
                {
                    "internalType": "bytes32",
                    "name": "",
                    "type": "bytes32"
                }
            ],
            "stateMutability": "view",
            "type": "function"
        },
        {
            "inputs": [
                {
                    "internalType": "bytes32",
                    "name": "role",
                    "type": "bytes32"
                },
                {
                    "internalType": "address",
                    "name": "account",
                    "type": "address"
                }
            ],
            "name": "grantRole",
            "outputs": [],
            "stateMutability": "nonpayable",
            "type": "function"
        },
        {
            "inputs": [
                {
                    "internalType": "bytes32",
                    "name": "role",
                    "type": "bytes32"
                },
                {
                    "internalType": "address",
                    "name": "account",
                    "type": "address"
                }
            ],
            "name": "hasRole",
            "outputs": [
                {
                    "internalType": "bool",
                    "name": "",
                    "type": "bool"
                }
            ],
            "stateMutability": "view",
            "type": "function"
        },
        {
            "inputs": [
                {
                    "internalType": "address",
                    "name": "owner",
                    "type": "address"
                },
                {
                    "internalType": "address",
                    "name": "operator",
                    "type": "address"
                }
            ],
            "name": "isApprovedForAll",
            "outputs": [
                {
                    "internalType": "bool",
                    "name": "",
                    "type": "bool"
                }
            ],
            "stateMutability": "view",
            "type": "function"
        },
        {
            "inputs": [],
            "name": "mint",
            "outputs": [],
            "stateMutability": "nonpayable",
            "type": "function"
        },
        {
            "inputs": [],
            "name": "name",
            "outputs": [
                {
                    "internalType": "string",
                    "name": "",
                    "type": "string"
                }
            ],
            "stateMutability": "view",
            "type": "function"
        },
        {
            "inputs": [
                {
                    "internalType": "uint256",
                    "name": "tokenId",
                    "type": "uint256"
                }
            ],
            "name": "ownerOf",
            "outputs": [
                {
                    "internalType": "address",
                    "name": "",
                    "type": "address"
                }
            ],
            "stateMutability": "view",
            "type": "function"
        },
        {
            "inputs": [
                {
                    "internalType": "bytes32",
                    "name": "role",
                    "type": "bytes32"
                },
                {
                    "internalType": "address",
                    "name": "account",
                    "type": "address"
                }
            ],
            "name": "renounceRole",
            "outputs": [],
            "stateMutability": "nonpayable",
            "type": "function"
        },
        {
            "inputs": [
                {
                    "internalType": "bytes32",
                    "name": "role",
                    "type": "bytes32"
                },
                {
                    "internalType": "address",
                    "name": "account",
                    "type": "address"
                }
            ],
            "name": "revokeRole",
            "outputs": [],
            "stateMutability": "nonpayable",
            "type": "function"
        },
        {
            "inputs": [
                {
                    "internalType": "address",
                    "name": "to",
                    "type": "address"
                }
            ],
            "name": "safeMint",
            "outputs": [],
            "stateMutability": "nonpayable",
            "type": "function"
        },
        {
            "inputs": [
                {
                    "internalType": "address",
                    "name": "from",
                    "type": "address"
                },
                {
                    "internalType": "address",
                    "name": "to",
                    "type": "address"
                },
                {
                    "internalType": "uint256",
                    "name": "tokenId",
                    "type": "uint256"
                }
            ],
            "name": "safeTransferFrom",
            "outputs": [],
            "stateMutability": "nonpayable",
            "type": "function"
        },
        {
            "inputs": [
                {
                    "internalType": "address",
                    "name": "from",
                    "type": "address"
                },
                {
                    "internalType": "address",
                    "name": "to",
                    "type": "address"
                },
                {
                    "internalType": "uint256",
                    "name": "tokenId",
                    "type": "uint256"
                },
                {
                    "internalType": "bytes",
                    "name": "data",
                    "type": "bytes"
                }
            ],
            "name": "safeTransferFrom",
            "outputs": [],
            "stateMutability": "nonpayable",
            "type": "function"
        },
        {
            "inputs": [
                {
                    "internalType": "address",
                    "name": "operator",
                    "type": "address"
                },
                {
                    "internalType": "bool",
                    "name": "approved",
                    "type": "bool"
                }
            ],
            "name": "setApprovalForAll",
            "outputs": [],
            "stateMutability": "nonpayable",
            "type": "function"
        },
        {
            "inputs": [
                {
                    "internalType": "bytes4",
                    "name": "interfaceId",
                    "type": "bytes4"
                }
            ],
            "name": "supportsInterface",
            "outputs": [
                {
                    "internalType": "bool",
                    "name": "",
                    "type": "bool"
                }
            ],
            "stateMutability": "view",
            "type": "function"
        },
        {
            "inputs": [],
            "name": "symbol",
            "outputs": [
                {
                    "internalType": "string",
                    "name": "",
                    "type": "string"
                }
            ],
            "stateMutability": "view",
            "type": "function"
        },
        {
            "inputs": [
                {
                    "internalType": "uint256",
                    "name": "index",
                    "type": "uint256"
                }
            ],
            "name": "tokenByIndex",
            "outputs": [
                {
                    "internalType": "uint256",
                    "name": "",
                    "type": "uint256"
                }
            ],
            "stateMutability": "view",
            "type": "function"
        },
        {
            "inputs": [
                {
                    "internalType": "address",
                    "name": "owner",
                    "type": "address"
                },
                {
                    "internalType": "uint256",
                    "name": "index",
                    "type": "uint256"
                }
            ],
            "name": "tokenOfOwnerByIndex",
            "outputs": [
                {
                    "internalType": "uint256",
                    "name": "",
                    "type": "uint256"
                }
            ],
            "stateMutability": "view",
            "type": "function"
        },
        {
            "inputs": [
                {
                    "internalType": "uint256",
                    "name": "tokenId",
                    "type": "uint256"
                }
            ],
            "name": "tokenURI",
            "outputs": [
                {
                    "internalType": "string",
                    "name": "",
                    "type": "string"
                }
            ],
            "stateMutability": "view",
            "type": "function"
        },
        {
            "inputs": [],
            "name": "totalSupply",
            "outputs": [
                {
                    "internalType": "uint256",
                    "name": "",
                    "type": "uint256"
                }
            ],
            "stateMutability": "view",
            "type": "function"
        },
        {
            "inputs": [
                {
                    "internalType": "address",
                    "name": "from",
                    "type": "address"
                },
                {
                    "internalType": "address",
                    "name": "to",
                    "type": "address"
                },
                {
                    "internalType": "uint256",
                    "name": "tokenId",
                    "type": "uint256"
                }
            ],
            "name": "transferFrom",
            "outputs": [],
            "stateMutability": "nonpayable",
            "type": "function"
        }
    ],
    "bytecode": "0x60806040526064600c60006101000a81548161ffff021916908361ffff1602179055503480156200002f57600080fd5b506040518060400160405280600581526020017f4d794e46540000000000000000000000000000000000000000000000000000008152506040518060400160405280600481526020017f4d4e4654000000000000000000000000000000000000000000000000000000008152508160009081620000ad9190620004bc565b508060019081620000bf9190620004bc565b505050620000d76000801b33620000dd60201b60201c565b620005a3565b620000ef8282620001cf60201b60201c565b620001cb576001600a600084815260200190815260200160002060000160008373ffffffffffffffffffffffffffffffffffffffff1673ffffffffffffffffffffffffffffffffffffffff16815260200190815260200160002060006101000a81548160ff021916908315150217905550620001706200023a60201b60201c565b73ffffffffffffffffffffffffffffffffffffffff168173ffffffffffffffffffffffffffffffffffffffff16837f2f8788117e7eff1d82e926ec794901d17c78024a50270940304540a733656f0d60405160405180910390a45b5050565b6000600a600084815260200190815260200160002060000160008373ffffffffffffffffffffffffffffffffffffffff1673ffffffffffffffffffffffffffffffffffffffff16815260200190815260200160002060009054906101000a900460ff16905092915050565b600033905090565b600081519050919050565b7f4e487b7100000000000000000000000000000000000000000000000000000000600052604160045260246000fd5b7f4e487b7100000000000000000000000000000000000000000000000000000000600052602260045260246000fd5b60006002820490506001821680620002c457607f821691505b602082108103620002da57620002d96200027c565b5b50919050565b60008190508160005260206000209050919050565b60006020601f8301049050919050565b600082821b905092915050565b600060088302620003447fffffffffffffffffffffffffffffffffffffffffffffffffffffffffffffffff8262000305565b62000350868362000305565b95508019841693508086168417925050509392505050565b6000819050919050565b6000819050919050565b60006200039d62000397620003918462000368565b62000372565b62000368565b9050919050565b6000819050919050565b620003b9836200037c565b620003d1620003c882620003a4565b84845462000312565b825550505050565b600090565b620003e8620003d9565b620003f5818484620003ae565b505050565b5b818110156200041d5762000411600082620003de565b600181019050620003fb565b5050565b601f8211156200046c576200043681620002e0565b6200044184620002f5565b8101602085101562000451578190505b620004696200046085620002f5565b830182620003fa565b50505b505050565b600082821c905092915050565b6000620004916000198460080262000471565b1980831691505092915050565b6000620004ac83836200047e565b9150826002028217905092915050565b620004c78262000242565b67ffffffffffffffff811115620004e357620004e26200024d565b5b620004ef8254620002ab565b620004fc82828562000421565b600060209050601f8311600181146200053457600084156200051f578287015190505b6200052b85826200049e565b8655506200059b565b601f1984166200054486620002e0565b60005b828110156200056e5784890151825560018201915060208501945060208101905062000547565b868310156200058e57848901516200058a601f8916826200047e565b8355505b6001600288020188555050505b505050505050565b613db780620005b36000396000f3fe608060405234801561001057600080fd5b50600436106101735760003560e01c806342842e0e116100de57806395d89b4111610097578063b88d4fde11610071578063b88d4fde1461045a578063c87b56dd14610476578063d547741f146104a6578063e985e9c5146104c257610173565b806395d89b4114610402578063a217fddf14610420578063a22cb4651461043e57610173565b806342842e0e1461030a57806342966c68146103265780634f6ccce7146103425780636352211e1461037257806370a08231146103a257806391d14854146103d257610173565b806323b872dd1161013057806323b872dd1461023a578063248a9ca3146102565780632f2ff15d146102865780632f745c59146102a257806336568abe146102d257806340d097c3146102ee57610173565b806301ffc9a71461017857806306fdde03146101a8578063081812fc146101c6578063095ea7b3146101f65780631249c58b1461021257806318160ddd1461021c575b600080fd5b610192600480360381019061018d9190612a6e565b6104f2565b60405161019f9190612ab6565b60405180910390f35b6101b0610504565b6040516101bd9190612b61565b60405180910390f35b6101e060048036038101906101db9190612bb9565b610596565b6040516101ed9190612c27565b60405180910390f35b610210600480360381019061020b9190612c6e565b6105dc565b005b61021a6106f3565b005b61022461076e565b6040516102319190612cbd565b60405180910390f35b610254600480360381019061024f9190612cd8565b61077b565b005b610270600480360381019061026b9190612d61565b6107db565b60405161027d9190612d9d565b60405180910390f35b6102a0600480360381019061029b9190612db8565b6107fb565b005b6102bc60048036038101906102b79190612c6e565b61081c565b6040516102c99190612cbd565b60405180910390f35b6102ec60048036038101906102e79190612db8565b6108c1565b005b61030860048036038101906103039190612df8565b610944565b005b610324600480360381019061031f9190612cd8565b6109ce565b005b610340600480360381019061033b9190612bb9565b6109ee565b005b61035c60048036038101906103579190612bb9565b610a4a565b6040516103699190612cbd565b60405180910390f35b61038c60048036038101906103879190612bb9565b610abb565b6040516103999190612c27565b60405180910390f35b6103bc60048036038101906103b79190612df8565b610b41565b6040516103c99190612cbd565b60405180910390f35b6103ec60048036038101906103e79190612db8565b610bf8565b6040516103f99190612ab6565b60405180910390f35b61040a610c63565b6040516104179190612b61565b60405180910390f35b610428610cf5565b6040516104359190612d9d565b60405180910390f35b61045860048036038101906104539190612e51565b610cfc565b005b610474600480360381019061046f9190612fc6565b610d12565b005b610490600480360381019061048b9190612bb9565b610d74565b60405161049d9190612b61565b60405180910390f35b6104c060048036038101906104bb9190612db8565b610ddc565b005b6104dc60048036038101906104d79190613049565b610dfd565b6040516104e99190612ab6565b60405180910390f35b60006104fd82610e91565b9050919050565b606060008054610513906130b8565b80601f016020809104026020016040519081016040528092919081815260200182805461053f906130b8565b801561058c5780601f106105615761010080835404028352916020019161058c565b820191906000526020600020905b81548152906001019060200180831161056f57829003601f168201915b5050505050905090565b60006105a182610f0b565b6004600083815260200190815260200160002060009054906101000a900473ffffffffffffffffffffffffffffffffffffffff169050919050565b60006105e782610abb565b90508073ffffffffffffffffffffffffffffffffffffffff168373ffffffffffffffffffffffffffffffffffffffff1603610657576040517f08c379a000000000000000000000000000000000000000000000000000000000815260040161064e9061315b565b60405180910390fd5b8073ffffffffffffffffffffffffffffffffffffffff16610676610f56565b73ffffffffffffffffffffffffffffffffffffffff1614806106a557506106a48161069f610f56565b610dfd565b5b6106e4576040517f08c379a00000000000000000000000000000000000000000000000000000000081526004016106db906131ed565b60405180910390fd5b6106ee8383610f5e565b505050565b60006106ff600b611017565b9050600c60009054906101000a900461ffff1661ffff168110610757576040517f08c379a000000000000000000000000000000000000000000000000000000000815260040161074e9061327f565b60405180910390fd5b610761600b611025565b61076b338261103b565b50565b6000600880549050905090565b61078c610786610f56565b82611059565b6107cb576040517f08c379a00000000000000000000000000000000000000000000000000000000081526004016107c290613311565b60405180910390fd5b6107d68383836110ee565b505050565b6000600a6000838152602001908152602001600020600101549050919050565b610804826107db565b61080d816113e7565b61081783836113fb565b505050565b600061082783610b41565b8210610868576040517f08c379a000000000000000000000000000000000000000000000000000000000815260040161085f906133a3565b60405180910390fd5b600660008473ffffffffffffffffffffffffffffffffffffffff1673ffffffffffffffffffffffffffffffffffffffff168152602001908152602001600020600083815260200190815260200160002054905092915050565b6108c9610f56565b73ffffffffffffffffffffffffffffffffffffffff168173ffffffffffffffffffffffffffffffffffffffff1614610936576040517f08c379a000000000000000000000000000000000000000000000000000000000815260040161092d90613435565b60405180910390fd5b61094082826114dc565b5050565b6000801b610951816113e7565b600061095d600b611017565b9050600c60009054906101000a900461ffff1661ffff1681106109b5576040517f08c379a00000000000000000000000000000000000000000000000000000000081526004016109ac9061327f565b60405180910390fd5b6109bf600b611025565b6109c9838261103b565b505050565b6109e983838360405180602001604052806000815250610d12565b505050565b6109ff6109f9610f56565b82611059565b610a3e576040517f08c379a0000000000000000000000000000000000000000000000000000000008152600401610a3590613311565b60405180910390fd5b610a47816115be565b50565b6000610a5461076e565b8210610a95576040517f08c379a0000000000000000000000000000000000000000000000000000000008152600401610a8c906134c7565b60405180910390fd5b60088281548110610aa957610aa86134e7565b5b90600052602060002001549050919050565b600080610ac78361170c565b9050600073ffffffffffffffffffffffffffffffffffffffff168173ffffffffffffffffffffffffffffffffffffffff1603610b38576040517f08c379a0000000000000000000000000000000000000000000000000000000008152600401610b2f90613562565b60405180910390fd5b80915050919050565b60008073ffffffffffffffffffffffffffffffffffffffff168273ffffffffffffffffffffffffffffffffffffffff1603610bb1576040517f08c379a0000000000000000000000000000000000000000000000000000000008152600401610ba8906135f4565b60405180910390fd5b600360008373ffffffffffffffffffffffffffffffffffffffff1673ffffffffffffffffffffffffffffffffffffffff168152602001908152602001600020549050919050565b6000600a600084815260200190815260200160002060000160008373ffffffffffffffffffffffffffffffffffffffff1673ffffffffffffffffffffffffffffffffffffffff16815260200190815260200160002060009054906101000a900460ff16905092915050565b606060018054610c72906130b8565b80601f0160208091040260200160405190810160405280929190818152602001828054610c9e906130b8565b8015610ceb5780601f10610cc057610100808354040283529160200191610ceb565b820191906000526020600020905b815481529060010190602001808311610cce57829003601f168201915b5050505050905090565b6000801b81565b610d0e610d07610f56565b8383611749565b5050565b610d23610d1d610f56565b83611059565b610d62576040517f08c379a0000000000000000000000000000000000000000000000000000000008152600401610d5990613311565b60405180910390fd5b610d6e848484846118b5565b50505050565b6060610d7f82610f0b565b6000610d89611911565b90506000815111610da95760405180602001604052806000815250610dd4565b80610db384611928565b604051602001610dc4929190613650565b6040516020818303038152906040525b915050919050565b610de5826107db565b610dee816113e7565b610df883836114dc565b505050565b6000600560008473ffffffffffffffffffffffffffffffffffffffff1673ffffffffffffffffffffffffffffffffffffffff16815260200190815260200160002060008373ffffffffffffffffffffffffffffffffffffffff1673ffffffffffffffffffffffffffffffffffffffff16815260200190815260200160002060009054906101000a900460ff16905092915050565b60007f7965db0b000000000000000000000000000000000000000000000000000000007bffffffffffffffffffffffffffffffffffffffffffffffffffffffff1916827bffffffffffffffffffffffffffffffffffffffffffffffffffffffff19161480610f045750610f03826119f6565b5b9050919050565b610f1481611a70565b610f53576040517f08c379a0000000000000000000000000000000000000000000000000000000008152600401610f4a90613562565b60405180910390fd5b50565b600033905090565b816004600083815260200190815260200160002060006101000a81548173ffffffffffffffffffffffffffffffffffffffff021916908373ffffffffffffffffffffffffffffffffffffffff160217905550808273ffffffffffffffffffffffffffffffffffffffff16610fd183610abb565b73ffffffffffffffffffffffffffffffffffffffff167f8c5be1e5ebec7d5bd14f71427d1e84f3dd0314c0f7b2291e5b200ac8c7c3b92560405160405180910390a45050565b600081600001549050919050565b6001816000016000828254019250508190555050565b611055828260405180602001604052806000815250611ab1565b5050565b60008061106583610abb565b90508073ffffffffffffffffffffffffffffffffffffffff168473ffffffffffffffffffffffffffffffffffffffff1614806110a757506110a68185610dfd565b5b806110e557508373ffffffffffffffffffffffffffffffffffffffff166110cd84610596565b73ffffffffffffffffffffffffffffffffffffffff16145b91505092915050565b8273ffffffffffffffffffffffffffffffffffffffff1661110e82610abb565b73ffffffffffffffffffffffffffffffffffffffff1614611164576040517f08c379a000000000000000000000000000000000000000000000000000000000815260040161115b906136e6565b60405180910390fd5b600073ffffffffffffffffffffffffffffffffffffffff168273ffffffffffffffffffffffffffffffffffffffff16036111d3576040517f08c379a00000000000000000000000000000000000000000000000000000000081526004016111ca90613778565b60405180910390fd5b6111e08383836001611b0c565b8273ffffffffffffffffffffffffffffffffffffffff1661120082610abb565b73ffffffffffffffffffffffffffffffffffffffff1614611256576040517f08c379a000000000000000000000000000000000000000000000000000000000815260040161124d906136e6565b60405180910390fd5b6004600082815260200190815260200160002060006101000a81549073ffffffffffffffffffffffffffffffffffffffff02191690556001600360008573ffffffffffffffffffffffffffffffffffffffff1673ffffffffffffffffffffffffffffffffffffffff168152602001908152602001600020600082825403925050819055506001600360008473ffffffffffffffffffffffffffffffffffffffff1673ffffffffffffffffffffffffffffffffffffffff16815260200190815260200160002060008282540192505081905550816002600083815260200190815260200160002060006101000a81548173ffffffffffffffffffffffffffffffffffffffff021916908373ffffffffffffffffffffffffffffffffffffffff160217905550808273ffffffffffffffffffffffffffffffffffffffff168473ffffffffffffffffffffffffffffffffffffffff167fddf252ad1be2c89b69c2b068fc378daa952ba7f163c4a11628f55a4df523b3ef60405160405180910390a46113e28383836001611b1e565b505050565b6113f8816113f3610f56565b611b24565b50565b6114058282610bf8565b6114d8576001600a600084815260200190815260200160002060000160008373ffffffffffffffffffffffffffffffffffffffff1673ffffffffffffffffffffffffffffffffffffffff16815260200190815260200160002060006101000a81548160ff02191690831515021790555061147d610f56565b73ffffffffffffffffffffffffffffffffffffffff168173ffffffffffffffffffffffffffffffffffffffff16837f2f8788117e7eff1d82e926ec794901d17c78024a50270940304540a733656f0d60405160405180910390a45b5050565b6114e68282610bf8565b156115ba576000600a600084815260200190815260200160002060000160008373ffffffffffffffffffffffffffffffffffffffff1673ffffffffffffffffffffffffffffffffffffffff16815260200190815260200160002060006101000a81548160ff02191690831515021790555061155f610f56565b73ffffffffffffffffffffffffffffffffffffffff168173ffffffffffffffffffffffffffffffffffffffff16837ff6391f5c32d9c69d2a47ea670b442974b53935d1edc7fd64eb21e047a839171b60405160405180910390a45b5050565b60006115c982610abb565b90506115d9816000846001611b0c565b6115e282610abb565b90506004600083815260200190815260200160002060006101000a81549073ffffffffffffffffffffffffffffffffffffffff02191690556001600360008373ffffffffffffffffffffffffffffffffffffffff1673ffffffffffffffffffffffffffffffffffffffff168152602001908152602001600020600082825403925050819055506002600083815260200190815260200160002060006101000a81549073ffffffffffffffffffffffffffffffffffffffff021916905581600073ffffffffffffffffffffffffffffffffffffffff168273ffffffffffffffffffffffffffffffffffffffff167fddf252ad1be2c89b69c2b068fc378daa952ba7f163c4a11628f55a4df523b3ef60405160405180910390a4611708816000846001611b1e565b5050565b60006002600083815260200190815260200160002060009054906101000a900473ffffffffffffffffffffffffffffffffffffffff169050919050565b8173ffffffffffffffffffffffffffffffffffffffff168373ffffffffffffffffffffffffffffffffffffffff16036117b7576040517f08c379a00000000000000000000000000000000000000000000000000000000081526004016117ae906137e4565b60405180910390fd5b80600560008573ffffffffffffffffffffffffffffffffffffffff1673ffffffffffffffffffffffffffffffffffffffff16815260200190815260200160002060008473ffffffffffffffffffffffffffffffffffffffff1673ffffffffffffffffffffffffffffffffffffffff16815260200190815260200160002060006101000a81548160ff0219169083151502179055508173ffffffffffffffffffffffffffffffffffffffff168373ffffffffffffffffffffffffffffffffffffffff167f17307eab39ab6107e8899845ad3d59bd9653f200f220920489ca2b5937696c31836040516118a89190612ab6565b60405180910390a3505050565b6118c08484846110ee565b6118cc84848484611ba9565b61190b576040517f08c379a000000000000000000000000000000000000000000000000000000000815260040161190290613876565b60405180910390fd5b50505050565b606060405180602001604052806000815250905090565b60606000600161193784611d30565b01905060008167ffffffffffffffff81111561195657611955612e9b565b5b6040519080825280601f01601f1916602001820160405280156119885781602001600182028036833780820191505090505b509050600082602001820190505b6001156119eb578080600190039150507f3031323334353637383961626364656600000000000000000000000000000000600a86061a8153600a85816119df576119de613896565b5b04945060008503611996575b819350505050919050565b60007f780e9d63000000000000000000000000000000000000000000000000000000007bffffffffffffffffffffffffffffffffffffffffffffffffffffffff1916827bffffffffffffffffffffffffffffffffffffffffffffffffffffffff19161480611a695750611a6882611e83565b5b9050919050565b60008073ffffffffffffffffffffffffffffffffffffffff16611a928361170c565b73ffffffffffffffffffffffffffffffffffffffff1614159050919050565b611abb8383611f65565b611ac86000848484611ba9565b611b07576040517f08c379a0000000000000000000000000000000000000000000000000000000008152600401611afe90613876565b60405180910390fd5b505050565b611b1884848484612182565b50505050565b50505050565b611b2e8282610bf8565b611ba557611b3b816122e0565b611b498360001c602061230d565b604051602001611b5a92919061395d565b6040516020818303038152906040526040517f08c379a0000000000000000000000000000000000000000000000000000000008152600401611b9c9190612b61565b60405180910390fd5b5050565b6000611bca8473ffffffffffffffffffffffffffffffffffffffff16612549565b15611d23578373ffffffffffffffffffffffffffffffffffffffff1663150b7a02611bf3610f56565b8786866040518563ffffffff1660e01b8152600401611c1594939291906139ec565b6020604051808303816000875af1925050508015611c5157506040513d601f19601f82011682018060405250810190611c4e9190613a4d565b60015b611cd3573d8060008114611c81576040519150601f19603f3d011682016040523d82523d6000602084013e611c86565b606091505b506000815103611ccb576040517f08c379a0000000000000000000000000000000000000000000000000000000008152600401611cc290613876565b60405180910390fd5b805181602001fd5b63150b7a0260e01b7bffffffffffffffffffffffffffffffffffffffffffffffffffffffff1916817bffffffffffffffffffffffffffffffffffffffffffffffffffffffff191614915050611d28565b600190505b949350505050565b600080600090507a184f03e93ff9f4daa797ed6e38ed64bf6a1f0100000000000000008310611d8e577a184f03e93ff9f4daa797ed6e38ed64bf6a1f0100000000000000008381611d8457611d83613896565b5b0492506040810190505b6d04ee2d6d415b85acef81000000008310611dcb576d04ee2d6d415b85acef81000000008381611dc157611dc0613896565b5b0492506020810190505b662386f26fc100008310611dfa57662386f26fc100008381611df057611def613896565b5b0492506010810190505b6305f5e1008310611e23576305f5e1008381611e1957611e18613896565b5b0492506008810190505b6127108310611e48576127108381611e3e57611e3d613896565b5b0492506004810190505b60648310611e6b5760648381611e6157611e60613896565b5b0492506002810190505b600a8310611e7a576001810190505b80915050919050565b60007f80ac58cd000000000000000000000000000000000000000000000000000000007bffffffffffffffffffffffffffffffffffffffffffffffffffffffff1916827bffffffffffffffffffffffffffffffffffffffffffffffffffffffff19161480611f4e57507f5b5e139f000000000000000000000000000000000000000000000000000000007bffffffffffffffffffffffffffffffffffffffffffffffffffffffff1916827bffffffffffffffffffffffffffffffffffffffffffffffffffffffff1916145b80611f5e5750611f5d8261256c565b5b9050919050565b600073ffffffffffffffffffffffffffffffffffffffff168273ffffffffffffffffffffffffffffffffffffffff1603611fd4576040517f08c379a0000000000000000000000000000000000000000000000000000000008152600401611fcb90613ac6565b60405180910390fd5b611fdd81611a70565b1561201d576040517f08c379a000000000000000000000000000000000000000000000000000000000815260040161201490613b32565b60405180910390fd5b61202b600083836001611b0c565b61203481611a70565b15612074576040517f08c379a000000000000000000000000000000000000000000000000000000000815260040161206b90613b32565b60405180910390fd5b6001600360008473ffffffffffffffffffffffffffffffffffffffff1673ffffffffffffffffffffffffffffffffffffffff16815260200190815260200160002060008282540192505081905550816002600083815260200190815260200160002060006101000a81548173ffffffffffffffffffffffffffffffffffffffff021916908373ffffffffffffffffffffffffffffffffffffffff160217905550808273ffffffffffffffffffffffffffffffffffffffff16600073ffffffffffffffffffffffffffffffffffffffff167fddf252ad1be2c89b69c2b068fc378daa952ba7f163c4a11628f55a4df523b3ef60405160405180910390a461217e600083836001611b1e565b5050565b61218e848484846125d6565b60018111156121d2576040517f08c379a00000000000000000000000000000000000000000000000000000000081526004016121c990613bc4565b60405180910390fd5b6000829050600073ffffffffffffffffffffffffffffffffffffffff168573ffffffffffffffffffffffffffffffffffffffff160361221957612214816126fc565b612258565b8373ffffffffffffffffffffffffffffffffffffffff168573ffffffffffffffffffffffffffffffffffffffff1614612257576122568582612745565b5b5b600073ffffffffffffffffffffffffffffffffffffffff168473ffffffffffffffffffffffffffffffffffffffff160361229a57612295816128b2565b6122d9565b8473ffffffffffffffffffffffffffffffffffffffff168473ffffffffffffffffffffffffffffffffffffffff16146122d8576122d78482612983565b5b5b5050505050565b60606123068273ffffffffffffffffffffffffffffffffffffffff16601460ff1661230d565b9050919050565b6060600060028360026123209190613c13565b61232a9190613c55565b67ffffffffffffffff81111561234357612342612e9b565b5b6040519080825280601f01601f1916602001820160405280156123755781602001600182028036833780820191505090505b5090507f3000000000000000000000000000000000000000000000000000000000000000816000815181106123ad576123ac6134e7565b5b60200101907effffffffffffffffffffffffffffffffffffffffffffffffffffffffffffff1916908160001a9053507f780000000000000000000000000000000000000000000000000000000000000081600181518110612411576124106134e7565b5b60200101907effffffffffffffffffffffffffffffffffffffffffffffffffffffffffffff1916908160001a905350600060018460026124519190613c13565b61245b9190613c55565b90505b60018111156124fb577f3031323334353637383961626364656600000000000000000000000000000000600f86166010811061249d5761249c6134e7565b5b1a60f81b8282815181106124b4576124b36134e7565b5b60200101907effffffffffffffffffffffffffffffffffffffffffffffffffffffffffffff1916908160001a905350600485901c9450806124f490613c89565b905061245e565b506000841461253f576040517f08c379a000000000000000000000000000000000000000000000000000000000815260040161253690613cfe565b60405180910390fd5b8091505092915050565b6000808273ffffffffffffffffffffffffffffffffffffffff163b119050919050565b60007f01ffc9a7000000000000000000000000000000000000000000000000000000007bffffffffffffffffffffffffffffffffffffffffffffffffffffffff1916827bffffffffffffffffffffffffffffffffffffffffffffffffffffffff1916149050919050565b60018111156126f657600073ffffffffffffffffffffffffffffffffffffffff168473ffffffffffffffffffffffffffffffffffffffff161461266a5780600360008673ffffffffffffffffffffffffffffffffffffffff1673ffffffffffffffffffffffffffffffffffffffff16815260200190815260200160002060008282546126629190613d1e565b925050819055505b600073ffffffffffffffffffffffffffffffffffffffff168373ffffffffffffffffffffffffffffffffffffffff16146126f55780600360008573ffffffffffffffffffffffffffffffffffffffff1673ffffffffffffffffffffffffffffffffffffffff16815260200190815260200160002060008282546126ed9190613c55565b925050819055505b5b50505050565b6008805490506009600083815260200190815260200160002081905550600881908060018154018082558091505060019003906000526020600020016000909190919091505550565b6000600161275284610b41565b61275c9190613d1e565b9050600060076000848152602001908152602001600020549050818114612841576000600660008673ffffffffffffffffffffffffffffffffffffffff1673ffffffffffffffffffffffffffffffffffffffff168152602001908152602001600020600084815260200190815260200160002054905080600660008773ffffffffffffffffffffffffffffffffffffffff1673ffffffffffffffffffffffffffffffffffffffff168152602001908152602001600020600084815260200190815260200160002081905550816007600083815260200190815260200160002081905550505b6007600084815260200190815260200160002060009055600660008573ffffffffffffffffffffffffffffffffffffffff1673ffffffffffffffffffffffffffffffffffffffff16815260200190815260200160002060008381526020019081526020016000206000905550505050565b600060016008805490506128c69190613d1e565b90506000600960008481526020019081526020016000205490506000600883815481106128f6576128f56134e7565b5b906000526020600020015490508060088381548110612918576129176134e7565b5b90600052602060002001819055508160096000838152602001908152602001600020819055506009600085815260200190815260200160002060009055600880548061296757612966613d52565b5b6001900381819060005260206000200160009055905550505050565b600061298e83610b41565b905081600660008573ffffffffffffffffffffffffffffffffffffffff1673ffffffffffffffffffffffffffffffffffffffff168152602001908152602001600020600083815260200190815260200160002081905550806007600084815260200190815260200160002081905550505050565b6000604051905090565b600080fd5b600080fd5b60007fffffffff0000000000000000000000000000000000000000000000000000000082169050919050565b612a4b81612a16565b8114612a5657600080fd5b50565b600081359050612a6881612a42565b92915050565b600060208284031215612a8457612a83612a0c565b5b6000612a9284828501612a59565b91505092915050565b60008115159050919050565b612ab081612a9b565b82525050565b6000602082019050612acb6000830184612aa7565b92915050565b600081519050919050565b600082825260208201905092915050565b60005b83811015612b0b578082015181840152602081019050612af0565b60008484015250505050565b6000601f19601f8301169050919050565b6000612b3382612ad1565b612b3d8185612adc565b9350612b4d818560208601612aed565b612b5681612b17565b840191505092915050565b60006020820190508181036000830152612b7b8184612b28565b905092915050565b6000819050919050565b612b9681612b83565b8114612ba157600080fd5b50565b600081359050612bb381612b8d565b92915050565b600060208284031215612bcf57612bce612a0c565b5b6000612bdd84828501612ba4565b91505092915050565b600073ffffffffffffffffffffffffffffffffffffffff82169050919050565b6000612c1182612be6565b9050919050565b612c2181612c06565b82525050565b6000602082019050612c3c6000830184612c18565b92915050565b612c4b81612c06565b8114612c5657600080fd5b50565b600081359050612c6881612c42565b92915050565b60008060408385031215612c8557612c84612a0c565b5b6000612c9385828601612c59565b9250506020612ca485828601612ba4565b9150509250929050565b612cb781612b83565b82525050565b6000602082019050612cd26000830184612cae565b92915050565b600080600060608486031215612cf157612cf0612a0c565b5b6000612cff86828701612c59565b9350506020612d1086828701612c59565b9250506040612d2186828701612ba4565b9150509250925092565b6000819050919050565b612d3e81612d2b565b8114612d4957600080fd5b50565b600081359050612d5b81612d35565b92915050565b600060208284031215612d7757612d76612a0c565b5b6000612d8584828501612d4c565b91505092915050565b612d9781612d2b565b82525050565b6000602082019050612db26000830184612d8e565b92915050565b60008060408385031215612dcf57612dce612a0c565b5b6000612ddd85828601612d4c565b9250506020612dee85828601612c59565b9150509250929050565b600060208284031215612e0e57612e0d612a0c565b5b6000612e1c84828501612c59565b91505092915050565b612e2e81612a9b565b8114612e3957600080fd5b50565b600081359050612e4b81612e25565b92915050565b60008060408385031215612e6857612e67612a0c565b5b6000612e7685828601612c59565b9250506020612e8785828601612e3c565b9150509250929050565b600080fd5b600080fd5b7f4e487b7100000000000000000000000000000000000000000000000000000000600052604160045260246000fd5b612ed382612b17565b810181811067ffffffffffffffff82111715612ef257612ef1612e9b565b5b80604052505050565b6000612f05612a02565b9050612f118282612eca565b919050565b600067ffffffffffffffff821115612f3157612f30612e9b565b5b612f3a82612b17565b9050602081019050919050565b82818337600083830152505050565b6000612f69612f6484612f16565b612efb565b905082815260208101848484011115612f8557612f84612e96565b5b612f90848285612f47565b509392505050565b600082601f830112612fad57612fac612e91565b5b8135612fbd848260208601612f56565b91505092915050565b60008060008060808587031215612fe057612fdf612a0c565b5b6000612fee87828801612c59565b9450506020612fff87828801612c59565b935050604061301087828801612ba4565b925050606085013567ffffffffffffffff81111561303157613030612a11565b5b61303d87828801612f98565b91505092959194509250565b600080604083850312156130605761305f612a0c565b5b600061306e85828601612c59565b925050602061307f85828601612c59565b9150509250929050565b7f4e487b7100000000000000000000000000000000000000000000000000000000600052602260045260246000fd5b600060028204905060018216806130d057607f821691505b6020821081036130e3576130e2613089565b5b50919050565b7f4552433732313a20617070726f76616c20746f2063757272656e74206f776e6560008201527f7200000000000000000000000000000000000000000000000000000000000000602082015250565b6000613145602183612adc565b9150613150826130e9565b604082019050919050565b6000602082019050818103600083015261317481613138565b9050919050565b7f4552433732313a20617070726f76652063616c6c6572206973206e6f7420746f60008201527f6b656e206f776e6572206f7220617070726f76656420666f7220616c6c000000602082015250565b60006131d7603d83612adc565b91506131e28261317b565b604082019050919050565b60006020820190508181036000830152613206816131ca565b9050919050565b7f4d6178204d696e74732061636869657665642c2063616e74206d696e74206d6f60008201527f7265000000000000000000000000000000000000000000000000000000000000602082015250565b6000613269602283612adc565b91506132748261320d565b604082019050919050565b600060208201905081810360008301526132988161325c565b9050919050565b7f4552433732313a2063616c6c6572206973206e6f7420746f6b656e206f776e6560008201527f72206f7220617070726f76656400000000000000000000000000000000000000602082015250565b60006132fb602d83612adc565b91506133068261329f565b604082019050919050565b6000602082019050818103600083015261332a816132ee565b9050919050565b7f455243373231456e756d657261626c653a206f776e657220696e646578206f7560008201527f74206f6620626f756e6473000000000000000000000000000000000000000000602082015250565b600061338d602b83612adc565b915061339882613331565b604082019050919050565b600060208201905081810360008301526133bc81613380565b9050919050565b7f416363657373436f6e74726f6c3a2063616e206f6e6c792072656e6f756e636560008201527f20726f6c657320666f722073656c660000000000000000000000000000000000602082015250565b600061341f602f83612adc565b915061342a826133c3565b604082019050919050565b6000602082019050818103600083015261344e81613412565b9050919050565b7f455243373231456e756d657261626c653a20676c6f62616c20696e646578206f60008201527f7574206f6620626f756e64730000000000000000000000000000000000000000602082015250565b60006134b1602c83612adc565b91506134bc82613455565b604082019050919050565b600060208201905081810360008301526134e0816134a4565b9050919050565b7f4e487b7100000000000000000000000000000000000000000000000000000000600052603260045260246000fd5b7f4552433732313a20696e76616c696420746f6b656e2049440000000000000000600082015250565b600061354c601883612adc565b915061355782613516565b602082019050919050565b6000602082019050818103600083015261357b8161353f565b9050919050565b7f4552433732313a2061646472657373207a65726f206973206e6f74206120766160008201527f6c6964206f776e65720000000000000000000000000000000000000000000000602082015250565b60006135de602983612adc565b91506135e982613582565b604082019050919050565b6000602082019050818103600083015261360d816135d1565b9050919050565b600081905092915050565b600061362a82612ad1565b6136348185613614565b9350613644818560208601612aed565b80840191505092915050565b600061365c828561361f565b9150613668828461361f565b91508190509392505050565b7f4552433732313a207472616e736665722066726f6d20696e636f72726563742060008201527f6f776e6572000000000000000000000000000000000000000000000000000000602082015250565b60006136d0602583612adc565b91506136db82613674565b604082019050919050565b600060208201905081810360008301526136ff816136c3565b9050919050565b7f4552433732313a207472616e7366657220746f20746865207a65726f2061646460008201527f7265737300000000000000000000000000000000000000000000000000000000602082015250565b6000613762602483612adc565b915061376d82613706565b604082019050919050565b6000602082019050818103600083015261379181613755565b9050919050565b7f4552433732313a20617070726f766520746f2063616c6c657200000000000000600082015250565b60006137ce601983612adc565b91506137d982613798565b602082019050919050565b600060208201905081810360008301526137fd816137c1565b9050919050565b7f4552433732313a207472616e7366657220746f206e6f6e20455243373231526560008201527f63656976657220696d706c656d656e7465720000000000000000000000000000602082015250565b6000613860603283612adc565b915061386b82613804565b604082019050919050565b6000602082019050818103600083015261388f81613853565b9050919050565b7f4e487b7100000000000000000000000000000000000000000000000000000000600052601260045260246000fd5b7f416363657373436f6e74726f6c3a206163636f756e7420000000000000000000600082015250565b60006138fb601783613614565b9150613906826138c5565b601782019050919050565b7f206973206d697373696e6720726f6c6520000000000000000000000000000000600082015250565b6000613947601183613614565b915061395282613911565b601182019050919050565b6000613968826138ee565b9150613974828561361f565b915061397f8261393a565b915061398b828461361f565b91508190509392505050565b600081519050919050565b600082825260208201905092915050565b60006139be82613997565b6139c881856139a2565b93506139d8818560208601612aed565b6139e181612b17565b840191505092915050565b6000608082019050613a016000830187612c18565b613a0e6020830186612c18565b613a1b6040830185612cae565b8181036060830152613a2d81846139b3565b905095945050505050565b600081519050613a4781612a42565b92915050565b600060208284031215613a6357613a62612a0c565b5b6000613a7184828501613a38565b91505092915050565b7f4552433732313a206d696e7420746f20746865207a65726f2061646472657373600082015250565b6000613ab0602083612adc565b9150613abb82613a7a565b602082019050919050565b60006020820190508181036000830152613adf81613aa3565b9050919050565b7f4552433732313a20746f6b656e20616c7265616479206d696e74656400000000600082015250565b6000613b1c601c83612adc565b9150613b2782613ae6565b602082019050919050565b60006020820190508181036000830152613b4b81613b0f565b9050919050565b7f455243373231456e756d657261626c653a20636f6e736563757469766520747260008201527f616e7366657273206e6f7420737570706f727465640000000000000000000000602082015250565b6000613bae603583612adc565b9150613bb982613b52565b604082019050919050565b60006020820190508181036000830152613bdd81613ba1565b9050919050565b7f4e487b7100000000000000000000000000000000000000000000000000000000600052601160045260246000fd5b6000613c1e82612b83565b9150613c2983612b83565b9250828202613c3781612b83565b91508282048414831517613c4e57613c4d613be4565b5b5092915050565b6000613c6082612b83565b9150613c6b83612b83565b9250828201905080821115613c8357613c82613be4565b5b92915050565b6000613c9482612b83565b915060008203613ca757613ca6613be4565b5b600182039050919050565b7f537472696e67733a20686578206c656e67746820696e73756666696369656e74600082015250565b6000613ce8602083612adc565b9150613cf382613cb2565b602082019050919050565b60006020820190508181036000830152613d1781613cdb565b9050919050565b6000613d2982612b83565b9150613d3483612b83565b9250828203905081811115613d4c57613d4b613be4565b5b92915050565b7f4e487b7100000000000000000000000000000000000000000000000000000000600052603160045260246000fdfea26469706673582212208b67592b6cec3a8aa44656458f24b15e71201b9472b53e32b76d27f57fb374af64736f6c63430008110033",
    "linkReferences": {},
    "deployedLinkReferences": {}
}